S013000054656D70436F6E74726F6C2E737265639A
S11300000C9438000C9455000C9455000C94550035
S11300100C9455000C9455000C9455000C94550008
S11300200C9455000C9455000C9455000C945500F8
S11300300C9455000C9455000C9455000C945500E8
S11300400C9455000C9455000C9455000C94B60473
S11300500C945C040C9455000C9455000C94DF042F
S11300600C9485040C9455000C9455000C94550084
S113007011241FBECFEFD4E0DEBFCDBF11E0A0E05E
S1130080B1E0EAE4F5E102C005900D92A233B107B4
S1130090D9F721E0A2E3B1E001C01D92A635B20771
S11300A0E1F70E9446010C94A30A0C9400000F93FC
S11300B01F93CF93DF938C0168E070E081E090E0C0
S11300C00E947006EC01B80181E090E00E94700685
S11300D09F838E831D830C83CE01DF91CF911F916B
S11300E00F910895FC01A681B78180819181A80FA9
S11300F0B91F6C93808191810196648175810E94FE
S11301003A06918380830895EF92FF920F931F9391
S1130110CF93DF937C01EB014115510551F08B0125
S1130120040F151F6991C7010E9472000C171D0767
S1130130C9F7DF91CF911F910F91FF90EF90089530
S1130140FC0182819381A681B781A80FB91F2C91EC
S11301500196648175810E943A0693838283822F7B
S11301600895FC0181E0408151812281338142174D
S1130170530709F080E00895FC0140E080E05CE86A
S1130180219198E0322F38278695269530FD8527D2
S11301909150C1F74F5F461798F30895EF92FF927D
S11301A00F931F93CF938C010E94EC02C82F8130D0
S11301B009F065C08CEC0E94470384E40E94470365
S11301C087EB9BE00197F1F700C000000E94EC026E
S11301D0C82F813009F053C08CEC0E9447038EEB8A
S11301E00E9447030E9411030F2EF8E3EF2EF1E063
S11301F0FF2EF02DD7018C930E941103F701818308
S11302000E941103D70112968C930E941103F701E7
S113021083830E941103D70114968C930E941103C7
S1130220F70185830E941103D70116968C930E94CF
S11302301103F70187830E941103D70118968C9349
S113024069E0C7010E94BC00811118C0F7018181D7
S113025090E0982F88272081822BD80119969C93AF
S11302608E93189782811A968C931A9783811B9682
S11302708C931B9784811C968C9301C0C3E08C2FB4
S1130280CF911F910F91FF90EF9008958FEF81BB55
S11302908FE082BB40E850E060E875E281E00E94B4
S11302A0F103909342018093410140E850E060E8FB
S11302B075E280E00E94F10390934401809343012E
S11302C081E491E00E94020281E00E94C2016093F5
S11302D03201709333018093340162E082E391E050
S11302E00E94CE01C2E3D1E06AE171E08881998184
S11302F00E94E60162E271E0888199810E94E60130
S11303007894F12C8E0185E491E00E94CE00C09196
S11303104D01D0914E01F2BA6C2F6F7070E080E005
S113032090E00E943F0520E030E040E85DE30E9459
S1130330A505D801ED91FC910190F081E02DD295B5
S1130340C295CF70CD27DF70CD27C083D801ED9142
S1130350FC91C081D18120E030E048EC52E40E945D
S1130360A5050E9410056B83C8010E942A02F3941C
S1130370BFEF29E688E1B15020408040E1F700C09A
S11303800000C1CFCF93C82F63E070E090E00E94DB
S11303907006682F792F8C2FCF9108951F93CF93D8
S11303A0DF93FC012281222369F0162FEC0163E024
S11303B070E0812F90E00E947006E881F9819183BA
S11303C080831283DF91CF911F910895DC01909176
S11303D0350112968C911297981790F4292F30E0DA
S11303E0F901EE0FFF1F2E0F3F1FED91FC91E20F5D
S11303F0F31F728361839F5F9093350181E00895B9
S113040080E00895FC01808191819093370180936D
S113041036010895CF93DF9300D000D0CDB7DEB777
S11304208FEF9FEFAFEFB0E089839A83AB83BC83F8
S113043043E050E0BE016F5F7F4F809136019091A1
S113044037010E9445040F900F900F900F90DF9199
S1130450CF9108954F925F926F927F928F929F9265
S1130460AF92BF92CF92DF92EF92FF920F931F93BE
S1130470CF93DF93DC0112962C9121117DC09BC098
S1130480712C61E070E083E090E00E947006582EC9
S1130490692E872D90E0EC01CC0FDD1FC80FD91F0A
S11304A0D401ED91FC91EC0FFD1F808188239CF019
S11304B0282F082E000C330B3F938F93DF92CF929B
S11304C06F925F920E94B9070F900F900F900F9058
S11304D00F900F9012C0282F082E000C330B3F935F
S11304E08F93BF92AF926F925F920E94B9070F9061
S11304F00F900F900F900F900F90D701ED91FC91FA
S1130500E00FF11F80819181C80FD91F69817A8121
S1130510FB0101900020E9F73197AF01461B570B0F
S113052080913601909137010E944504A52DB62D86
S1130530FD0101900020E9F73197AF014A1B5B0BE5
S1130540652D762D80913601909137010E944504E6
S11305500E940A027394F70180809180800E911E9C
S1130560D40112968C91781608F48BCF4394F7013A
S11305708281481678F01FC07C01412C0F2EFDE2C9
S1130580AF2EF1E0BF2EF02D0F2EFAE2CF2EF1E0C8
S1130590DF2EF02D842D90E08C01000F111F080F29
S11305A0191FD7018D909C90800E911EF4018281B9
S11305B0811166CFDBCFDF91CF911F910F91FF9017
S11305C0EF90DF90CF90BF90AF909F908F907F90EF
S11305D06F905F904F9008959FB7F894D09AD898F1
S11305E0EFEEFAE03197F1F700C00000D89AEBE2A1
S11305F0F1E03197F1F700C00000D098C8990CC021
S1130600EFEEFAE03197F1F700C0000089B38823D8
S113061029F09FBF81E0089580E001C082E09FBF80
S113062008952FB7F894D09A98E080E08695D898EA
S113063030E13A95F1F7D89AD098E0E4EA95F1F7E9
S1130640C8998068D09AD89AEBE2F1E03197F1F733
S113065000C00000915051F72FBF0895D09AD89848
S113066080E58A95F1F780EF8A95F1F7D89A8AE0C8
S11306708A95F1F700C00895D09AD89880E58A95B4
S1130680F1F7D89A8AEF8A95F1F700C00895DF92BE
S1130690EF92FF920F931F93CF93DF93DFB6F894FB
S11306A008E010E0C1E0D0E0E82EF12CC7018C2373
S11306B09D23892B19F00E943C0302C00E942E0343
S11306C0CC0FDD1F0150110989F7DFBEDF91CF91F7
S11306D01F910F91FF90EF90DF900895A0E0B0E09C
S11306E0880F991FAA1FBB1F880F991FAA1FBB1F22
S11306F09C01AD01220F331F441F551F220F331FCE
S1130700441F551F60E074E284EF90E00E944E069F
S1130710DA01C9010197A109B10989B9892F9A2F71
S1130720AB2FBB27A7FDBA9580BD1BB888ED8AB94E
S113073086E080BD0895A0E0B0E0880F991FAA1F4D
S1130740BB1F880F991FAA1FBB1F9C01AD01220F5D
S1130750331F441F551F220F331F441F551F60E0D2
S113076074E284EF90E00E944E062150310920B9D2
S11307703CBF12B888ED81B986E08CBF0895CF9351
S1130780CFB7F89480911401909115010E94B100A3
S113079081110BC0159B07C0809114019091150124
S11307A00E94A00083B9CFBF01C0CFBFCF910895ED
S11307B0CF93CFB7F89480910A0190910B010E94D6
S11307C0B10081110BC05D9B07C080910A0190911B
S11307D00B010E94A0008CB9CFBF01C0CFBFCF9145
S11307E008959F92AF92BF92CF92DF92EF92FF92C1
S11307F00F931F93CF93DF93982E6B017A0121E01F
S1130800281710F40E94AD07082F10E05801AA0C15
S1130810BB1CC801880F991F880F991F880F991F47
S11308208A0D9B1DFC01EA5FFE4F5F0180818111EF
S11308300E94AD07CA010E945700E801CC0FDD1FDA
S1130840000F111F000F111F000F111FC00FD11F28
S1130850CA5FDE4F9B838A83C7010E9457009D8332
S11308608C839982EE81FF81C601099581E088839A
S1130870C501DF91CF911F910F91FF90EF90DF9011
S1130880CF90BF90AF909F9008951F93CF93DF9325
S1130890EC014115510511F40E94AD071FB7F894FE
S11308A08C819D810E9484001FBFE885F98509958C
S11308B0DF91CF911F9108951F920F920FB60F925F
S11308C011242F933F934F935F936F937F938F9351
S11308D09F93AF93BF93EF93FF9363B18091120102
S11308E0909113010E947200FF91EF91BF91AF911B
S11308F09F918F917F916F915F914F913F912F9134
S11309000F900FBE0F901F9018951F920F920FB665
S11309100F9211242F933F934F935F936F937F9381
S11309208F939F93AF93BF93EF93FF9380911401A1
S1130930909115010E94B100811107C080911401AA
S1130940909115010E94A00083B9FF91EF91BF918E
S1130950AF919F918F917F916F915F914F913F9153
S11309602F910F900FBE0F901F9018951F920F920A
S11309700FB60F9211242F933F934F935F936F936E
S11309807F938F939F93AF93BF93EF93FF936CB138
S113099080910801909109010E947200FF91EF91EA
S11309A0BF91AF919F918F917F916F915F914F9183
S11309B03F912F910F900FBE0F901F9018951F928B
S11309C00F920FB60F9211242F933F934F935F937F
S11309D06F937F938F939F93AF93BF93EF93FF9303
S11309E080910A0190910B010E94B100811107C00E
S11309F080910A0190910B010E94A0008CB9FF9193
S1130A00EF91BF91AF919F918F917F916F915F9182
S1130A104F913F912F910F900FBE0F901F901895FB
S1130A200E94840588F09F5798F0B92F9927B751F1
S1130A30B0F0E1F0660F771F881F991F1AF0BA957E
S1130A40C9F714C0B13091F00E949E05B1E0089539
S1130A500C949E05672F782F8827B85F39F0B93F2B
S1130A60CCF3869577956795B395D9F73EF4909531
S1130A708095709561957F4F8F4F9F4F0895E894AF
S1130A8009C097FB3EF490958095709561957F4FD2
S1130A908F4F9F4F9923A9F0F92F96E9BB27939580
S1130AA0F695879577956795B795F111F8CFFAF490
S1130AB0BB0F11F460FF1BC06F5F7F4F8F4F9F4FC1
S1130AC016C0882311F096E911C0772321F09EE81F
S1130AD0872F762F05C0662371F096E8862F70E085
S1130AE060E02AF09A95660F771F881FDAF7880F5F
S1130AF09695879597F9089557FD9058440F551F7B
S1130B0059F05F3F71F04795880F97FB991F61F08B
S1130B109F3F79F087950895121613061406551F02
S1130B20F2CF4695F1DF08C0161617061806991F6E
S1130B30F1CF86957105610508940895E894BB2763
S1130B4066277727CB0197F908950E94B8050C947E
S1130B5029060E941B0638F00E94220620F09523E5
S1130B6011F00C9412060C94180611240C949F0591
S1130B700E947C0570F3959FC1F3950F50E0551FBB
S1130B80629FF001729FBB27F00DB11D639FAA27DE
S1130B90F00DB11DAA1F649F6627B00DA11D661F2D
S1130BA0829F2227B00DA11D621F739FB00DA11D4E
S1130BB0621F839FA00D611D221F749F3327A00D08
S1130BC0611D231F849F600D211D822F762F6A2FA4
S1130BD011249F5750409AF0F1F088234AF0EE0F09
S1130BE0FF1FBB1F661F771F881F91505040A9F736
S1130BF09E3F510580F00C9412060C949F055F3FB4
S1130C00E4F3983ED4F3869577956795B795F79571
S1130C10E7959F5FC1F7FE2B880F911D96958795E9
S1130C2097F9089597F99F6780E870E060E0089568
S1130C309FEF80EC089500240A94161617061806F0
S1130C400906089500240A941216130614060506CC
S1130C500895092E0394000C11F4882352F0BB0F5D
S1130C6040F4BF2B11F460FF04C06F5F7F4F8F4FC0
S1130C709F4F0895AA1BBB1B51E107C0AA1FBB1FAE
S1130C80A617B70710F0A61BB70B881F991F5A9514
S1130C90A9F780959095BC01CD010895A1E21A2E83
S1130CA0AA1BBB1BFD010DC0AA1FBB1FEE1FFF1F0C
S1130CB0A217B307E407F50720F0A21BB30BE40B5C
S1130CC0F50B661F771F881F991F1A9469F76095A3
S1130CD07095809590959B01AC01BD01CF0108955D
S1130CE00F931F93CF93DF93869F8001879F100DEF
S1130CF0969F100D1124C8010E948C06EC010097E8
S1130D0029F0A80160E070E00E94B207CE01DF91F3
S1130D10CF911F910F9108950F931F93CF93DF935A
S1130D208230910510F482E090E0E0915401F0915A
S1130D30550120E030E0A0E0B0E0309719F14081A7
S1130D4051810281138148175907C8F08417950708
S1130D5069F4109731F012960C93129713961C9322
S1130D6027C0009354011093550122C02115310569
S1130D7019F04217530718F49A01BD01EF01DF017E
S1130D80F801DBCF21153105F9F0281B390B24308C
S1130D90310580F48A819B816115710521F0FB0185
S1130DA09383828304C09093550180935401FE0180
S1130DB0329644C0FE01E20FF31F819391932250B7
S1130DC03109398328833AC020915201309153016B
S1130DD0232B41F4209102013091030130935301FC
S1130DE02093520120910001309101012115310518
S1130DF041F42DB73EB74091040150910501241BE5
S1130E00350BE0915201F0915301E217F307A0F47E
S1130E102E1B3F0B2817390778F0AC014E5F5F4F4C
S1130E202417350748F04E0F5F1F5093530140932A
S1130E3052018193919302C0E0E0F0E0CF01DF9191
S1130E40CF911F910F910895CF93DF93009709F4E9
S1130E5081C0FC01329713821282A0915401B09197
S1130E605501109781F420813181820F931F2091C5
S1130E705201309153012817390751F5F09353016A
S1130E80E093520167C0ED0120E030E0CE17DF07A8
S1130E9040F44A815B819E0141155105F1F0EA015C
S1130EA0F5CFD383C28340815181840F951FC81726
S1130EB0D90759F488819981840F951F02969183EB
S1130EC080838A819B81938382832115310529F450
S1130ED0F0935501E09354013DC0E901FB83EA839B
S1130EE049915991C40FD51FEC17FD0761F4808116
S1130EF09181840F951F0296E901998388838281E9
S1130F0093819B838A83E0E0F0E012968D919C911B
S1130F101397009719F0FD01DC01F7CF8D919C9197
S1130F2011979D012E5F3F4F820F931F2091520115
S1130F30309153012817390769F4309729F4109236
S1130F4055011092540102C013821282B0935301CE
S1130F50A0935201DF91CF91089581E090E0F8943D
S1130F600C94A30ADC0101C06D9341505040E0F79A
S1130F700895AEE0B0E0EFEBF7E00C947A0A0D8947
S1130F801E8986E08C831A8309838FEF9FE79E83F3
S1130F908D83AE01475E5F4F6F89788DCE010196D8
S1130FA00E94DB07EF81F885E00FF11F10822E9677
S1130FB0E4E00C94960AABE0B0E0E1EEF7E00C94C8
S1130FC06C0A6C017B018A01FC0117821682838101
S1130FD081FFCCC1CE0101963C01F6019381F7015A
S1130FE093FD859193FF81917F01882309F4BAC110
S1130FF0853239F493FD859193FF81917F01853288
S113100029F4B60190E00E94D209E7CF912C212C5B
S1131010312CFFE1F315D8F08B3279F038F48032BB
S113102079F08332A1F4232D20611DC08D3261F04B
S1131030803369F4232D216016C0832D8260382EFD
S1131040E32DE4603E2E2AC0F32DF8601DC037FC6A
S11310502DC020ED280F2A3040F08E32B9F436FC32
S113106081C1232D2064322E19C036FE06C08AE0C9
S1131070989E200D1124922E11C0EAE02E9E200D80
S11310801124222EF32DF0623F2E08C08C3621F459
S1131090832D8068382E02C0883641F4F70193FD11
S11310A0859193FF81917F018111B3CF982F9F7D0B
S11310B09554933028F40C5F1F4F9FE399830DC020
S11310C0833631F0833771F0833509F059C021C07C
S11310D0F801808189830E5F1F4F88248394912CAB
S11310E0530113C02801F2E04F0E511CF801A080F7
S11310F0B18036FE03C0692D70E002C06FEF7FEF50
S1131100C5010E94C7094C018201F32DFF773F2ED0
S113111016C0280122E0420E511CF801A080B180C3
S113112036FE03C0692D70E002C06FEF7FEFC5018A
S11311300E94BC094C01F32DF0683F2E820133FC60
S11311401BC0822D90E088169906B0F4B60180E2A7
S113115090E00E94D2092A94F4CFF50137FC8591DE
S113116037FE81915F01B60190E00E94D2092110FF
S11311702A9421E0821A91088114910471F7E8C03D
S1131180843611F0893641F5F80137FE07C06081D5
S11311907181828193810C5F1F4F08C060817181CE
S11311A0072E000C880B990B0E5F1F4FF32DFF7653
S11311B03F2E97FF09C090958095709561957F4F5C
S11311C08F4F9F4FF0683F2E2AE030E0A3010E942A
S11311D00E0A882E861845C0853731F4232D2F7EBC
S11311E0B22E2AE030E025C0932D997FB92E8F3698
S11311F0C1F018F4883579F0B5C0803719F0883714
S113120021F0B0C0E92FE061BE2EB4FE0DC0FB2D6D
S1131210F460BF2E09C034FE0AC0292F2660B22E06
S113122006C028E030E005C020E130E002C020E143
S113123032E0F801B7FE07C0608171818281938139
S11312400C5F1F4F06C06081718180E090E00E5FEB
S11312501F4FA3010E940E0A882E8618FB2DFF77CC
S11312603F2E36FE0DC0232D2E7FA22E891458F456
S113127034FE0BC032FC09C0832D8E7EA82E05C01F
S1131280B82CA32C03C0B82C01C0B92CA4FE0FC0E9
S1131290FE01E80DF11D8081803321F49A2D997EA1
S11312A0A92E09C0A2FE06C0B394B39404C08A2D2B
S11312B0867809F0B394A3FC11C0A0FE06C0B21452
S11312C088F4280C922C9B180EC0B21460F4B6015A
S11312D080E290E00E94D209B394F7CFB21418F4DC
S11312E02B1802C0982C212CA4FE10C0B60180E358
S11312F090E00E94D209A2FE17C0A1FC03C088E7B7
S113130090E002C088E590E0B6010CC08A2D867892
S113131059F0A1FE02C08BE201C080E2A7FC8DE27D
S1131320B60190E00E94D209891438F4B60180E332
S113133090E00E94D2099A94F7CF8A94F301E80DC1
S1131340F11D8081B60190E00E94D2098110F5CF91
S1131350222009F442CEB60180E290E00E94D20934
S11313602A94F6CFF6018681978102C08FEF9FEF12
S11313702B96E2E10C94880AFC01059061507040C0
S11313800110D8F7809590958E0F9F1F0895FC014A
S11313906150704001900110D8F7809590958E0FA0
S11313A09F1F08950F931F93CF93DF93FB01238116
S11313B021FD03C08FEF9FEF2CC022FF16C0468192
S11313C05781248135814217530744F4A081B181A8
S11313D09D012F5F3F4F318320838C93268137817A
S11313E02F5F3F4F3783268314C08B01EC01FB0131
S11313F00084F185E02D0995892BE1F6D801169634
S11314008D919C911797019617969C938E9316979E
S1131410CE01DF91CF911F910F910895FA01AA2770
S1131420283051F1203181F1E8946F936E7F6E5F23
S11314307F4F8F4F9F4FAF4FB1E03ED0B4E03CD0D1
S1131440670F781F891F9A1FA11D680F791F8A1FB4
S1131450911DA11D6A0F711D811D911DA11D20D01B
S113146009F468943F912AE0269F11243019305DD5
S11314703193DEF6CF010895462F4770405D4193C6
S1131480B3E00FD0C9F7F6CF462F4F70405D4A3313
S113149018F0495D31FD4052419302D0A9F7EACFDB
S11314A0B4E0A6959795879577956795BA95C9F70A
S11314B000976105710508959B01AC010A2E0694FD
S11314C05795479537952795BA95C9F7620F731FB6
S11314D0841F951FA01D08952F923F924F925F92F3
S11314E06F927F928F929F92AF92BF92CF92DF9230
S11314F0EF92FF920F931F93CF93DF93CDB7DEB795
S1131500CA1BDB0B0FB6F894DEBF0FBECDBF099428
S11315102A88398848885F846E847D848C849B847F
S1131520AA84B984C884DF80EE80FD800C811B818D
S1131530AA81B981CE0FD11D0FB6F894DEBF0FBEBC
S10D1540CDBFED010895F894FFCF2C
S113154A0000560120000000000000006E03D803CA
S113155A0001000000009B03BF036E302E76616C0D
S113156A3D006E312E76616C3D00256400252B64A6
S105157A00006B
S9030000FC
