S013000054656D70436F6E74726F6C2E737265639A
S11300000C9438000C9455000C9455000C94550035
S11300100C9455000C9455000C9455000C94550008
S11300200C9455000C9455000C9455000C945500F8
S11300300C9455000C9455000C9455000C945500E8
S11300400C9455000C9455000C9455000C941F0608
S11300500C94C5050C9455000C9455000C9448065A
S11300600C94EE050C9455000C9455000C9455001A
S113007011241FBECFEFD4E0DEBFCDBF11E0A0E05E
S1130080B1E0EAE8F8E102C005900D92A235B107AB
S1130090D9F721E0A2E5B1E001C01D92A03AB20770
S11300A0E1F70E947B020C94430C0C9400000F9324
S11300B01F93CF93DF938C0168E070E081E090E0C0
S11300C00E941008EC01B80181E090E00E94100841
S11300D09F838E831D830C83CE01DF91CF911F916B
S11300E00F910895FC01A681B78180819181A80FA9
S11300F0B91F6C93808191810196648175810E94FE
S1130100A307918380830895EF92FF920F931F9327
S1130110CF93DF937C01EB014115510551F08B0125
S1130120040F151F6991C7010E9472000C171D0767
S1130130C9F7DF91CF911F910F91FF90EF90089530
S1130140FC0182819381A681B781A80FB91F2C91EC
S11301500196648175810E94A30793838283822F11
S11301600895FC0180819181428153818417950710
S113017018F0841B950B089524813581820F931FF9
S1130180841B950B0895EF92FF920F931F93CF93C7
S1130190DF937C01EB018A010E94B1000817190763
S11301A008F4C801009751F08E01080F191FC70108
S11301B00E94A00089930C171D07C9F7DF91CF9106
S11301C01F910F91FF90EF900895FC0181E0408111
S11301D05181228133814217530709F080E0089549
S11301E0FC0140E080E05CE8219198E0322F382760
S11301F08695269530FD85279150C1F74F5F4617A8
S113020098F30895FF920F931F93CF93DF93EC011C
S11302100E943B04F82E81E0F81221C083E30E947F
S1130220A50417E00E9478042881282B39814A818B
S11302305B816C817D818E819F8108E00E94D9075A
S1130240288339834A835B836C837D838E839F8376
S1130250115041F70E9478049881892B88838F2D4F
S1130260DF91CF911F910F91FF900895EF92FF922C
S11302700F931F93CF93DF93EC010E943B04182F3D
S1130280813009F08DC085E50E94A504E12CF12C94
S1130290288139814A815B816C817D818E819F8136
S11302A00E2D0E94D90708E30E94F407822F0E94B2
S11302B0A50488E0E80EF11C90E4E916F10441F786
S11302C084E40E94A504E7EBFBE03197F1F700C05A
S11302D000000E943B04182F813009F061C085E5BD
S11302E00E94A504E12CF12C288139814A815B818B
S11302F06C817D818E819F810E2D0E94D90708E338
S11303000E94F407822F0E94A504F8E0EF0EF11C6E
S113031080E4E816F10441F78EEB0E94A5040E94E4
S113032078040F2EF3E8EF2EF1E0FF2EF02DF70105
S113033080830E947804F70181830E947804F70186
S113034082830E947804F70183830E947804F70172
S113035084830E947804F70185830E947804F7015E
S113036086830E947804F70187830E947804F7014A
S1130370808769E0C7010E94F000811110C0F70175
S1130380818190E0982F88272081822B9987888704
S113039082818A8783818B8784818C8701C013E063
S11303A0812FDF91CF911F910F91FF90EF900895CE
S11303B08091520190E09C01220F331FF901EE0F4E
S11303C0FF1FEE0FFF1FEE0FFF1FE21BF30BED5A93
S11303D0FE4F25852630B9F0CF010E9402018130FD
S11303E091F48091520190E0880F991FFC01EE0F67
S11303F0FF1FEE0FFF1FEE0FFF1FE81BF90BED5A57
S1130400FE4F86E0858780915201833020F48F5F10
S1130410809352010895109252010895FC01608165
S11304206F7070E080E090E00E94A80620E030E069
S113043040E85DE30E940E0720E030E048EC52E41F
S11304400E940E070E947906862F0895CF93DF93AA
S11304506130F9F018F06230A1F14AC0EDE7F1E043
S1130460A081B1810D90BC91A02DEC012885398526
S1130470329522952F7023273F7023272C930190C8
S1130480F081E02DC081D18108960E940E028B83F9
S11304902FC0E0917D01F0917E01A081B181EC013A
S11304A028853985329522952F7023273F7023277D
S11304B016962C93C081D18108960E940E028987DA
S11304C017C0E0917D01F0917E01A081B181EC0122
S11304D028853985329522952F7023273F7023274D
S11304E01C962C93C081D18108960E940E028F879E
S11304F0DF91CF910895CF93DF931F92CDB7DEB7ED
S11305008FEF84BB40E850E060E875E281E00E9430
S11305104F05909399018093980140E850E060E87A
S113052075E280E00E944F0590939B0180939A01AD
S113053088E991E00E944D0381E00E940D036093DD
S11305407D0170937E0180937F0166E08DE791E0E9
S11305500E9419030DE711E06AE171E0F80180815E
S113056091810E94310362E271E0F80180819181FE
S11305700E9431036AE271E0F801808191810E9456
S1130580310362E371E0F801808191810E943103BB
S11305906AE371E0F801808191810E94310362E491
S11305A071E0F801808191810E943103789441E0E7
S11305B050E0BE016F5F7F4F809198019091990147
S11305C00E94BA058981813019F40E94D8011982E8
S11305D003E511E0F12CF8018585863071F4C8013A
S11305E00E943601813049F46F2D802F912F0E9493
S11305F026028DE791E00E947503F394025F1F4F7A
S1130600F3E0FF12E8CF2FEF83ED90E32150804019
S11306109040E1F700C00000CACFCF93C82F63E039
S113062070E090E00E941008682F792F8C2FCF91F2
S113063008951F93CF93DF93FC012281222369F055
S1130640162FEC0163E070E0812F90E00E94100807
S1130650E881F981918380831283DF91CF911F9187
S11306600895DC019091800112968C91129798174D
S113067090F4292F30E0F901EE0FFF1F2E0F3F1FDA
S1130680ED91FC91E20FF31F728361839F5F90935E
S1130690800181E0089580E00895FC0180819181CA
S11306A090938201809381010895CF93DF9300D0CA
S11306B000D0CDB7DEB78FEF9FEFAFEFB0E0898307
S11306C09A83AB83BC8343E050E0BE016F5F7F4FEE
S11306D080918101909182010E94A3050F900F9057
S11306E00F900F90DF91CF9108954F925F926F9288
S11306F07F928F929F92AF92BF92CF92DF92EF92AE
S1130700FF920F931F93CF93DF93DC0112962C91EA
S1130710211181C09FC0512C61E070E083E090E022
S11307200E941008682E792E852D90E0EC01CC0FE4
S1130730DD1FC80FD91FD401ED91FC91EC0FFD1FF3
S1130740808188239CF0282F082E000C330B3F93C4
S11307508F93DF92CF927F926F920E9459090F90EC
S11307600F900F900F900F900F9012C0282F082E0B
S1130770000C330B3F938F93BF92AF927F926F9293
S11307800E9459090F900F900F900F900F900F90A7
S1130790D701ED91FC91E00FF11F80819181C80F89
S11307A0D91F69817A81FB0101900020E9F7319713
S11307B0AF01461B570B80918101909182010E94E9
S11307C0A305A62DB72DFD0101900020E9F731976F
S11307D0AF014A1B5B0B662D772D809181019091AF
S11307E082010E94A3050E945503862D972D0E9425
S11307F0C4085394F70180809180800E911ED40127
S113080012968C91581608F487CF4394F70182818D
S1130810481678F01FC07C01412C0F2EFDE4AF2E4A
S1130820F1E0BF2EF02D0F2EFAE4CF2EF1E0DF2EF3
S1130830F02D842D90E08C01000F111F080F191F5B
S1130840D7018D909C90800E911EF40182818111BC
S113085062CFDBCFDF91CF911F910F91FF90EF908B
S1130860DF90CF90BF90AF909F908F907F906F90CC
S11308705F904F9008959FB7F894D09AD898EFEE70
S1130880FAE03197F1F700C00000D89AEBE2F1E00A
S11308903197F1F700C00000D098C8990CC0EFEE72
S11308A0FAE03197F1F700C0000089B3882329F0FA
S11308B09FBF81E0089580E001C082E09FBF08955A
S11308C0D09AD89880E18A95F1F7D89AD098E0E444
S11308D0EA95F1F7C89B02C080E801C080E0D09A95
S11308E0D89AEBE2F1E03197F1F700C000000895E7
S11308F01F93CF93DF931FB7F894D09AD8E080E08A
S1130900C82FC6950E9460048C2BD150C9F71FBF15
S1130910DF91CF911F910895D09AD89880E58A9558
S1130920F1F780EF8A95F1F7D89A8AE08A95F1F782
S113093000C00895D09AD89880E58A95F1F7D89A9E
S11309408AEF8A95F1F700C00895DF92EF92FF9243
S11309500F931F93CF93DF93DFB6F89408E010E072
S1130960C1E0D0E0E82EF12CC7018C239D23892B14
S113097019F00E949A0402C00E948C04CC0FDD1F5F
S11309800150110989F7DFBEDF91CF911F910F91BB
S1130990FF90EF90DF900895A0E0B0E0880F991FDA
S11309A0AA1FBB1F880F991FAA1FBB1F9C01AD0163
S11309B0220F331F441F551F220F331F441F551F7F
S11309C060E074E284EF90E00E94B707DA01C901A5
S11309D00197A109B10989B9892F9A2FAB2FBB2798
S11309E0A7FDBA9580BD1BB888ED8AB986E080BDA5
S11309F00895A0E0B0E0880F991FAA1FBB1F880FBD
S1130A00991FAA1FBB1F9C01AD01220F331F441F56
S1130A10551F220F331F441F551F60E074E284EFFB
S1130A2090E00E94B7072150310920B93CBF12B8A9
S1130A3088ED81B986E08CBF0895CF93CFB7F89441
S1130A4080911401909115010E94E50081110BC061
S1130A50159B07C080911401909115010E94A0007C
S1130A6083B9CFBF01C0CFBFCF910895CF93CFB784
S1130A70F89480910A0190910B010E94E500811184
S1130A800BC05D9B07C080910A0190910B010E94ED
S1130A90A0008CB9CFBF01C0CFBFCF9108959F9262
S1130AA0AF92BF92CF92DF92EF92FF920F931F9378
S1130AB0CF93DF93982E6B017A0121E0281710F46D
S1130AC00E944D09082F10E05801AA0CBB1CC80154
S1130AD0880F991F880F991F880F991F8A0D9B1DD6
S1130AE0FC01EA5FFE4F5F01808181110E944D0984
S1130AF0CA010E945700E801CC0FDD1F000F111F2F
S1130B00000F111F000F111FC00FD11FCA5FDE4F4E
S1130B109B838A83C7010E9457009D838C8399829B
S1130B20EE81FF81C601099581E08883C501DF91CB
S1130B30CF911F910F91FF90EF90DF90CF90BF90D6
S1130B40AF909F9008951F93CF93DF93EC014115CD
S1130B50510511F40E944D091FB7F8948C819D81B1
S1130B600E9484001FBFE885F9850995DF91CF9124
S1130B701F910895CF93CFB7F894FC01828193819C
S1130B800E94C300CFBFCF9108951F920F920FB65A
S1130B900F9211242F933F934F935F936F937F93FF
S1130BA08F939F93AF93BF93EF93FF9363B1809120
S1130BB01201909113010E947200FF91EF91BF9175
S1130BC0AF919F918F917F916F915F914F913F91E1
S1130BD02F910F900FBE0F901F9018951F920F9298
S1130BE00FB60F9211242F933F934F935F936F93FC
S1130BF07F938F939F93AF93BF93EF93FF938091D2
S1130C001401909115010E94E500811107C08091A3
S1130C101401909115010E94A00083B9FF91EF91F6
S1130C20BF91AF919F918F917F916F915F914F9100
S1130C303F912F910F900FBE0F901F9018951F9208
S1130C400F920FB60F9211242F933F934F935F93FC
S1130C506F937F938F939F93AF93BF93EF93FF9380
S1130C606CB180910801909109010E947200FF917A
S1130C70EF91BF91AF919F918F917F916F915F9110
S1130C804F913F912F910F900FBE0F901F90189589
S1130C901F920F920FB60F9211242F933F934F93ED
S1130CA05F936F937F938F939F93AF93BF93EF93D0
S1130CB0FF9380910A0190910B010E94E50081113C
S1130CC007C080910A0190910B010E94A0008CB989
S1130CD0FF91EF91BF91AF919F918F917F916F9110
S1130CE05F914F913F912F910F900FBE0F901F90E6
S1130CF018950E94ED0688F09F5798F0B92F992710
S1130D00B751B0F0E1F0660F771F881F991F1AF0F2
S1130D10BA95C9F714C0B13091F00E940707B1E049
S1130D2008950C940707672F782F8827B85F39F048
S1130D30B93FCCF3869577956795B395D9F73EF48B
S1130D4090958095709561957F4F8F4F9F4F089533
S1130D50E89409C097FB3EF4909580957095619551
S1130D607F4F8F4F9F4F9923A9F0F92F96E9BB2707
S1130D709395F695879577956795B795F111F8CF83
S1130D80FAF4BB0F11F460FF1BC06F5F7F4F8F4FEE
S1130D909F4F16C0882311F096E911C0772321F0E4
S1130DA09EE8872F762F05C0662371F096E8862F7C
S1130DB070E060E02AF09A95660F771F881FDAF7D3
S1130DC0880F9695879597F9089557FD9058440F85
S1130DD0551F59F05F3F71F04795880F97FB991F96
S1130DE061F09F3F79F08795089512161306140653
S1130DF0551FF2CF4695F1DF08C0161617061806E0
S1130E00991FF1CF86957105610508940895E894BA
S1130E10BB2766277727CB0197F908950E942107FE
S1130E200C9492070E94840738F00E948B0720F0EC
S1130E30952311F00C947B070C94810711240C94D6
S1130E4008070E94E50670F3959FC1F3950F50E0E3
S1130E50551F629FF001729FBB27F00DB11D639F68
S1130E60AA27F00DB11DAA1F649F6627B00DA11D0E
S1130E70661F829F2227B00DA11D621F739FB00DB4
S1130E80A11D621F839FA00D611D221F749F332724
S1130E90A00D611D231F849F600D211D822F762FBD
S1130EA06A2F11249F5750409AF0F1F088234AF09A
S1130EB0EE0FFF1FBB1F661F771F881F9150504006
S1130EC0A9F79E3F510580F00C947B070C9408070A
S1130ED05F3FE4F3983ED4F3869577956795B7958D
S1130EE0F795E7959F5FC1F7FE2B880F911D9695A7
S1130EF0879597F9089597F99F6780E870E060E017
S1130F0008959FEF80EC089500240A94161617069E
S1130F1018060906089500240A94121613061406E6
S1130F2005060895092E0394000C11F4882352F049
S1130F30BB0F40F4BF2B11F460FF04C06F5F7F4F01
S1130F408F4F9F4F0895AA1BBB1B51E107C0AA1FD7
S1130F50BB1FA617B70710F0A61BB70B881F991F56
S1130F605A95A9F780959095BC01CD010895A1E209
S1130F701A2EAA1BBB1BFD010DC0AA1FBB1FEE1F0F
S1130F80FF1FA217B307E407F50720F0A21BB30B5A
S1130F90E40BF50B661F771F881F991F1A9469F7D6
S1130FA060957095809590959B01AC01BD01CF0132
S1130FB008950F93083090F0982F872F762F652F80
S1130FC0542F432F322F22270850F4CF220F331FE0
S1130FD0441F551F661F771F881F991F0A95B2F774
S1130FE00F91089597FB10F8169400080F9308309A
S1130FF098F00850232F342F452F562F672F782F22
S1131000892F902DF4CF05949795879577956795BB
S113101057954795379527950A95AAF70F910895FF
S11310200F931F93CF93DF93869F8001879F100DAB
S1131030969F100D1124C8010E942C08EC01009702
S113104029F0A80160E070E00E945209CE01DF910E
S1131050CF911F910F9108950F931F93CF93DF9317
S11310608230910510F482E090E0E0919E01F091CD
S11310709F0120E030E0A0E0B0E0309719F140811A
S113108051810281138148175907C8F084179507C5
S113109069F4109731F012960C93129713961C93DF
S11310A027C000939E0110939F0122C02115310592
S11310B019F04217530718F49A01BD01EF01DF013B
S11310C0F801DBCF21153105F9F0281B390B243049
S11310D0310580F48A819B816115710521F0FB0142
S11310E09383828304C090939F0180939E01FE01A9
S11310F0329644C0FE01E20FF31F81939193225074
S11311003109398328833AC020919C0130919D0193
S1131110232B41F4209102013091030130939D016E
S113112020939C012091000130910101211531058A
S113113041F42DB73EB74091040150910501241BA1
S1131140350BE0919C01F0919D01E217F307A0F4A7
S11311502E1B3F0B2817390778F0AC014E5F5F4F09
S11311602417350748F04E0F5F1F50939D0140939D
S11311709C018193919302C0E0E0F0E0CF01DF9104
S1131180CF911F910F910895CF93DF93009709F4A6
S113119081C0FC01329713821282A0919E01B0910A
S11311A09F01109781F420813181820F931F209138
S11311B09C0130919D012817390751F5F0939D0149
S11311C0E0939C0167C0ED0120E030E0CE17DF071B
S11311D040F44A815B819E0141155105F1F0EA0119
S11311E0F5CFD383C28340815181840F951FC817E3
S11311F0D90759F488819981840F951F02969183A8
S113120080838A819B81938382832115310529F40C
S1131210F0939F01E0939E013DC0E901FB83EA83C3
S113122049915991C40FD51FEC17FD0761F48081D2
S11312309181840F951F0296E901998388838281A5
S113124093819B838A83E0E0F0E012968D919C91D8
S11312501397009719F0FD01DC01F7CF8D919C9154
S113126011979D012E5F3F4F820F931F20919C0188
S113127030919D012817390769F4309729F41092A9
S11312809F0110929E0102C013821282B0939D01AD
S1131290A0939C01DF91CF91089581E090E0F894B0
S11312A00C94430CDC0101C06D9341505040E0F7B5
S11312B00895AEE0B0E0EFE5F9E00C941A0C0D8966
S11312C01E8986E08C831A8309838FEF9FE79E83B0
S11312D08D83AE01475E5F4F6F89788DCE01019695
S11312E00E947B09EF81F885E00FF11F10822E9692
S11312F0E4E00C94360CABE0B0E0E1E8F9E00C94E7
S11313000C0C6C017B018A01FC011782168283811B
S113131081FFCCC1CE0101963C01F6019381F70116
S113132093FD859193FF81917F01882309F4BAC1CC
S1131330853239F493FD859193FF81917F01853244
S113134029F4B60190E00E94720BE7CF912C212C76
S1131350312CFFE1F315D8F08B3279F038F4803278
S113136079F08332A1F4232D20611DC08D3261F008
S1131370803369F4232D216016C0832D8260382EBA
S1131380E32DE4603E2E2AC0F32DF8601DC037FC27
S11313902DC020ED280F2A3040F08E32B9F436FCEF
S11313A081C1232D2064322E19C036FE06C08AE086
S11313B0989E200D1124922E11C0EAE02E9E200D3D
S11313C01124222EF32DF0623F2E08C08C3621F416
S11313D0832D8068382E02C0883641F4F70193FDCE
S11313E0859193FF81917F018111B3CF982F9F7DC8
S11313F09554933028F40C5F1F4F9FE399830DC0DD
S1131400833631F0833771F0833509F059C021C038
S1131410F801808189830E5F1F4F88248394912C67
S1131420530113C02801F2E04F0E511CF801A080B3
S1131430B18036FE03C0692D70E002C06FEF7FEF0C
S1131440C5010E94670B4C018201F32DFF773F2EEB
S113145016C0280122E0420E511CF801A080B18080
S113146036FE03C0692D70E002C06FEF7FEFC50147
S11314700E945C0B4C01F32DF0683F2E820133FC7B
S11314801BC0822D90E088169906B0F4B60180E264
S113149090E00E94720B2A94F4CFF50137FC8591F9
S11314A037FE81915F01B60190E00E94720B21101A
S11314B02A9421E0821A91088114910471F7E8C0FA
S11314C0843611F0893641F5F80137FE07C0608192
S11314D07181828193810C5F1F4F08C0608171818B
S11314E0072E000C880B990B0E5F1F4FF32DFF7610
S11314F03F2E97FF09C090958095709561957F4F19
S11315008F4F9F4FF0683F2E2AE030E0A3010E94E6
S1131510AE0B882E861845C0853731F4232D2F7ED7
S1131520B22E2AE030E025C0932D997FB92E8F3654
S1131530C1F018F4883579F0B5C0803719F08837D0
S113154021F0B0C0E92FE061BE2EB4FE0DC0FB2D2A
S1131550F460BF2E09C034FE0AC0292F2660B22EC3
S113156006C028E030E005C020E130E002C020E100
S113157032E0F801B7FE07C06081718182819381F6
S11315800C5F1F4F06C06081718180E090E00E5FA8
S11315901F4FA3010E94AE0B882E8618FB2DFF77E8
S11315A03F2E36FE0DC0232D2E7FA22E891458F413
S11315B034FE0BC032FC09C0832D8E7EA82E05C0DC
S11315C0B82CA32C03C0B82C01C0B92CA4FE0FC0A6
S11315D0FE01E80DF11D8081803321F49A2D997E5E
S11315E0A92E09C0A2FE06C0B394B39404C08A2DE8
S11315F0867809F0B394A3FC11C0A0FE06C0B2140F
S113160088F4280C922C9B180EC0B21460F4B60116
S113161080E290E00E94720BB394F7CFB21418F4F6
S11316202B1802C0982C212CA4FE10C0B60180E314
S113163090E00E94720BA2FE17C0A1FC03C088E7D1
S113164090E002C088E590E0B6010CC08A2D86784F
S113165059F0A1FE02C08BE201C080E2A7FC8DE23A
S1131660B60190E00E94720B891438F4B60180E34D
S113167090E00E94720B9A94F7CF8A94F301E80DDC
S1131680F11D8081B60190E00E94720B8110F5CFAC
S1131690222009F442CEB60180E290E00E94720B4F
S11316A02A94F6CFF6018681978102C08FEF9FEFCF
S11316B02B96E2E10C94280CFC01059061507040DB
S11316C00110D8F7809590958E0F9F1F0895FC0107
S11316D06150704001900110D8F7809590958E0F5D
S11316E09F1F08950F931F93CF93DF93FB012381D3
S11316F021FD03C08FEF9FEF2CC022FF16C046814F
S11317005781248135814217530744F4A081B18164
S11317109D012F5F3F4F318320838C932681378136
S11317202F5F3F4F3783268314C08B01EC01FB01ED
S11317300084F185E02D0995892BE1F6D8011696F0
S11317408D919C911797019617969C938E9316975B
S1131750CE01DF91CF911F910F910895FA01AA272D
S1131760283051F1203181F1E8946F936E7F6E5FE0
S11317707F4F8F4F9F4FAF4FB1E03ED0B4E03CD08E
S1131780670F781F891F9A1FA11D680F791F8A1F71
S1131790911DA11D6A0F711D811D911DA11D20D0D8
S11317A009F468943F912AE0269F11243019305D92
S11317B03193DEF6CF010895462F4770405D419383
S11317C0B3E00FD0C9F7F6CF462F4F70405D4A33D0
S11317D018F0495D31FD4052419302D0A9F7EACF98
S11317E0B4E0A6959795879577956795BA95C9F7C7
S11317F000976105710508959B01AC010A2E0694BA
S11318005795479537952795BA95C9F7620F731F72
S1131810841F951FA01D08952F923F924F925F92AF
S11318206F927F928F929F92AF92BF92CF92DF92EC
S1131830EF92FF920F931F93CF93DF93CDB7DEB751
S1131840CA1BDB0B0FB6F894DEBF0FBECDBF0994E5
S11318502A88398848885F846E847D848C849B843C
S1131860AA84B984C884DF80EE80FD800C811B814A
S1131870AA81B981CE0FD11D0FB6F894DEBF0FBE79
S10D1880CDBFED010895F894FFCFE9
S113188A0000A0012000000000000000CC0436057E
S113189A000100000000F9041D056E302E76616C0B
S11318AA3D006E312E76616C3D006E322E76616C8F
S11318BA3D006E332E76616C3D006E342E76616C7B
S11318CA3D006E352E76616C3D00256400252B643F
S10518DA000008
S9030000FC
