S013000054656D70436F6E74726F6C2E737265639A
S11300000C94B5010C94D2010C94D2010C94D2013D
S11300100C94D2010C94D2010C94D2010C94D20110
S11300200C94D2010C94D2010C94D2010C94D20100
S11300300C94D2010C94D2010C94D2010C94D201F0
S11300400C94D2010C94C7050C94D2010C94590B56
S11300500C94EE0A0C94D2010C94D2010C94930BE0
S11300600C94280B0C94D2010C94D2010C94D20160
S113007000C0C101C30302C2C60607C705C5C40444
S1130080CC0C0DCD0FCFCE0E0ACACB0BC90908C8B4
S1130090D81819D91BDBDA1A1EDEDF1FDD1D1CDCA4
S11300A014D4D515D71716D6D21213D311D1D01014
S11300B0F03031F133F3F23236F6F737F53534F404
S11300C03CFCFD3DFF3F3EFEFA3A3BFB39F9F83874
S11300D028E8E929EB2B2AEAEE2E2FEF2DEDEC2C64
S11300E0E42425E527E7E62622E2E323E12120E0D4
S11300F0A06061A163A3A26266A6A767A56564A4C4
S11301006CACAD6DAF6F6EAEAA6A6BAB69A9A86833
S113011078B8B979BB7B7ABABE7E7FBF7DBDBC7C23
S1130120B47475B577B7B67672B2B373B17170B093
S11301305090915193535292965657975595945483
S11301409C5C5D9D5F9F9E5E5A9A9B5B99595898F3
S1130150884849894B8B8A4A4E8E8F4F8D4D4C8CE3
S11301604484854587474686824243834181804053
S113017000C1814001C0804101C0804100C1814073
S113018001C0804100C1814000C1814001C0804163
S113019001C0804100C1814000C1814001C0804153
S11301A000C1814001C0804101C0804100C1814043
S11301B001C0804100C1814000C1814001C0804133
S11301C000C1814001C0804101C0804100C1814023
S11301D000C1814001C0804101C0804100C1814013
S11301E001C0804100C1814000C1814001C0804103
S11301F001C0804100C1814000C1814001C08041F3
S113020000C1814001C0804101C0804100C18140E2
S113021000C1814001C0804101C0804100C18140D2
S113022001C0804100C1814000C1814001C08041C2
S113023000C1814001C0804101C0804100C18140B2
S113024001C0804100C1814000C1814001C08041A2
S113025001C0804100C1814000C1814001C0804192
S113026000C1814001C0804101C0804100C1814082
S11302706E31382E76616C3D006E31392E76616CAC
S11302803D0070392E7069633D006E31362E766103
S11302906C3D006E31372E76616C3D0070382E70E7
S11302A069633D006E31342E76616C3D006E3135EC
S11302B02E76616C3D0070372E7069633D006E319F
S11302C0322E76616C3D006E31332E76616C3D00CA
S11302D070362E7069633D006E31302E76616C3D50
S11302E0006E31312E76616C3D0070352E7069637D
S11302F03D006E382E76616C3D006E392E76616C51
S11303003D0070342E7069633D006E362E76616C4C
S11303103D006E372E76616C3D0070332E7069633C
S11303203D006E342E76616C3D006E352E76616C28
S11303303D0070322E7069633D006E322E76616C22
S11303403D006E332E76616C3D0070312E70696312
S11303503D006E302E76616C3D006E312E76616C00
S11303603D0070302E7069633D0011241FBECFEF35
S1130370D4E0DEBFCDBF12E0A0E0B1E0E8E6F1E2F8
S113038002C005900D92A835B107D9F723E0A8E57E
S1130390B2E001C01D92A53BB207E1F70E94060836
S11303A00C94B2100C94000081111BC06623C1F0A0
S11303B091E095BB2FEF39E648E1215030404040B1
S11303C0E1F700C0000015BA2FEF39E648E12150EB
S11303D030404040E1F700C000008F5F6813E9CF70
S11303E0FFCF089561157105B9F0DC01680F791F1D
S11303F04FEF9FEF8D918927282F30E0F901E059C5
S1130400FE4F8491982F9427F901E059FF4F4491AE
S1130410A617B70779F702C04FEF9FEF892F90E037
S1130420942B089580E190E09093590280935802B0
S11304300895CF93C82FE8E5F2E06081718184814B
S11304409581860F971F01970E945B0DAC0181E097
S1130450228133814217530709F480E061E00E944E
S1130460D401E8E5F2E082819381DC01A85ABD4F12
S11304701696CC930196608171810E945B0D9383E3
S11304808283CF910895E8E5F2E084819581228109
S113049033812817390769F0DC01A85ABD4F169635
S11304A02C910196608171810E945B0D95838483F8
S11304B001C020E0822F0895089508950895CF93F0
S11304C0DF93FC012585263029F5EB018085918594
S11304D0929582958F7089279F708927898360857B
S11304E06F7070E080E090E00E94600C20E030E0EB
S11304F040E85DE30E94EE0C20E030E048EC52E47A
S11305000E94EE0C0E94310C6D8381E08987CE013C
S11305100E94E908DF91CF910895CF92DF92EF9284
S1130520FF920F931F93CF93DF93CCEED2E004E7B7
S113053012E00F2EF8E7EF2EF3E0FF2EF02D8D855D
S1130540863051F4CE010E949007813029F4B8011D
S11305508C2F9D2F0E945F022E96045F1F4FCE1595
S1130560DF0569F7DF91CF911F910F91FF90EF9015
S1130570DF90CF90089580917B030E948F051092A5
S11305807D03089564EF71E080917B030E947E05F2
S113059081E080937D03089520916F0230E0220F63
S11305A0331FC901880F991F880F991F880F991F3E
S11305B0821B930B84519D4F0E94F6068130A1F556
S11305C020916F0230E0220F331FC901880F991F59
S11305D0880F991F880F991F821B930B84519D4F7D
S11305E026E0FC0125870E949007813071F58091F7
S11305F06F0290E09C01220F331FB901680F791F2D
S1130600660F771F660F771F6C587D4FC901880FDF
S1130610991F880F991F880F991F821B930B845170
S11306209D4F0E945F02089580916F0290E0880FB1
S1130630991FFC01EE0FFF1FEE0FFF1FEE0FFF1FB0
S1130640E81BF90BE451FD4F158608958091720261
S1130650909173020E94D80A029770F042E050E031
S11306606EE672E080917202909173020E94E30A36
S113067080916E020E9419020895909379038093E9
S11306807803FC01418152816381748181E00E947D
S1130690130A9093730280937202E0917803F091AD
S11306A07903458156816781708580E00E94130A31
S11306B0909371028093700282E792E00E94300866
S11306C080E190E00E94120222E633E04AE553E022
S11306D062E573E084E792E00E943A082AE433E09A
S11306E042E453E06AE373E080E892E00E943A084F
S11306F022E333E04AE253E062E273E08CE892E002
S11307000E943A082AE133E042E153E06AE073E0F0
S113071088E992E00E943A0822E033E04AEF52E08E
S113072062EF72E084EA92E00E943A082AEE32E034
S113073041EE52E068ED72E080EB92E00E943A08EC
S113074020ED32E047EC52E06EEB72E08CEB92E08D
S11307500E943A0826EB32E04DEA52E064EA72E085
S113076088EC92E00E943A082CE932E043E952E036
S11307706AE872E084ED92E00E943A0822E832E0EE
S113078049E752E060E772E080EE92E00E943A08A6
S11307900E9425050E94530580937B030E94530504
S11307A080937A038FE084BB089580917B030E9439
S11307B08F0568EE73E080917A030E947E050E94A3
S11307C0430280937C0320917D0330E0F901EE0F16
S11307D0FF1FEE0FFF1FEE0FFF1FE20FF31FE80FC7
S11307E0F11DEE0FFF1FE45DFD4F0190F081E02D40
S11307F0099580917B030E94A005882349F088E035
S11308000E94190264EF71E080917B030E947E05CF
S113081080917002909171020E94D80A089778F230
S113082048E050E06EE773E08091700290917102AD
S11308300E94E30A85E00E941902C1CFFC012081D5
S113084031813227232732273183208308955F9211
S11308506F927F928F929F92AF92BF92CF92DF92CC
S1130860EF92FF920F931F93CF93DF93CDB7DEB731
S11308702D970FB6F894DEBF0FBECDBFE09178037D
S1130880F0917903908180917E039813C8C068E049
S113089070E08EE793E00E94F2018C01892B09F04D
S11308A0BEC01986188682E893E00E941E0480E880
S11308B093E00E941E04A0908203B09083038A2DCB
S11308C0880F0F2EF3E05F2EF02D580EFE013196A7
S11308D097E0DF011D929A95E9F780907803909054
S11308E07903F4019081998393E09A838B83B6947E
S11308F0A794A114B10409F474C0808190E00A970C
S11309000CF06FC060908003709081030F2EF3E0B1
S1130910CF2EF02DD12C09C0D4012C918D2D90E037
S1130920820F911D0A970CF05CC0060D171D000F75
S1130930111FF801EE0FFF1FEE0FFF1FEE0FFF1F39
S1130940E01BF10BE451FD4FE084F1840C2D10E029
S1130950B7016F70772780E090E00E94600C20E080
S113096030E040E85DE30E94EE0C6A877B878C8769
S11309709D87B701729562956F7067277F706727AF
S113098080E090E00E94600C9B01AC016A857B854D
S11309908C859D850E94C50BE2E0F0E0EC0FFD1F05
S11309A0E00FF11F6083E1E0F0E0EC0FFD1FE00FCA
S11309B0F11F7083E4E0F0E0EC0FFD1FE00FF11F86
S11309C08083E3E0F0E0EC0FFD1FE00FF11F908364
S11309D0D394B4E0CB0E0D2D10E00A151B0508F4DA
S11309E09BCF052D10E0B801CE0101960E94F201C3
S11309F099878887A801BE016F5F7F4F809170023D
S1130A00909171020E94B30A42E050E0BE01685F17
S1130A107F4F80917002909171020E94B30A2D96CB
S1130A200FB6F894DEBF0FBECDBFDF91CF911F91FB
S1130A300F91FF90EF90DF90CF90BF90AF909F9079
S1130A408F907F906F905F900895CF93DF93DFB77F
S1130A50F89480919203C1E061E08C270E94D40154
S1130A601092940310929303E6E8F3E08FEF9FEF64
S1130A70DC0180839183A283B38384839583A683DB
S1130A80B78380879187A287B387C093920386E058
S1130A9082BF83B7836083BF89B7826089BFDFBFAA
S1130AA0DF91CF910895CF93CFB7F89481E020914F
S1130AB0930330919403233031050CF080E062E01D
S1130AC00E94D4018091930390919403FC01EE0F52
S1130AD0FF1FEE0FFF1FEA57FC4F4FEF5FEFBA0106
S1130AE040835183628373839C012F5F3F4F309314
S1130AF0940320939303CFBFCF9108959FB7F894A5
S1130B00AB0160E070E024E08202F0011124EA57B6
S1130B10FC4F40835183628373839FBF08959FB7C3
S1130B20F89424E08202F0011124EA57FC4F4FEFBD
S1130B305FEFBA0140835183628373839FBF08953B
S1130B402FB7F894E82F880FFF0BDF01AA0FBB1F04
S1130B50AA0FBB1FAA57BC4F8D919D910D90BC91BC
S1130B60A02D892B8A2B8B2B79F4EE0FFF1FEE0F10
S1130B70FF1FEA57FC4F8FEF9FEFDC0180839183C7
S1130B80A283B38381E001C080E02FBF08951F9248
S1130B900F920FB60F9211242F933F934F935F93AD
S1130BA06F937F938F939F93EF93FF9386E082BF1E
S1130BB020919303309194032115310549F180E08C
S1130BC090E0FC01EE0FFF1FEE0FFF1FEA57FC4FF2
S1130BD04081518162817381141615061606170629
S1130BE09CF4FC01EE0FFF1FEE0FFF1FEA57FC4FB2
S1130BF040815181628173814150510961097109B8
S1130C004083518362837383019682179307C9F6E5
S1130C10FF91EF919F918F917F916F915F914F9190
S1130C203F912F910F900FBE0F901F901895CF9367
S1130C30C82F81E0C43008F080E061E00E94D40154
S1130C4026E4C29FC001112480509F4FCF91089584
S1130C501F93CF93DF93EC01162F6C817D818A81E2
S1130C609B81860F971F01970E945B0DAC0181E069
S1130C70288139814217530709F480E062E00E9419
S1130C80D40188819981FE01E80FF91F168301962A
S1130C908F73992799838883DF91CF911F9108954A
S1130CA0FC0180819181428153818417950718F05A
S1130CB0841B950B089524813581820F931F841B17
S1130CC0950B0895EF92FF920F931F93CF93DF93A9
S1130CD07C01EB018A010E945006F70124813581D1
S1130CE0281B390B81E00217130708F080E063E04A
S1130CF00E94D4010115110549F00C0F1D1F6991C3
S1130D00C7010E9428060C171D07C9F7DF91CF9170
S1130D101F910F91FF90EF900895CF93DF93EC0113
S1130D200E94500621E0892B09F420E064E0822F20
S1130D300E94D4012A813B81FE01E20FF31F8681C8
S1130D402F5F3F4F2F7333273B832A83DF91CF914C
S1130D500895EF92FF920F931F93CF93DF937C013B
S1130D60EB01142F0E945006082F81E0011708F4AC
S1130D7080E065E00E94D401101708F4012F10E010
S1130D800115110549F00C0F1D1FC7010E948D06A6
S1130D9089930C171D07C9F7DF91CF911F910F910C
S1130DA0FF90EF900895FC01138212821182108249
S1130DB00895FC0181E040815181228133814217F1
S1130DC0530709F080E00895FC0140E080E05CE80E
S1130DD0219198E0322F38278695269530FD852776
S1130DE09150C1F74F5F461798F30895FF920F9300
S1130DF01F93CF93DF93EC01188219821A821B820E
S1130E001C821D821E821F820E94F908F82E81E036
S1130E10F81221C083E30E94630917E00E94360997
S1130E202881282B39814A815B816C817D818E8167
S1130E309F8108E00E94910D288339834A835B8354
S1130E406C837D838E839F83115041F70E94360902
S1130E509881892B88838F2DDF91CF911F910F91DA
S1130E60FF900895CF93DF938EEB0E9463090E9455
S1130E703609C0EAD3E088830E94360989830E9438
S1130E8036098A830E9436098B830E9436098C8333
S1130E900E9436098D830E9436098E830E9436098A
S1130EA08F830E9436098887DF91CF9108959F929E
S1130EB0AF92BF92CF92DF92EF92FF920F931F9364
S1130EC0CF93DF93922EA32EB42EC52ED62EE72ECB
S1130ED0F82E192F85E50E946309C0E0D0E0292D82
S1130EE03A2D4B2D5C2D6D2D7E2D8F2D912F0C2F9A
S1130EF00E94910D08E30E94AC0D822F0E946309A9
S1130F002896C034D10559F7DF91CF911F910F91E5
S1130F10FF90EF90DF90CF90BF90AF909F90089597
S1130F200F931F93CF938C010E94F908C82F81302F
S1130F3009F061C0D8012C9111963C911197129639
S1130F404C91129713965C91139714966C91149785
S1130F5015967C91159716968C91169717969C91D9
S1130F600E94570784E40E946309E7EBFBE0319792
S1130F70F1F700C000000E94F908C82F8130D9F5AC
S1130F80D8012C9111963C91119712964C9112977D
S1130F9013965C91139714966C91149715967C9103
S1130FA0159716968C91169717969C910E94570741
S1130FB00E94320769E080EA93E00E94E40681110E
S1130FC019C0E0EAF3E0818190E0982F882720811E
S1130FD0822BD80119969C938E93189782811A9626
S1130FE08C931A9783811B968C931B9784811C96F0
S1130FF08C9301C0C3E08C2FCF911F910F91089562
S1131000A89581B5886181BD11BC0895F894E5E97E
S1131010F3E080E09BE4A0E0B0E081839283A383CB
S1131020B48381E0808380E895E2A0E0B0E085832A
S11310309683A783B0870E9400082FEF83ED90E387
S1131040215080409040E1F700C0000085E993E022
S11310500E943D0378940E94D50380E090E00895B7
S1131060FC018081918190939F0380939E030E9451
S1131070A00A0895FC0173836283578346833387F0
S113108022870895CF93DF9300D000D0CDB7DEB789
S11310908FEF9FEFAFEFB0E089839A83AB83BC837C
S11310A043E050E0BE016F5F7F4F80919E039091BB
S11310B09F030E94B30A0F900F900F900F90DF913F
S11310C0CF910895EF92FF921F93CF93DF9300D0B7
S11310D000D0CDB7DEB7FC019181492F092E000C59
S11310E0550B8081BA01681B710987FD73959B01BB
S11310F0772324F422273327261B370B223031058C
S11311000CF45DC07F01908399239CF05F939F93BF
S113111080E592E09F938F93CE0101969F938F93E6
S11311200E94C80D0F900F900F900F900F900F908A
S113113012C05F939F9383E592E09F938F93CE01B8
S113114001969F938F930E94C80D0F900F900F905C
S11311500F900F900F90D7011296ED91FC91139779
S1131160E491EC83EE23C1F010E041E050E0BE01D5
S11311706C5F7F4F80919E0390919F030E94B30AFE
S11311801F5FD7011296ED91FC911397E10FF11DAA
S1131190E491EC83E111E9CFBE016F5F7F4FFB0166
S11311A001900020E9F73197AF01461B570B80915E
S11311B09E0390919F030E94B30A0E9442080F90DD
S11311C00F900F900F90DF91CF911F91FF90EF90B0
S11311D00895CF93DF93EC010E946208CE01049638
S11311E00E946208CE0108960E946208DF91CF91A6
S11311F008959FB7F894D09AD898EFEEFAE0319713
S1131200F1F700C00000D89AEBE2F1E03197F1F772
S113121000C00000D098C8990CC0EFEEFAE03197F6
S1131220F1F700C0000089B3882329F09FBF81E053
S1131230089580E001C082E09FBF0895D09AD898B5
S113124080E18A95F1F7D89AD098E0E4EA95F1F72D
S1131250C89B02C080E801C080E0D09AD89AEBE233
S1131260F1E03197F1F700C0000008951F93CF9388
S1131270DF931FB7F894D09AD8E080E0C82FC695C2
S11312800E941E098C2BD150C9F71FBFDF91CF914B
S11312901F910895D09AD89880E58A95F1F780EF48
S11312A08A95F1F7D89A8AE08A95F1F700C00895F3
S11312B0D09AD89880E58A95F1F7D89A8AEF8A95DA
S11312C0F1F700C00895DF92EF92FF920F931F93FE
S11312D0CF93DF93DFB6F89408E010E0C1E0D0E0EC
S11312E0E82EF12CC7018C239D23892B19F00E9431
S11312F0580902C00E944A09CC0FDD1F0150110990
S113130089F7DFBEDF91CF911F910F91FF90EF908E
S1131310DF900895DC01CB01880F991FAA1FBB1F22
S1131320880F991FAA1FBB1F9C01AD01220F331FF9
S1131330441F551F220F331F441F551F60E074E2E2
S113134084EF90E00E946F0DDA01C9010197A109B1
S1131350B10989B9892F9A2FAB2FBB27A7FDBA955D
S113136080BD1BB888ED8AB986E880BD0895DC018C
S1131370CB01880F991FAA1FBB1F880F991FAA1F93
S1131380BB1F9C01AD01220F331F441F551F60E09A
S113139074E284EF90E00E946F0DDA01C9010197B5
S11313A0A109B10980B9892F9A2FAB2FBB27A7FDBB
S11313B0BA958CBF82E082B988ED81B986E88CBF8A
S11313C00895CF93CFB7F894809126029091270285
S11313D00E94D90681110BC0159B07C0809126027B
S11313E0909127020E948D0683B9CFBF01C0CFBF61
S11313F0CF910895CF93CFB7F89480911C02909128
S11314001D020E94D90681110BC05D9B07C080910B
S11314101C0290911D020E948D068CB9CFBF01C0A1
S1131420CFBFCF9108959F92AF92BF92CF92DF9298
S1131430EF92FF920F931F93CF93DF93982E6A013D
S11314407B0181E0891508F480E061E00E94D40109
S1131450C92DD0E08E01000F111FCE01880F991FF6
S1131460880F991F880F991F080F191F085E1D4FB9
S1131470F801908162E081E089270E94D4019920DB
S113148021F0F1E09F16F1F039C080E00E941706C8
S11314909E01220F331F220F331F220F331F5E01C1
S11314A0AA0CBB1C2A0D3B1DA901485E5D4F5A01C5
S11314B0FA019383828381E00E941706F5019583E4
S11314C084831CC082E00E9417069E01220F331FF2
S11314D0220F331F220F331F5E01AA0CBB1C2A0DDF
S11314E03B1DA901485E5D4F5A01FA019383828333
S11314F083E00E941706F50195838483CE01880F4B
S1131500991FCC0FDD1FCC0FDD1FCC0FDD1FC80FC3
S1131510D91FC85EDD4F9982EE81FF81C701B601F4
S1131520099581E08883C801DF91CF911F910F91C4
S1131530FF90EF90DF90CF90BF90AF909F90089571
S11315401F93CF93DF93EC011FB7F8948C819D8197
S11315500E94D3068A819B810E94D3061FBFDF911C
S1131560CF911F910895CF92DF92EF92FF921F9334
S1131570CF93DF93EC016B017A0181E0452B09F4F1
S113158080E063E00E94D4011FB7F894A701B6017C
S11315908C819D810E9462061FBFE885F9850995AB
S11315A0DF91CF911F91FF90EF90DF90CF9008953E
S11315B0CF93CFB7F894FC01828193810E945006A7
S11315C0CFBFCF910895CF93CFB7F894FC01828118
S11315D093810E94A906CFBFCF9108951F920F92C5
S11315E00FB60F9211242F933F934F935F936F93F2
S11315F07F938F939F93AF93BF93EF93FF9382B1A6
S113160022B192B1382F3071822F8870832B94705D
S1131610892B31F0179B0BC083B11799FDCF07C0FD
S113162063B180912402909125020E942806FF91C3
S1131630EF91BF91AF919F918F917F916F915F9146
S11316404F913F912F910F900FBE0F901F901895BF
S11316501F920F920FB60F9211242F933F934F9323
S11316605F936F937F938F939F93AF93BF93EF9306
S1131670FF9380912602909127020E94D90681113E
S113168007C080912602909127020E948D0683B99B
S1131690FF91EF91BF91AF919F918F917F916F9146
S11316A05F914F913F912F910F900FBE0F901F901C
S11316B018951F920F920FB60F9211242F933F93F8
S11316C04F935F936F937F938F939F93AF93BF9346
S11316D0EF93FF938BB12BB19BB1382F3071822FD5
S11316E08870832B9470892B31F05F9B0BC08CB175
S11316F05F99FDCF07C06CB180911A0290911B02D3
S11317000E942806FF91EF91BF91AF919F918F9115
S11317107F916F915F914F913F912F910F900FBEE9
S11317200F901F9018951F920F920FB60F921124CD
S11317302F933F934F935F936F937F938F939F93D5
S1131740AF93BF93EF93FF9380911C0290911D027E
S11317500E94D906811107C080911C0290911D023C
S11317600E948D068CB9FF91EF91BF91AF919F912B
S11317708F917F916F915F914F913F912F910F9036
S11317800FBE0F901F9018955058BB27AA270E9490
S1131790DC0B0C94B40C0E94A60C38F00E94AD0C27
S11317A020F039F49F3F19F426F40C94A30C0EF4A2
S11317B0E095E7FB0C949D0CE92F0E94C50C58F3AF
S11317C0BA17620773078407950720F079F4A6F522
S11317D00C94E70C0EF4E0950B2EBA2FA02D0B0100
S11317E0B90190010C01CA01A0011124FF27591B62
S11317F099F0593F50F4503E68F11A16F040A22F68
S1131800232F342F4427585FF3CF469537952795D8
S1131810A795F0405395C9F77EF41F16BA0B620BD7
S1131820730B840BBAF09150A1F0FF0FBB1F661F1E
S1131830771F881FC2F70EC0BA0F621F731F841F61
S113184048F4879577956795B795F7959E3F08F087
S1131850B0CF9395880F08F09927EE0F9795879549
S113186008950E94CD0C88F09F5798F0B92F9927BE
S1131870B751B0F0E1F0660F771F881F991F1AF077
S1131880BA95C9F714C0B13091F00E94E70CB1E0E9
S113189008950C94E70C672F782F8827B85F39F0E8
S11318A0B93FCCF3869577956795B395D9F73EF410
S11318B090958095709561957F4F8F4F9F4F0895B8
S11318C0E89409C097FB3EF49095809570956195D6
S11318D07F4F8F4F9F4F9923A9F0F92F96E9BB278C
S11318E09395F695879577956795B795F111F8CF08
S11318F0FAF4BB0F11F460FF1BC06F5F7F4F8F4F73
S11319009F4F16C0882311F096E911C0772321F068
S11319109EE8872F762F05C0662371F096E8862F00
S113192070E060E02AF09A95660F771F881FDAF757
S1131930880F9695879597F9089597F99F6780E89A
S113194070E060E008959FEF80EC089500240A940D
S11319501616170618060906089500240A94121686
S11319601306140605060895092E0394000C11F4B9
S1131970882352F0BB0F40F4BF2B11F460FF04C066
S11319806F5F7F4F8F4F9F4F089557FD9058440FBF
S1131990551F59F05F3F71F04795880F97FB991FCA
S11319A061F09F3F79F08795089512161306140687
S11319B0551FF2CF4695F1DF08C016161706180614
S11319C0991FF1CF86957105610508940895E894EF
S11319D0BB2766277727CB0197F908950E94010D4D
S11319E00C94B40C0E94A60C38F00E94AD0C20F0AC
S11319F0952311F00C949D0C0C94A30C11240C94BD
S1131A00E80C0E94C50C70F3959FC1F3950F50E04C
S1131A10551F629FF001729FBB27F00DB11D639F9C
S1131A20AA27F00DB11DAA1F649F6627B00DA11D42
S1131A30661F829F2227B00DA11D621F739FB00DE8
S1131A40A11D621F839FA00D611D221F749F332758
S1131A50A00D611D231F849F600D211D822F762FF1
S1131A606A2F11249F5750409AF0F1F088234AF0CE
S1131A70EE0FFF1FBB1F661F771F881F915050403A
S1131A80A9F79E3F510580F00C949D0C0C94E80C32
S1131A905F3FE4F3983ED4F3869577956795B795C1
S1131AA0F795E7959F5FC1F7FE2B880F911D9695DB
S1131AB0879597F90895AA1BBB1B51E107C0AA1F7C
S1131AC0BB1FA617B70710F0A61BB70B881F991FDB
S1131AD05A95A9F780959095BC01CD010895A1E28E
S1131AE01A2EAA1BBB1BFD010DC0AA1FBB1FEE1F94
S1131AF0FF1FA217B307E407F50720F0A21BB30BDF
S1131B00E40BF50B661F771F881F991F1A9469F75A
S1131B1060957095809590959B01AC01BD01CF01B6
S1131B2008950F93083090F0982F872F762F652F04
S1131B30542F432F322F22270850F4CF220F331F64
S1131B40441F551F661F771F881F991F0A95B2F7F8
S1131B500F91089597FB10F8169400080F9308301E
S1131B6098F00850232F342F452F562F672F782FA6
S1131B70892F902DF4CF0594979587957795679540
S1131B8057954795379527950A95AAF70F91089584
S1131B90AEE0B0E0EEECFDE00C9489100D891E89F6
S1131BA086E08C831A8309838FEF9FE79E838D835E
S1131BB0AE01475E5F4F6F89788DCE0101960E941A
S1131BC0EA0DEF81F885E00FF11F10822E96E4E014
S1131BD00C94A510ABE0B0E0E0EFFDE00C947B10BA
S1131BE06C017B018A01FC0117821682838181FFCB
S1131BF0CCC1CE0101963C01F6019381F70193FD1E
S1131C00859193FF81917F01882309F4BAC18532BC
S1131C1039F493FD859193FF81917F01853229F4F5
S1131C20B60190E00E94E10FE7CF912C212C312CDA
S1131C30FFE1F315D8F08B3279F038F4803279F083
S1131C408332A1F4232D20611DC08D3261F08033D5
S1131C5069F4232D216016C0832D8260382EE32D74
S1131C60E4603E2E2AC0F32DF8601DC037FC2DC061
S1131C7020ED280F2A3040F08E32B9F436FC81C1B1
S1131C80232D2064322E19C036FE06C08AE0989EA9
S1131C90200D1124922E11C0EAE02E9E200D112455
S1131CA0222EF32DF0623F2E08C08C3621F4832DB2
S1131CB08068382E02C0883641F4F70193FD85917F
S1131CC093FF81917F018111B3CF982F9F7D95540C
S1131CD0933028F40C5F1F4F9FE399830DC0833624
S1131CE031F0833771F0833509F059C021C0F80110
S1131CF0808189830E5F1F4F88248394912C530124
S1131D0013C02801F2E04F0E511CF801A080B180ED
S1131D1036FE03C0692D70E002C06FEF7FEFC5018E
S1131D200E94D60F4C018201F32DFF773F2E16C07F
S1131D30280122E0420E511CF801A080B18036FE39
S1131D4003C0692D70E002C06FEF7FEFC5010E94F0
S1131D50CB0F4C01F32DF0683F2E820133FC1BC0E6
S1131D60822D90E088169906B0F4B60180E290E0E6
S1131D700E94E10F2A94F4CFF50137FC859137FED8
S1131D8081915F01B60190E00E94E10F21102A9435
S1131D9021E0821A91088114910471F7E8C0843615
S1131DA011F0893641F5F80137FE07C06081718171
S1131DB0828193810C5F1F4F08C060817181072E5F
S1131DC0000C880B990B0E5F1F4FF32DFF763F2EEF
S1131DD097FF09C090958095709561957F4F8F4FBF
S1131DE09F4FF0683F2E2AE030E0A3010E941D10AF
S1131DF0882E861845C0853731F4232D2F7EB22EC8
S1131E002AE030E025C0932D997FB92E8F36C1F09A
S1131E1018F4883579F0B5C0803719F0883721F087
S1131E20B0C0E92FE061BE2EB4FE0DC0FB2DF460FE
S1131E30BF2E09C034FE0AC0292F2660B22E06C068
S1131E4028E030E005C020E130E002C020E132E0CB
S1131E50F801B7FE07C060817181828193810C5FB4
S1131E601F4F06C06081718180E090E00E5F1F4FBC
S1131E70A3010E941D10882E8618FB2DFF773F2E8C
S1131E8036FE0DC0232D2E7FA22E891458F434FE65
S1131E900BC032FC09C0832D8E7EA82E05C0B82C41
S1131EA0A32C03C0B82C01C0B92CA4FE0FC0FE01A2
S1131EB0E80DF11D8081803321F49A2D997EA92E9D
S1131EC009C0A2FE06C0B394B39404C08A2D8678D8
S1131ED009F0B394A3FC11C0A0FE06C0B21488F4A8
S1131EE0280C922C9B180EC0B21460F4B60180E248
S1131EF090E00E94E10FB394F7CFB21418F42B18BA
S1131F0002C0982C212CA4FE10C0B60180E390E0FE
S1131F100E94E10FA2FE17C0A1FC03C088E790E075
S1131F2002C088E590E0B6010CC08A2D867859F08D
S1131F30A1FE02C08BE201C080E2A7FC8DE2B601E3
S1131F4090E00E94E10F891438F4B60180E390E038
S1131F500E94E10F9A94F7CF8A94F301E80DF11DE2
S1131F608081B60190E00E94E10F8110F5CF22201C
S1131F7009F442CEB60180E290E00E94E10F2A9477
S1131F80F6CFF6018681978102C08FEF9FEF2B96E3
S1131F90E2E10C949710FC0105906150704001102F
S1131FA0D8F7809590958E0F9F1F0895FC0161507E
S1131FB0704001900110D8F7809590958E0F9F1F67
S1131FC008950F931F93CF93DF93FB01238121FD8A
S1131FD003C08FEF9FEF2CC022FF16C046815781AC
S1131FE0248135814217530744F4A081B1819D01B6
S1131FF02F5F3F4F318320838C93268137812F5F5E
S11320003F4F3783268314C08B01EC01FB0100840E
S1132010F185E02D0995892BE1F6D80116968D916D
S11320209C911797019617969C938E931697CE01C1
S1132030DF91CF911F910F910895FA01AA272830BB
S113204051F1203181F1E8946F936E7F6E5F7F4F81
S11320508F4F9F4FAF4FB1E03ED0B4E03CD0670FFD
S1132060781F891F9A1FA11D680F791F8A1F911D50
S1132070A11D6A0F711D811D911DA11D20D009F4A0
S113208068943F912AE0269F11243019305D3193E2
S1132090DEF6CF010895462F4770405D4193B3E0CB
S11320A00FD0C9F7F6CF462F4F70405D4A3318F072
S11320B0495D31FD4052419302D0A9F7EACFB4E023
S11320C0A6959795879577956795BA95C9F70097DB
S11320D06105710508959B01AC010A2E069457957C
S11320E0479537952795BA95C9F7620F731F841FD3
S11320F0951FA01D08952F923F924F925F926F9269
S11321007F928F929F92AF92BF92CF92DF92EF9283
S1132110FF920F931F93CF93DF93CDB7DEB7CA1B04
S1132120DB0B0FB6F894DEBF0FBECDBF09942A882F
S1132130398848885F846E847D848C849B84AA84D7
S1132140B984C884DF80EE80FD800C811B81AA8164
S1132150B981CE0FD11D0FB6F894DEBF0FBECDBF2F
S10B2160ED010895F894FFCF8E
S11321680000000040000000000000000000000023
S11321780000000000000000000000000000000053
S11321880000000000000000000000000000000043
S11321980000000000000000000000000000000033
S11321A800000000000000000000400000000000E3
S11321B80000000000000000000000000000000013
S11321C80000000000000000000000000000000003
S11321D800000000000000000000000000000000F3
S11321E800000000000000000000000000000000E3
S11321F84000000000000000000000000000000093
S113220800000000000000000000000000000000C2
S113221800000000000000000000000000000000B2
S113222800000000000000000000000000000000A2
S11322380000000000004000000000000000000052
S11322480000000000000000000000000000000082
S11322580000000000000000000000000000000072
S11322680000000000000000000000000000000062
S113227800000000000000000000000000008A09BF
S1132288FA09000100000000B709E1092603CC029D
S1132298C2025C025D025E025E025E025E02260308
S11322A85E02BB025E025E0227045E025E028D02CB
S10B22B8256400252B640000DD
S9030000FC
