S013000054656D70436F6E74726F6C2E737265639A
S11300000C9438000C9455000C9455000C94550035
S11300100C9455000C9455000C9455000C94550008
S11300200C9455000C9455000C9455000C945500F8
S11300300C9455000C9455000C9455000C945500E8
S11300400C9455000C9455000C9455000C948407A2
S11300500C9419070C9455000C9455000C94BE078D
S11300600C9453070C9455000C9455000C945500B3
S113007011241FBECFEFD4E0DEBFCDBF13E0A0E05C
S1130080B1E0E6E7FBE102C005900D92A435B107AB
S1130090D9F723E0A4E5B3E001C01D92AD38B2075F
S11300A0E1F70E9462040C94B90D0C9400008111D4
S11300B01BC06623C1F091E095BB2FEF39E648E100
S11300C0215030404040E1F700C0000015BA2FEF46
S11300D039E648E1215030404040E1F700C00000DB
S11300E08F5F6813E9CFFFCF0895CF93DF93C4E503
S11300F0D3E09983888361E070E00E9486099F833E
S11301008E83DF91CF910895CF93C82FE4E5F3E078
S11301106081718184819581860F971F01970E9468
S11301201909AC0181E0228133814217530709F494
S113013080E061E00E945700E4E5F3E0828193816E
S1130140A681B781A80FB91FCC93019660817181F4
S11301500E94190993838283CF910895E4E5F3E023
S113016084819581228133812817390769F0A6811A
S1130170B781A80FB91F2C910196608171810E94EB
S113018019099583848301C020E0822F089581E0BA
S1130190809367030895109267030895089508955E
S11301A00895EF92FF920F931F93CF93DF93E09103
S11301B06403F09165038181882309F470C0C0E071
S11301C0D1E0EC2EF12CC701880F991F8C01000F90
S11301D0111F000F111F000F111F081B190BE091B5
S11301E06203F0916303E00FF11F8585863009F007
S11301F04DC0CF010E94EC03813009F047C0E0916B
S11302006203F0916303E00FF11F85858630A9F541
S1130210C701880F991FE80EF91EEE0CFF1CEE0CA7
S1130220FF1C80915E0390915F03E80EF91E8085A8
S11302309185929582958F7089279F708927D70120
S113024011968C9360856F7070E080E090E00E945E
S11302501E0820E030E040E85DE30E94840820E0CE
S113026030E048EC52E40E9484080E94EF07F70152
S11302706583D187C7010E942605FFEF21EE84E044
S1130280F15020408040E1F700C00000CF5FE091D2
S11302906403F09165038181C81708F492CFDF915C
S11302A0CF911F910F91FF90EF90089520915D03DE
S11302B030E0220F331FC901880F991F880F991F3F
S11302C0880F991F821B930B209162033091630363
S11302D0820F931FFC0125852630E1F00E945A030A
S11302E08130C1F480915D0390E0880F991FFC0177
S11302F0EE0FFF1FEE0FFF1FEE0FFF1FE81BF90BA2
S11303008091620390916303E80FF91F86E085876B
S11303100E94D100089580916003909161030E942E
S11303200307029770F042E050E06CE573E08091BF
S11303306003909161030E940E0780915C030E9408
S113034084000895CF93DF93EC0190936503809329
S113035064034A815B816C817D8181E00E94500647
S11303609093610380936003E0916403F0916503CB
S1130370468157816085718580E00E94500680E641
S113038093E00E948E0480E190E00E9475008981D0
S11303906EE070E090E00E9486099093630380937E
S11303A06203E0916403F091650381816CE070E085
S11303B090E00E94860990935F0380935E0322E39A
S11303C032E04AE352E062E472E00E9498048091D1
S11303D05E0390915F032AE432E042E552E06AE56D
S11303E072E00C960E94980480915E0390915F03E2
S11303F022E632E04AE652E062E772E048960E9462
S1130400980480915E0390915F032AE732E042E80A
S113041052E06AE872E084960E94980480915E0338
S113042090915F0322E932E04AE952E062EA72E025
S1130430C0960E94980480915E0390915F032AEA1B
S113044032E042EB52E06BEB72E0CC960E949804EF
S113045080915E0390915F0324EC32E04CEC52E017
S113046065ED72E0885B9F4F0E94980480915E0363
S113047090915F032EED32E046EE52E06FEE72E0B3
S11304808C5A9F4F0E94980480915E0390915F0361
S113049028EF32E040E053E069E073E0805A9F4F78
S11304A00E94980480915E0390915F0322E133E0FF
S11304B04AE153E063E273E084599F4F0E94980439
S11304C081E084BBDF91CF9108950E94AE008093B8
S11304D0660390916703E82FF0E088E0989FE00DB1
S11304E0F11D1124EE0FFF1FE45DFC4F0190F0811C
S11304F0E02D0995EACFCF93C82F81E0C43008F0EE
S113050080E061E00E94570026E4C29FC0011124EC
S11305108A5F9E4FCF9108951F93CF93DF93EC0191
S1130520162F6C817D818A819B81860F971F01978D
S11305300E941909AC0181E02881398142175307CF
S113054009F480E062E00E94570088819981FE01ED
S1130550E80FF91F168301968F739927998388836F
S1130560DF91CF911F910895FC0180819181428197
S113057053818417950718F0841B950B08952481E3
S11305803581820F931F841B950B0895EF92FF9280
S11305900F931F93CF93DF937C01EB018A010E9499
S11305A0B402F70124813581281B390B81E002173D
S11305B0130708F080E063E00E945700011511055D
S11305C049F00C0F1D1F6991C7010E948C020C1782
S11305D01D07C9F7DF91CF911F910F91FF90EF9005
S11305E00895CF93DF93EC010E94B40221E0892B9C
S11305F009F420E064E0822F0E9457002A813B81A5
S1130600FE01E20FF31F86812F5F3F4F2F733327C5
S11306103B832A83DF91CF910895EF92FF920F934A
S11306201F93CF93DF937C01EB01142F0E94B4023C
S1130630082F81E0011708F480E065E00E9457006C
S1130640101708F4012F10E00115110549F00C0FE3
S11306501D1FC7010E94F10289930C171D07C9F7DA
S1130660DF91CF911F910F91FF90EF900895FC01BE
S113067013821282118210820895FC0181E040816C
S11306805181228133814217530709F080E0089594
S1130690FC0140E080E05CE8219198E0322F3827AB
S11306A08695269530FD85279150C1F74F5F4617F3
S11306B098F30895FF920F931F93CF93DF93EC0168
S11306C00E943605F82E81E0F81221C083E30E94CF
S11306D0A00517E00E9473052881282B39814A81DF
S11306E05B816C817D818E819F8108E00E944F092E
S11306F0288339834A835B836C837D838E839F83C2
S1130700115041F70E9473059881892B88838F2D9E
S1130710DF91CF911F910F91FF900895CF93DF93B5
S11307208EEB0E94A0050E947305C4E7D3E0888382
S11307300E94730589830E9473058A830E9473054E
S11307408B830E9473058C830E9473058D830E94A2
S113075073058E830E9473058F830E9473058887B7
S1130760DF91CF9108959F92AF92BF92CF92DF9283
S1130770EF92FF920F931F93CF93DF93922EA32EAA
S1130780B42EC52ED62EE72EF82E192F85E50E94FD
S1130790A005C0E0D0E0292D3A2D4B2D5C2D6D2D08
S11307A07E2D8F2D912F0C2F0E944F0908E30E945C
S11307B06A09822F0E94A0052896C034D10559F7F2
S11307C0DF91CF911F910F91FF90EF90DF90CF9029
S11307D0BF90AF909F9008950F931F93CF938C0178
S11307E00E943605C82F813009F061C0D8012C91D0
S11307F011963C91119712964C91129713965C9115
S1130800139714966C91149715967C9115971696D8
S11308108C91169717969C910E94B30384E40E94CE
S1130820A005E7EBFBE03197F1F700C000000E9460
S11308303605C82F8130D9F5D8012C9111963C91F9
S1130840119712964C91129713965C9113971496E4
S11308506C91149715967C91159716968C91169712
S113086017969C910E94B3030E948E0369E084E76B
S113087093E00E944803811119C0E4E7F3E0818109
S113088090E0982F88272081822BD80119969C9379
S11308908E93189782811A968C931A9783811B964C
S11308A08C931B9784811C968C9301C0C3E08C2F7E
S11308B0CF911F910F910895A89581B5886181BD4D
S11308C011BC0895F894E8E6F3E080E092ECA1E02E
S11308D0B0E082839383A483B58381E0808380E83E
S11308E095E2A0E0B0E086839783A087B1878AE091
S11308F081830E945C042FEF83ED90E321508040BC
S11309009040E1F700C0000088E693E00E94A20155
S113091078940E94650280E090E00895FC01808153
S1130920918190937303809372030E94D906089572
S1130930FC01738362835783468333872287089538
S1130940CF93DF9300D000D0CDB7DEB78FEF9FEF0A
S1130950AFEFB0E089839A83AB83BC8343E050E07C
S1130960BE016F5F7F4F80917203909173030E9469
S1130970EC060F900F900F900F90DF91CF91089598
S11309800F931F93CF93DF9300D01F92CDB7DEB7A1
S11309908C01FC0181818823BCF0282F082E000CD7
S11309A0330B3F938F938CE493E09F938F93CE010B
S11309B001969F938F930E94CF0A0F900F900F90F0
S11309C00F900F900F9016C0282F082E000C330B99
S11309D03F938F938FE493E09F938F93CE0101967F
S11309E09F938F930E94CF0A0F900F900F900F90B8
S11309F00F900F90F80162817381FB010190002038
S1130A00E9F73197AF01461B570B80917203909120
S1130A1073030E94EC06BE016F5F7F4FFB010190E0
S1130A200020E9F73197AF01461B570B8091720301
S1130A30909173030E94EC060E94A0040F900F9003
S1130A400F90DF91CF911F910F910895CF93DF9372
S1130A50EC010E94C004CE0104960E94C004CE01A1
S1130A6008960E94C004DF91CF9108959FB7F8942F
S1130A70D09AD898EFEEFAE03197F1F700C0000071
S1130A80D89AEBE2F1E03197F1F700C00000D0987A
S1130A90C8990CC0EFEEFAE03197F1F700C00000FE
S1130AA089B3882329F09FBF81E0089580E001C0C5
S1130AB082E09FBF0895D09AD89880E18A95F1F793
S1130AC0D89AD098E0E4EA95F1F7C89B02C080E890
S1130AD001C080E0D09AD89AEBE2F1E03197F1F7C7
S1130AE000C0000008951F93CF93DF931FB7F894BD
S1130AF0D09AD8E080E0C82FC6950E945B058C2B65
S1130B00D150C9F71FBFDF91CF911F910895D09A9B
S1130B10D89880E58A95F1F780EF8A95F1F7D89A0D
S1130B208AE08A95F1F700C00895D09AD89880E5B4
S1130B308A95F1F7D89A8AEF8A95F1F700C008955B
S1130B40DF92EF92FF920F931F93CF93DF93DFB661
S1130B50F89408E010E0C1E0D0E0E82EF12CC701E1
S1130B608C239D23892B19F00E94950502C00E94B5
S1130B708705CC0FDD1F0150110989F7DFBEDF9116
S1130B80CF911F910F91FF90EF90DF900895DC01BA
S1130B90CB01880F991FAA1FBB1F880F991FAA1F7B
S1130BA0BB1F9C01AD01220F331F441F551F220F91
S1130BB0331F441F551F60E074E284EF90E00E94ED
S1130BC02D09DA01C9010197A109B10989B9892F50
S1130BD09A2FAB2FBB27A7FDBA9580BD1BB888ED14
S1130BE08AB986E080BD0895DC01CB01880F991F86
S1130BF0AA1FBB1F880F991FAA1FBB1F9C01AD0111
S1130C00220F331F441F551F60E074E284EF90E00D
S1130C100E942D09DA01C9010197A109B10980B91E
S1130C20892F9A2FAB2FBB27A7FDBA958CBF82E0E3
S1130C3082B988ED81B986E88CBF0895CF93CFB788
S1130C40F89480912C0290912D020E943D03811111
S1130C500BC0159B07C080912C0290912D020E941D
S1130C60F10283B9CFBF01C0CFBFCF910895CF9315
S1130C70CFB7F89480912202909123020E943D0301
S1130C8081110BC05D9B07C08091220290912302C9
S1130C900E94F1028CB9CFBF01C0CFBFCF9108959C
S1130CA09F92AF92BF92CF92DF92EF92FF920F93F7
S1130CB01F93CF93DF93982E6A017B0141E048177D
S1130CC010F40E94C30AC82FD0E08E01000F111F38
S1130CD0CE01880F991F880F991F880F991F080F3D
S1130CE0191F025E1D4FF801808181110E94C30A01
S1130CF0992021F0F1E09F16F1F039C080E00E94C4
S1130D007B029E01220F331F220F331F220F331F3A
S1130D105E01AA0CBB1C2A0D3B1DA901425E5D4F5E
S1130D205A01FA019383828381E00E947B02F501D8
S1130D30958384831CC082E00E947B029E01220F63
S1130D40331F220F331F220F331F5E01AA0CBB1C5B
S1130D502A0D3B1DA901425E5D4F5A01FA0193839E
S1130D60828383E00E947B02F50195838483CE0114
S1130D70880F991FCC0FDD1FCC0FDD1FCC0FDD1F9B
S1130D80C80FD91FC25EDD4F9982EE81FF81C70172
S1130D90B601099581E08883C801DF91CF911F9145
S1130DA00F91FF90EF90DF90CF90BF90AF909F9006
S1130DB008951F93CF93DF93EC011FB7F8948C81B0
S1130DC09D810E9437038A819B810E9437031FBF44
S1130DD0DF91CF911F9108951F93CF93DF93EC017F
S1130DE04115510511F40E94C30A1FB7F8948C8170
S1130DF09D810E94C6021FBFE885F9850995DF9190
S1130E00CF911F910895CF93CFB7F894FC018281BD
S1130E1093810E94B402CFBFCF910895CF93CFB7EF
S1130E20F894FC01828193810E940D03CFBFCF917E
S1130E3008951F920F920FB60F9211242F933F9390
S1130E404F935F936F937F938F939F93AF93BF93CE
S1130E50EF93FF9382B122B192B1382F3071822F78
S1130E608870832B9470892B31F0179B0BC083B14E
S1130E701799FDCF07C063B180912A0290912B028C
S1130E800E948C02FF91EF91BF91AF919F918F913E
S1130E907F916F915F914F913F912F910F900FBE72
S1130EA00F901F9018951F920F920FB60F92112456
S1130EB02F933F934F935F936F937F938F939F935E
S1130EC0AF93BF93EF93FF9380912C0290912D02E7
S1130ED00E943D03811107C080912C0290912D0244
S1130EE00E94F10283B9FF91EF91BF91AF919F915D
S1130EF08F917F916F915F914F913F912F910F90BF
S1130F000FBE0F901F9018951F920F920FB60F925D
S1130F1011242F933F934F935F936F937F938F93FA
S1130F209F93AF93BF93EF93FF938BB12BB19BB17F
S1130F30382F3071822F8870832B9470892B31F075
S1130F405F9B0BC08CB15F99FDCF07C06CB18091E2
S1130F502002909121020E948C02FF91EF91BF9197
S1130F60AF919F918F917F916F915F914F913F913D
S1130F702F910F900FBE0F901F9018951F920F92F4
S1130F800FB60F9211242F933F934F935F936F9358
S1130F907F938F939F93AF93BF93EF93FF9380912E
S1130FA02202909123020E943D03811107C0809187
S1130FB02202909123020E94F1028CB9FF91EF91D9
S1130FC0BF91AF919F918F917F916F915F914F915D
S1130FD03F912F910F900FBE0F901F9018950E9474
S1130FE0630888F09F5798F0B92F9927B751B0F04C
S1130FF0E1F0660F771F881F991F1AF0BA95C9F799
S113100014C0B13091F00E947D08B1E008950C94B1
S11310107D08672F782F8827B85F39F0B93FCCF364
S1131020869577956795B395D9F73EF49095809515
S1131030709561957F4F8F4F9F4F0895E89409C035
S113104097FB3EF490958095709561957F4F8F4FF7
S11310509F4F9923A9F0F92F96E9BB279395F6950D
S1131060879577956795B795F111F8CFFAF4BB0F8B
S113107011F460FF1BC06F5F7F4F8F4F9F4F16C0EF
S1131080882311F096E911C0772321F09EE8872F79
S1131090762F05C0662371F096E8862F70E060E035
S11310A02AF09A95660F771F881FDAF7880F9695AE
S11310B0879597F9089557FD9058440F551F59F097
S11310C05F3F71F04795880F97FB991F61F09F3F31
S11310D079F087950895121613061406551FF2CF5A
S11310E04695F1DF08C0161617061806991FF1CFAA
S11310F086957105610508940895E894BB276627D1
S11311007727CB0197F908950E9497080C94080952
S11311100E94FA0838F00E94010920F0952311F08A
S11311200C94F1080C94F70811240C947E080E9486
S11311305B0870F3959FC1F3950F50E0551F629FB4
S1131140F001729FBB27F00DB11D639FAA27F00D1C
S1131150B11DAA1F649F6627B00DA11D661F829F43
S11311602227B00DA11D621F739FB00DA11D621F28
S1131170839FA00D611D221F749F3327A00D611D45
S1131180231F849F600D211D822F762F6A2F112427
S11311909F5750409AF0F1F088234AF0EE0FFF1F5A
S11311A0BB1F661F771F881F91505040A9F79E3FB1
S11311B0510580F00C94F1080C947E085F3FE4F331
S11311C0983ED4F3869577956795B795F795E79507
S11311D09F5FC1F7FE2B880F911D9695879597F910
S11311E0089597F99F6780E870E060E008959FEFA5
S11311F080EC089500240A941616170618060906AA
S1131200089500240A941216130614060506089578
S1131210092E0394000C11F4882352F0BB0F40F400
S1131220BF2B11F460FF04C06F5F7F4F8F4F9F4F40
S11312300895AA1BBB1B51E107C0AA1FBB1FA61719
S1131240B70710F0A61BB70B881F991F5A95A9F76B
S113125080959095BC01CD010895A1E21A2EAA1B98
S1131260BB1BFD010DC0AA1FBB1FEE1FFF1FA21752
S1131270B307E407F50720F0A21BB30BE40BF50B4F
S1131280661F771F881F991F1A9469F760957095D8
S1131290809590959B01AC01BD01CF0108950F93FA
S11312A0083090F0982F872F762F652F542F432FD7
S11312B0322F22270850F4CF220F331F441F551F0B
S11312C0661F771F881F991F0A95B2F70F9108951B
S11312D097FB10F8169400080F93083098F0085004
S11312E0232F342F452F562F672F782F892F902D9A
S11312F0F4CF059497958795779567955795479576
S1131300379527950A95AAF70F9108950F931F9380
S1131310CF93DF93869F8001879F100D969F100DBA
S11313201124C8010E94A209EC01009729F0A80128
S113133060E070E00E94C80ACE01DF91CF911F9156
S11313400F9108950F931F93CF93DF9382309105EC
S113135010F482E090E0E0918B03F0918C0320E0A4
S113136030E0A0E0B0E0309719F140815181028172
S1131370138148175907C8F08417950769F4109723
S113138031F012960C93129713961C9327C0009376
S11313908B0310938C0322C02115310519F04217D9
S11313A0530718F49A01BD01EF01DF01F801DBCF07
S11313B021153105F9F0281B390B2430310580F44F
S11313C08A819B816115710521F0FB0193838283DE
S11313D004C090938C0380938B03FE01329644C027
S11313E0FE01E20FF31F8193919322503109398357
S11313F028833AC02091890330918A03232B41F436
S1131400209102013091030130938A0320938903D0
S113141020910001309101012115310541F42DB7CE
S11314203EB74091040150910501241B350BE09116
S11314308903F0918A03E217F307A0F42E1B3F0BF4
S11314402817390778F0AC014E5F5F4F2417350732
S113145048F04E0F5F1F50938A0340938903819392
S1131460919302C0E0E0F0E0CF01DF91CF911F91B2
S11314700F910895CF93DF93009709F481C0FC0185
S1131480329713821282A0918B03B0918C03109730
S113149081F420813181820F931F2091890330913F
S11314A08A032817390751F5F0938A03E0938903D7
S11314B067C0ED0120E030E0CE17DF0740F44A8139
S11314C05B819E0141155105F1F0EA01F5CFD3830B
S11314D0C28340815181840F951FC817D90759F4DD
S11314E088819981840F951F0296918380838A81D4
S11314F09B81938382832115310529F4F0938C0316
S1131500E0938B033DC0E901FB83EA834991599140
S1131510C40FD51FEC17FD0761F480819181840FFE
S1131520951F0296E90199838883828193819B8325
S11315308A83E0E0F0E012968D919C9113970097D6
S113154019F0FD01DC01F7CF8D919C9111979D015C
S11315502E5F3F4F820F931F2091890330918A039E
S11315602817390769F4309729F410928C031092E4
S11315708B0302C013821282B0938A03A09389035F
S1131580DF91CF91089581E090E0F8940C94B90D27
S1131590DC0101C06D9341505040E0F70895AEE086
S11315A0B0E0E5EDFAE00C94900D0D891E8986E01B
S11315B08C831A8309838FEF9FE79E838D83AE010B
S11315C0475E5F4F6F89788DCE0101960E94F10AC4
S11315D0EF81F885E00FF11F10822E96E4E00C9461
S11315E0AC0DABE0B0E0E7EFFAE00C94820D6C01D7
S11315F07B018A01FC0117821682838181FFCCC1A1
S1131600CE0101963C01F6019381F70193FD85918A
S113161093FF81917F01882309F4BAC1853239F49B
S113162093FD859193FF81917F01853229F4B60161
S113163090E00E94E80CE7CF912C212C312CFFE1A3
S1131640F315D8F08B3279F038F4803279F08332A4
S1131650A1F4232D20611DC08D3261F0803369F423
S1131660232D216016C0832D8260382EE32DE46083
S11316703E2E2AC0F32DF8601DC037FC2DC020ED8E
S1131680280F2A3040F08E32B9F436FC81C1232D64
S11316902064322E19C036FE06C08AE0989E200DC2
S11316A01124922E11C0EAE02E9E200D1124222E28
S11316B0F32DF0623F2E08C08C3621F4832D806810
S11316C0382E02C0883641F4F70193FD859193FFCB
S11316D081917F018111B3CF982F9F7D95549330D1
S11316E028F40C5F1F4F9FE399830DC0833631F0BC
S11316F0833771F0833509F059C021C0F801808126
S113170089830E5F1F4F88248394912C530113C047
S11317102801F2E04F0E511CF801A080B18036FE82
S113172003C0692D70E002C06FEF7FEFC5010E9416
S1131730DD0C4C018201F32DFF773F2E16C02801EA
S113174022E0420E511CF801A080B18036FE03C095
S1131750692D70E002C06FEF7FEFC5010E94D20CCB
S11317604C01F32DF0683F2E820133FC1BC0822D07
S113177090E088169906B0F4B60180E290E00E94E9
S1131780E80C2A94F4CFF50137FC859137FE81915A
S11317905F01B60190E00E94E80C21102A9421E038
S11317A0821A91088114910471F7E8C0843611F00B
S11317B0893641F5F80137FE07C060817181828165
S11317C093810C5F1F4F08C060817181072E000C4C
S11317D0880B990B0E5F1F4FF32DFF763F2E97FF5B
S11317E009C090958095709561957F4F8F4F9F4F5D
S11317F0F0683F2E2AE030E0A3010E94240D882ED9
S1131800861845C0853731F4232D2F7EB22E2AE069
S113181030E025C0932D997FB92E8F36C1F018F48E
S1131820883579F0B5C0803719F0883721F0B0C019
S1131830E92FE061BE2EB4FE0DC0FB2DF460BF2E77
S113184009C034FE0AC0292F2660B22E06C028E043
S113185030E005C020E130E002C020E132E0F801D0
S1131860B7FE07C060817181828193810C5F1F4F35
S113187006C06081718180E090E00E5F1F4FA3017C
S11318800E94240D882E8618FB2DFF773F2E36FEEE
S11318900DC0232D2E7FA22E891458F434FE0BC0C4
S11318A032FC09C0832D8E7EA82E05C0B82CA32C33
S11318B003C0B82C01C0B92CA4FE0FC0FE01E80D72
S11318C0F11D8081803321F49A2D997EA92E09C0BF
S11318D0A2FE06C0B394B39404C08A2D867809F09E
S11318E0B394A3FC11C0A0FE06C0B21488F4280C63
S11318F0922C9B180EC0B21460F4B60180E290E002
S11319000E94E80CB394F7CFB21418F42B1802C059
S1131910982C212CA4FE10C0B60180E390E00E9414
S1131920E80CA2FE17C0A1FC03C088E790E002C047
S113193088E590E0B6010CC08A2D867859F0A1FEA6
S113194002C08BE201C080E2A7FC8DE2B60190E008
S11319500E94E80C891438F4B60180E390E00E94F8
S1131960E80C9A94F7CF8A94F301E80DF11D808175
S1131970B60190E00E94E80C8110F5CF222009F412
S113198042CEB60180E290E00E94E80C2A94F6CFA1
S1131990F6018681978102C08FEF9FEF2B96E2E1DB
S11319A00C949E0DFC010590615070400110D8F715
S11319B0809590958E0F9F1F0895FC016150704093
S11319C001900110D8F7809590958E0F9F1F089570
S11319D00F931F93CF93DF93FB01238121FD03C05A
S11319E08FEF9FEF2CC022FF16C0468157812481C0
S11319F035814217530744F4A081B1819D012F5FC3
S1131A003F4F318320838C93268137812F5F3F4F53
S1131A103783268314C08B01EC01FB010084F1851C
S1131A20E02D0995892BE1F6D80116968D919C91AC
S1131A301797019617969C938E931697CE01DF9174
S1131A40CF911F910F910895FA01AA27283051F1DF
S1131A50203181F1E8946F936E7F6E5F7F4F8F4FDB
S1131A609F4FAF4FB1E03ED0B4E03CD0670F781F3A
S1131A70891F9A1FA11D680F791F8A1F911DA11D1F
S1131A806A0F711D811D911DA11D20D009F4689458
S1131A903F912AE0269F11243019305D3193DEF600
S1131AA0CF010895462F4770405D4193B3E00FD0B6
S1131AB0C9F7F6CF462F4F70405D4A3318F0495DA1
S1131AC031FD4052419302D0A9F7EACFB4E0A69584
S1131AD09795879577956795BA95C9F700976105A6
S1131AE0710508959B01AC010A2E069457954795FC
S1131AF037952795BA95C9F7620F731F841F951FF1
S1131B00A01D08952F923F924F925F926F927F9201
S1131B108F929F92AF92BF92CF92DF92EF92FF92F9
S1131B200F931F93CF93DF93CDB7DEB7CA1BDB0BA5
S1131B300FB6F894DEBF0FBECDBF09942A8839884A
S1131B4048885F846E847D848C849B84AA84B98451
S1131B50C884DF80EE80FD800C811B81AA81B9815D
S1131B60CE0FD11D0FB6F894DEBF0FBECDBFED0171
S1091B700895F894FFCF74
S1131B7600008D032000000000004000000000006B
S1131B86000000000000000000000000000000004B
S1131B96000000000000000000000000000000003B
S1131BA6000000000000000000000000000000002B
S1131BB6000000000000000000000000000000001B
S1131BC640000000000000000000000000000000CB
S1131BD600000000000000000000000000000000FB
S1131BE600000000000000000000000000000000EB
S1131BF600000000000000000000000000000000DB
S1131C06000000000000400000000000000000008A
S1131C1600000000000000000000000000000000BA
S1131C2600000000000000000000000000000000AA
S1131C36000000000000000000000000000000009A
S1131C46000000000000000000000000400000004A
S1131C56000000000000000000000000000000007A
S1131C66000000000000000000000000000000006A
S1131C76000000000000000000000000000000005A
S1131C86000000000000000000000000000000004A
S1131C9600000000C7053706000100000000F40537
S1131CA61E0670302E7069633D006E312E76616CAF
S1131CB63D006E302E76616C3D0070312E70696386
S1131CC63D006E332E76616C3D006E322E76616C6D
S1131CD63D0070322E7069633D006E352E76616C60
S1131CE63D006E342E76616C3D0070332E70696350
S1131CF63D006E372E76616C3D006E362E76616C35
S1131D063D0070342E7069633D006E392E76616C29
S1131D163D006E382E76616C3D0070352E70696319
S1131D263D006E31312E76616C3D006E31302E767B
S1131D36616C3D0070362E7069633D006E31332E42
S1131D4676616C3D006E31322E76616C3D007037E3
S1131D562E7069633D006E31352E76616C3D006EE2
S1131D6631342E76616C3D0070382E7069633D0007
S1131D766E31372E76616C3D006E31362E76616C8F
S1131D863D0070392E7069633D006E31392E7661DF
S1131D966C3D006E31382E76616C3D008B01560128
S1131DA6C700CE00CF00D000D000D000D100D000B4
S1131DB6CB00D000D000D000D000D0002564002590
S1071DC62B64000086
S9030000FC
