S013000054656D70436F6E74726F6C2E737265639A
S11300000C94B5000C94D2000C94D2000C94D20041
S11300100C94D2000C94D2000C94D2000C94D20014
S11300200C94D2000C94D2000C94D2000C94D20004
S11300300C94D2000C94D2000C94D2000C94D200F4
S11300400C94D2000C94C7030C94D2000C9459095C
S11300500C94EE080C94D2000C94D2000C949309E6
S11300600C9428090C94D2000C94D2000C94D20065
S11300706E31382E76616C3D006E31392E76616CAE
S11300803D0070392E7069633D006E31362E766105
S11300906C3D006E31372E76616C3D0070382E70E9
S11300A069633D006E31342E76616C3D006E3135EE
S11300B02E76616C3D0070372E7069633D006E31A1
S11300C0322E76616C3D006E31332E76616C3D00CC
S11300D070362E7069633D006E31302E76616C3D52
S11300E0006E31312E76616C3D0070352E7069637F
S11300F03D006E382E76616C3D006E392E76616C53
S11301003D0070342E7069633D006E362E76616C4E
S11301103D006E372E76616C3D0070332E7069633E
S11301203D006E342E76616C3D006E352E76616C2A
S11301303D0070322E7069633D006E322E76616C24
S11301403D006E332E76616C3D0070312E70696314
S11301503D006E302E76616C3D006E312E76616C02
S11301603D0070302E7069633D0011241FBECFEF37
S1130170D4E0DEBFCDBF12E0A0E0B1E0EEE8FCE1E8
S113018002C005900D92AE35B107D9F723E0AEE574
S1130190B2E001C01D92A53BB207E1F70E9406063A
S11301A00C94450E0C94000081111BC06623C1F011
S11301B091E095BB2FEF39E648E1215030404040B3
S11301C0E1F700C0000015BA2FEF39E648E12150ED
S11301D030404040E1F700C000008F5F6813E9CF72
S11301E0FFCF089580E190E090935F0280935E02D8
S11301F00895CF93C82FEEE5F2E060817181848188
S11302009581860F971F01970E94EE0AAC0181E049
S1130210228133814217530709F480E061E00E9490
S1130220D400EEE5F2E082819381DC01A25ABD4F55
S11302301696CC930196608171810E94EE0A938395
S11302408283CF910895EEE5F2E084819581228145
S113025033812817390769F0DC01A25ABD4F16967D
S11302602C910196608171810E94EE0A95838483AA
S113027001C020E0822F0895089508950895CF9332
S1130280DF93FC012585263029F5EB0180859185D6
S1130290929582958F7089279F70892789836085BD
S11302A06F7070E080E090E00E94F30920E030E09D
S11302B040E85DE30E94590A20E030E048EC52E453
S11302C00E94590A0E94C4096D8381E08987CE0186
S11302D00E94E906DF91CF910895CF92DF92EF92C9
S11302E0FF920F931F93CF93DF93C2EFD2E00AE7FD
S11302F012E00F2EFEE7EF2EF3E0FF2EF02D8D859A
S1130300863051F4CE010E949005813029F4B80161
S11303108C2F9D2F0E943F012E96045F1F4FCE15F8
S1130320DF0569F7DF91CF911F910F91FF90EF9057
S1130330DF90CF900895809181030E948F031092E3
S11303408303089564EF71E0809181030E947E032A
S113035081E08093830308952091750230E0220F99
S1130360331FC901880F991F880F991F880F991F80
S1130370821B930B8E509D4F0E94F6048130A1F591
S11303802091750230E0220F331FC901880F991F95
S1130390880F991F880F991F821B930B8E509D4FB6
S11303A026E0FC0125870E949005813071F580913B
S11303B0750290E09C01220F331FB901680F791F69
S11303C0660F771F660F771F66587D4FC901880F28
S11303D0991F880F991F880F991F821B930B8E50AA
S11303E09D4F0E943F0108958091750290E0880F0F
S11303F0991FFC01EE0FFF1FEE0FFF1FEE0FFF1FF3
S1130400E81BF90BEE50FD4F158608958091780294
S1130410909179020E94D808029770F042E050E06F
S113042064E772E080917802909179020E94E30877
S1130430809174020E94F900089590937F03809341
S11304407E03FC01418152816381748181E00E94B9
S113045013089093790280937802E0917E03F091DF
S11304607F03458156816781708580E00E9413086F
S1130470909377028093760288E792E00E94300698
S113048086E792E00E94110380E190E00E94F2006E
S113049022E631E04AE551E062E571E08AE792E064
S11304A00E943A062AE431E042E451E06AE371E052
S11304B086E892E00E943A0622E331E04AE251E003
S11304C062E271E082E992E00E943A062AE131E0B8
S11304D042E151E06AE071E08EE992E00E943A065E
S11304E022E031E04AEF50E062EF70E08AEA92E005
S11304F00E943A062AEE30E041EE50E068ED70E0EA
S113050086EB92E00E943A0620ED30E047EC50E0A2
S11305106EEB70E082EC92E00E943A0626EB30E04B
S11305204DEA50E064EA70E08EEC92E00E943A06F4
S11305302CE930E043E950E06AE870E08AED92E0AB
S11305400E943A0622E830E049E750E060E770E0B4
S113055086EE92E00E943A060E9425030E9453030D
S1130560809381030E945303809380038FE084BBB4
S11305700895CF93DF93CDB7DEB727970FB6F894DE
S1130580DEBF0FBECDBF809181030E948F0368EE52
S113059073E0809180030E947E0387E0ECE2F2E046
S11305A0DE01119601900D928A95E1F70E942301D4
S11305B0809382032091830330E0F901EE0FFF1F43
S11305C0EE0FFF1FEE0FFF1FE20FF31FE80FF11DE9
S11305D0EE0FFF1FED5CFD4F0190F081E02D0995BA
S11305E0809181030E94A003882349F088E00E943F
S11305F0F90064EF71E0809181030E947E03809191
S113060080030E94A003882389F267E0CE0101964B
S11306100E941B0368EE73E0809180030E947E03B6
S1130620C5CFFC01808191819093850380938403DD
S11306300E94A0080895462F50E0BC0180918403D5
S1130640909185030E94B3080895CF93DF93DFB799
S1130650F89480919203C1E061E08C270E94D40059
S11306601092940310929303E6E8F3E08FEF9FEF68
S1130670DC0180839183A283B38384839583A683DF
S1130680B78380879187A287B387C093920386E05C
S113069082BF83B7836083BF89B7826089BFDFBFAE
S11306A0DF91CF910895CF93CFB7F89481E0209153
S11306B0930330919403233031050CF080E062E021
S11306C00E94D4008091930390919403FC01EE0F57
S11306D0FF1FEE0FFF1FEA57FC4F4FEF5FEFBA010A
S11306E040835183628373839C012F5F3F4F309318
S11306F0940320939303CFBFCF9108959FB7F894A9
S1130700AB0160E070E024E08202F0011124EA57BA
S1130710FC4F40835183628373839FBF08959FB7C7
S1130720F89424E08202F0011124EA57FC4F4FEFC1
S11307305FEFBA0140835183628373839FBF08953F
S11307402FB7F894E82F880FFF0BDF01AA0FBB1F08
S1130750AA0FBB1FAA57BC4F8D919D910D90BC91C0
S1130760A02D892B8A2B8B2B79F4EE0FFF1FEE0F14
S1130770FF1FEA57FC4F8FEF9FEFDC0180839183CB
S1130780A283B38381E001C080E02FBF08951F924C
S11307900F920FB60F9211242F933F934F935F93B1
S11307A06F937F938F939F93EF93FF9386E082BF22
S11307B020919303309194032115310549F180E090
S11307C090E0FC01EE0FFF1FEE0FFF1FEA57FC4FF6
S11307D0408151816281738114161506160617062D
S11307E09CF4FC01EE0FFF1FEE0FFF1FEA57FC4FB6
S11307F040815181628173814150510961097109BC
S11308004083518362837383019682179307C9F6E9
S1130810FF91EF919F918F917F916F915F914F9194
S11308203F912F910F900FBE0F901F901895CF936B
S1130830C82F81E0C43008F080E061E00E94D40059
S113084026E4C29FC001112480509F4FCF91089588
S11308501F93CF93DF93EC01162F6C817D818A81E6
S11308609B81860F971F01970E94EE0AAC0181E0DD
S1130870288139814217530709F480E062E00E941D
S1130880D40088819981FE01E80FF91F168301962F
S11308908F73992799838883DF91CF911F9108954E
S11308A0FC0180819181428153818417950718F05E
S11308B0841B950B089524813581820F931F841B1B
S11308C0950B0895EF92FF920F931F93CF93DF93AD
S11308D07C01EB018A010E945004F70124813581D7
S11308E0281B390B81E00217130708F080E063E04E
S11308F00E94D4000115110549F00C0F1D1F6991C8
S1130900C7010E9428040C171D07C9F7DF91CF9176
S11309101F910F91FF90EF900895CF93DF93EC0117
S11309200E94500421E0892B09F420E064E0822F26
S11309300E94D4002A813B81FE01E20FF31F8681CD
S11309402F5F3F4F2F7333273B832A83DF91CF9150
S11309500895EF92FF920F931F93CF93DF937C013F
S1130960EB01142F0E945004082F81E0011708F4B2
S113097080E065E00E94D400101708F4012F10E015
S11309800115110549F00C0F1D1FC7010E948D04AC
S113099089930C171D07C9F7DF91CF911F910F9110
S11309A0FF90EF900895FC0113821282118210824D
S11309B00895FC0181E040815181228133814217F5
S11309C0530709F080E00895FC0140E080E05CE812
S11309D0219198E0322F38278695269530FD85277A
S11309E09150C1F74F5F461798F30895FF920F9304
S11309F01F93CF93DF93EC01188219821A821B8212
S1130A001C821D821E821F820E94F906F82E81E03C
S1130A10F81221C083E30E94630717E00E9436079F
S1130A202881282B39814A815B816C817D818E816B
S1130A309F8108E00E94240B288339834A835B83C7
S1130A406C837D838E839F83115041F70E94360708
S1130A509881892B88838F2DDF91CF911F910F91DE
S1130A60FF900895CF93DF938EEB0E9463070E945B
S1130A703607C0EAD3E088830E94360789830E9440
S1130A8036078A830E9436078B830E9436078C833D
S1130A900E9436078D830E9436078E830E94360794
S1130AA08F830E9436078887DF91CF9108959F92A4
S1130AB0AF92BF92CF92DF92EF92FF920F931F9368
S1130AC0CF93DF93922EA32EB42EC52ED62EE72ECF
S1130AD0F82E192F85E50E946307C0E0D0E0292D88
S1130AE03A2D4B2D5C2D6D2D7E2D8F2D912F0C2F9E
S1130AF00E94240B08E30E943F0B822F0E9463078D
S1130B002896C034D10559F7DF91CF911F910F91E9
S1130B10FF90EF90DF90CF90BF90AF909F9008959B
S1130B200F931F93CF938C010E94F906C82F813035
S1130B3009F061C0D8012C9111963C91119712963D
S1130B404C91129713965C91139714966C91149789
S1130B5015967C91159716968C91169717969C91DD
S1130B600E94570584E40E946307E7EBFBE031979A
S1130B70F1F700C000000E94F906C82F8130D9F5B2
S1130B80D8012C9111963C91119712964C91129781
S1130B9013965C91139714966C91149715967C9107
S1130BA0159716968C91169717969C910E94570547
S1130BB00E94320569E080EA93E00E94E404811116
S1130BC019C0E0EAF3E0818190E0982F8827208122
S1130BD0822BD80119969C938E93189782811A962A
S1130BE08C931A9783811B968C931B9784811C96F4
S1130BF08C9301C0C3E08C2FCF911F910F91089566
S1130C00A89581B5886181BD11BC0895F894E5E982
S1130C10F3E080E09BE4A0E0B0E081839283A383CF
S1130C20B48381E0808380E895E2A0E0B0E085832E
S1130C309683A783B0870E9400062FEF83ED90E38D
S1130C40215080409040E1F700C0000085E993E026
S1130C500E941D0278940E94B90280E090E00895F9
S1130C60FC018081918190939F0380939E030E9455
S1130C70A0080895FC0173836283578346833387F6
S1130C8022870895CF93DF9300D000D0CDB7DEB78D
S1130C908FEF9FEFAFEFB0E089839A83AB83BC8380
S1130CA043E050E0BE016F5F7F4F80919E039091BF
S1130CB09F030E94B3080F900F900F900F90DF9145
S1130CC0CF910895EF92FF921F93CF93DF9300D0BB
S1130CD000D0CDB7DEB7FC019181492F092E000C5D
S1130CE0550B8081BA01681B710987FD73959B01BF
S1130CF0772324F422273327261B370B2230310590
S1130D000CF45DC07F01908399239CF05F939F93C3
S1130D1087E592E09F938F93CE0101969F938F93E3
S1130D200E945B0B0F900F900F900F900F900F90FD
S1130D3012C05F939F938AE592E09F938F93CE01B5
S1130D4001969F938F930E945B0B0F900F900F90CF
S1130D500F900F900F90D7011296ED91FC9113977D
S1130D60E491EC83EE23C1F010E041E050E0BE01D9
S1130D706C5F7F4F80919E0390919F030E94B30804
S1130D801F5FD7011296ED91FC911397E10FF11DAE
S1130D90E491EC83E111E9CFBE016F5F7F4FFB016A
S1130DA001900020E9F73197AF01461B570B809162
S1130DB09E0390919F030E94B3080E9442060F90E5
S1130DC00F900F900F90DF91CF911F91FF90EF90B4
S1130DD00895CF93DF93EC010E946206CE0104963E
S1130DE00E946206CE0108960E946206DF91CF91AE
S1130DF008959FB7F894D09AD898EFEEFAE0319717
S1130E00F1F700C00000D89AEBE2F1E03197F1F776
S1130E1000C00000D098C8990CC0EFEEFAE03197FA
S1130E20F1F700C0000089B3882329F09FBF81E057
S1130E30089580E001C082E09FBF0895D09AD898B9
S1130E4080E18A95F1F7D89AD098E0E4EA95F1F731
S1130E50C89B02C080E801C080E0D09AD89AEBE237
S1130E60F1E03197F1F700C0000008951F93CF938C
S1130E70DF931FB7F894D09AD8E080E0C82FC695C6
S1130E800E941E078C2BD150C9F71FBFDF91CF9151
S1130E901F910895D09AD89880E58A95F1F780EF4C
S1130EA08A95F1F7D89A8AE08A95F1F700C00895F7
S1130EB0D09AD89880E58A95F1F7D89A8AEF8A95DE
S1130EC0F1F700C00895DF92EF92FF920F931F9302
S1130ED0CF93DF93DFB6F89408E010E0C1E0D0E0F0
S1130EE0E82EF12CC7018C239D23892B19F00E9435
S1130EF0580702C00E944A07CC0FDD1F0150110998
S1130F0089F7DFBEDF91CF911F910F91FF90EF9092
S1130F10DF900895DC01CB01880F991FAA1FBB1F26
S1130F20880F991FAA1FBB1F9C01AD01220F331FFD
S1130F30441F551F220F331F441F551F60E074E2E6
S1130F4084EF90E00E94020BDA01C9010197A10924
S1130F50B10989B9892F9A2FAB2FBB27A7FDBA9561
S1130F6080BD1BB888ED8AB986E880BD0895DC0190
S1130F70CB01880F991FAA1FBB1F880F991FAA1F97
S1130F80BB1F9C01AD01220F331F441F551F60E09E
S1130F9074E284EF90E00E94020BDA01C901019728
S1130FA0A109B10980B9892F9A2FAB2FBB27A7FDBF
S1130FB0BA958CBF82E082B988ED81B986E88CBF8E
S1130FC00895CF93CFB7F894809126029091270289
S1130FD00E94D90481110BC0159B07C08091260281
S1130FE0909127020E948D0483B9CFBF01C0CFBF67
S1130FF0CF910895CF93CFB7F89480911C0290912C
S11310001D020E94D90481110BC05D9B07C0809111
S11310101C0290911D020E948D048CB9CFBF01C0A7
S1131020CFBFCF9108959F92AF92BF92CF92DF929C
S1131030EF92FF920F931F93CF93DF93982E6A0141
S11310407B0181E0891508F480E061E00E94D4000E
S1131050C92DD0E08E01000F111FCE01880F991FFA
S1131060880F991F880F991F080F191F085E1D4FBD
S1131070F801908162E081E089270E94D4009920E0
S113108021F0F1E09F16F1F039C080E00E941704CE
S11310909E01220F331F220F331F220F331F5E01C5
S11310A0AA0CBB1C2A0D3B1DA901485E5D4F5A01C9
S11310B0FA019383828381E00E941704F5019583EA
S11310C084831CC082E00E9417049E01220F331FF8
S11310D0220F331F220F331F5E01AA0CBB1C2A0DE3
S11310E03B1DA901485E5D4F5A01FA019383828337
S11310F083E00E941704F50195838483CE01880F51
S1131100991FCC0FDD1FCC0FDD1FCC0FDD1FC80FC7
S1131110D91FC85EDD4F9982EE81FF81C701B601F8
S1131120099581E08883C801DF91CF911F910F91C8
S1131130FF90EF90DF90CF90BF90AF909F90089575
S11311401F93CF93DF93EC011FB7F8948C819D819B
S11311500E94D3048A819B810E94D3041FBFDF9124
S1131160CF911F910895CF92DF92EF92FF921F9338
S1131170CF93DF93EC016B017A0181E0452B09F4F5
S113118080E063E00E94D4001FB7F894A701B60181
S11311908C819D810E9462041FBFE885F9850995B1
S11311A0DF91CF911F91FF90EF90DF90CF90089542
S11311B0CF93CFB7F894FC01828193810E945004AD
S11311C0CFBFCF910895CF93CFB7F894FC0182811C
S11311D093810E94A904CFBFCF9108951F920F92CB
S11311E00FB60F9211242F933F934F935F936F93F6
S11311F07F938F939F93AF93BF93EF93FF9382B1AA
S113120022B192B1382F3071822F8870832B947061
S1131210892B31F0179B0BC083B11799FDCF07C001
S113122063B180912402909125020E942804FF91C9
S1131230EF91BF91AF919F918F917F916F915F914A
S11312404F913F912F910F900FBE0F901F901895C3
S11312501F920F920FB60F9211242F933F934F9327
S11312605F936F937F938F939F93AF93BF93EF930A
S1131270FF9380912602909127020E94D904811144
S113128007C080912602909127020E948D0483B9A1
S1131290FF91EF91BF91AF919F918F917F916F914A
S11312A05F914F913F912F910F900FBE0F901F9020
S11312B018951F920F920FB60F9211242F933F93FC
S11312C04F935F936F937F938F939F93AF93BF934A
S11312D0EF93FF938BB12BB19BB1382F3071822FD9
S11312E08870832B9470892B31F05F9B0BC08CB179
S11312F05F99FDCF07C06CB180911A0290911B02D7
S11313000E942804FF91EF91BF91AF919F918F911B
S11313107F916F915F914F913F912F910F900FBEED
S11313200F901F9018951F920F920FB60F921124D1
S11313302F933F934F935F936F937F938F939F93D9
S1131340AF93BF93EF93FF9380911C0290911D0282
S11313500E94D904811107C080911C0290911D0242
S11313600E948D048CB9FF91EF91BF91AF919F9131
S11313708F917F916F915F914F913F912F910F903A
S11313800FBE0F901F9018950E94380A88F09F573F
S113139098F0B92F9927B751B0F0E1F0660F771F95
S11313A0881F991F1AF0BA95C9F714C0B13091F08B
S11313B00E94520AB1E008950C94520A672F782FC4
S11313C08827B85F39F0B93FCCF386957795679550
S11313D0B395D9F73EF490958095709561957F4FBC
S11313E08F4F9F4F0895E89409C097FB3EF4909562
S11313F08095709561957F4F8F4F9F4F9923A9F0EA
S1131400F92F96E9BB279395F69587957795679578
S1131410B795F111F8CFFAF4BB0F11F460FF1BC0BC
S11314206F5F7F4F8F4F9F4F16C0882311F096E94F
S113143011C0772321F09EE8872F762F05C06623FD
S113144071F096E8862F70E060E02AF09A95660FB6
S1131450771F881FDAF7880F9695879597F908956F
S113146057FD9058440F551F59F05F3F71F0479551
S1131470880F97FB991F61F09F3F79F08795089536
S1131480121613061406551FF2CF4695F1DF08C055
S1131490161617061806991FF1CF86957105610572
S11314A008940895E894BB2766277727CB0197F91A
S11314B008950E946C0A0C94DD0A0E94CF0A38F049
S11314C00E94D60A20F0952311F00C94C60A0C94BD
S11314D0CC0A11240C94530A0E94300A70F3959F8D
S11314E0C1F3950F50E0551F629FF001729FBB2717
S11314F0F00DB11D639FAA27F00DB11DAA1F649FB3
S11315006627B00DA11D661F829F2227B00DA11D65
S1131510621F739FB00DA11D621F839FA00D611DEB
S1131520221F749F3327A00D611D231F849F600D0C
S1131530211D822F762F6A2F11249F5750409AF035
S1131540F1F088234AF0EE0FFF1FBB1F661F771FC1
S1131550881F91505040A9F79E3F510580F00C948C
S1131560C60A0C94530A5F3FE4F3983ED4F386957D
S113157077956795B795F795E7959F5FC1F7FE2B2C
S1131580880F911D9695879597F9089597F99F6708
S113159080E870E060E008959FEF80EC08950024F7
S11315A00A941616170618060906089500240A94C4
S11315B012161306140605060895092E0394000C4A
S11315C011F4882352F0BB0F40F4BF2B11F460FFD9
S11315D004C06F5F7F4F8F4F9F4F0895AA1BBB1BA3
S11315E051E107C0AA1FBB1FA617B70710F0A61B1F
S11315F0B70B881F991F5A95A9F780959095BC0140
S1131600CD010895A1E21A2EAA1BBB1BFD010DC03A
S1131610AA1FBB1FEE1FFF1FA217B307E407F5079E
S113162020F0A21BB30BE40BF50B661F771F881F7A
S1131630991F1A9469F760957095809590959B0110
S1131640AC01BD01CF0108950F93083090F0982F9D
S1131650872F762F652F542F432F322F22270850A0
S1131660F4CF220F331F441F551F661F771F881F97
S1131670991F0A95B2F70F91089597FB10F81694E5
S113168000080F93083098F00850232F342F452F6B
S1131690562F672F782F892F902DF4CF0594979587
S11316A087957795679557954795379527950A9523
S11316B0AAF70F910895AEE0B0E0E1E6FBE00C94E8
S11316C01C0E0D891E8986E08C831A8309838FEF93
S11316D09FE79E838D83AE01475E5F4F6F89788D50
S11316E0CE0101960E947D0BEF81F885E00FF11F7A
S11316F010822E96E4E00C94380EABE0B0E0E3E800
S1131700FBE00C940E0E6C017B018A01FC01178234
S11317101682838181FFCCC1CE0101963C01F60182
S11317209381F70193FD859193FF81917F01882334
S113173009F4BAC1853239F493FD859193FF8191FF
S11317407F01853229F4B60190E00E94740DE7CF41
S1131750912C212C312CFFE1F315D8F08B3279F048
S113176038F4803279F08332A1F4232D20611DC036
S11317708D3261F0803369F4232D216016C0832DEE
S11317808260382EE32DE4603E2E2AC0F32DF860EB
S11317901DC037FC2DC020ED280F2A3040F08E32BA
S11317A0B9F436FC81C1232D2064322E19C036FED3
S11317B006C08AE0989E200D1124922E11C0EAE002
S11317C02E9E200D1124222EF32DF0623F2E08C0F0
S11317D08C3621F4832D8068382E02C0883641F47B
S11317E0F70193FD859193FF81917F018111B3CF1F
S11317F0982F9F7D9554933028F40C5F1F4F9FE3DF
S113180099830DC0833631F0833771F0833509F045
S113181059C021C0F801808189830E5F1F4F88243D
S11318208394912C530113C02801F2E04F0E511CF4
S1131830F801A080B18036FE03C0692D70E002C0BB
S11318406FEF7FEFC5010E94690D4C018201F32DFA
S1131850FF773F2E16C0280122E0420E511CF801EA
S1131860A080B18036FE03C0692D70E002C06FEF26
S11318707FEFC5010E945E0D4C01F32DF0683F2EF1
S1131880820133FC1BC0822D90E088169906B0F4C7
S1131890B60180E290E00E94740D2A94F4CFF50121
S11318A037FC859137FE81915F01B60190E00E947B
S11318B0740D21102A9421E0821A91088114910454
S11318C071F7E8C0843611F0893641F5F80137FE26
S11318D007C060817181828193810C5F1F4F08C0B2
S11318E060817181072E000C880B990B0E5F1F4FCE
S11318F0F32DFF763F2E97FF09C090958095709544
S113190061957F4F8F4F9F4FF0683F2E2AE030E064
S1131910A3010E94B00D882E861845C0853731F486
S1131920232D2F7EB22E2AE030E025C0932D997FFF
S1131930B92E8F36C1F018F4883579F0B5C08037E8
S113194019F0883721F0B0C0E92FE061BE2EB4FE53
S11319500DC0FB2DF460BF2E09C034FE0AC0292F30
S11319602660B22E06C028E030E005C020E130E059
S113197002C020E132E0F801B7FE07C06081718146
S1131980828193810C5F1F4F06C06081718180E06A
S113199090E00E5F1F4FA3010E94B00D882E8618A1
S11319A0FB2DFF773F2E36FE0DC0232D2E7FA22E5A
S11319B0891458F434FE0BC032FC09C0832D8E7E8A
S11319C0A82E05C0B82CA32C03C0B82C01C0B92C78
S11319D0A4FE0FC0FE01E80DF11D8081803321F4C7
S11319E09A2D997EA92E09C0A2FE06C0B394B39481
S11319F004C08A2D867809F0B394A3FC11C0A0FE1C
S1131A0006C0B21488F4280C922C9B180EC0B21491
S1131A1060F4B60180E290E00E94740DB394F7CFB5
S1131A20B21418F42B1802C0982C212CA4FE10C058
S1131A30B60180E390E00E94740DA2FE17C0A1FCE1
S1131A4003C088E790E002C088E590E0B6010CC0CE
S1131A508A2D867859F0A1FE02C08BE201C080E293
S1131A60A7FC8DE2B60190E00E94740D891438F44D
S1131A70B60180E390E00E94740D9A94F7CF8A94A3
S1131A80F301E80DF11D8081B60190E00E94740D10
S1131A908110F5CF222009F442CEB60180E290E015
S1131AA00E94740D2A94F6CFF6018681978102C0B4
S1131AB08FEF9FEF2B96E2E10C942A0EFC01059028
S1131AC0615070400110D8F7809590958E0F9F1F3C
S1131AD00895FC016150704001900110D8F7809581
S1131AE090958E0F9F1F08950F931F93CF93DF93AD
S1131AF0FB01238121FD03C08FEF9FEF2CC022FF48
S1131B0016C046815781248135814217530744F416
S1131B10A081B1819D012F5F3F4F318320838C933E
S1131B20268137812F5F3F4F3783268314C08B0173
S1131B30EC01FB010084F185E02D0995892BE1F688
S1131B40D80116968D919C911797019617969C93A0
S1131B508E931697CE01DF91CF911F910F91089527
S1131B60FA01AA27283051F1203181F1E8946F93CA
S1131B706E7F6E5F7F4F8F4F9F4FAF4FB1E03ED070
S1131B80B4E03CD0670F781F891F9A1FA11D680F0E
S1131B90791F8A1F911DA11D6A0F711D811D911D41
S1131BA0A11D20D009F468943F912AE0269F1124B6
S1131BB03019305D3193DEF6CF010895462F47701A
S1131BC0405D4193B3E00FD0C9F7F6CF462F4F7075
S1131BD0405D4A3318F0495D31FD4052419302D0D3
S1131BE0A9F7EACFB4E0A695979587957795679579
S1131BF0BA95C9F700976105710508959B01AC0179
S1131C000A2E06945795479537952795BA95C9F79F
S1131C10620F731F841F951FA01D08952F923F927A
S1131C204F925F926F927F928F929F92AF92BF92E8
S1131C30CF92DF92EF92FF920F931F93CF93DF9394
S1131C40CDB7DEB7CA1BDB0B0FB6F894DEBF0FBEF1
S1131C50CDBF09942A88398848885F846E847D843E
S1131C608C849B84AA84B984C884DF80EE80FD8040
S1131C700C811B81AA81B981CE0FD11D0FB6F894B6
S1111C80DEBF0FBECDBFED010895F894FFCF77
S1131C8E0000000040000000000000000000000002
S1131C9E0000000000000000000000000000000032
S1131CAE0000000000000000000000000000000022
S1131CBE0000000000000000000000000000000012
S1131CCE00000000000000000000400000000000C2
S1131CDE00000000000000000000000000000000F2
S1131CEE00000000000000000000000000000000E2
S1131CFE00000000000000000000000000000000D2
S1131D0E00000000000000000000000000000000C1
S1131D1E4000000000000000000000000000000071
S1131D2E00000000000000000000000000000000A1
S1131D3E0000000000000000000000000000000091
S1131D4E0000000000000000000000000000000081
S1131D5E0000000000004000000000000000000031
S1131D6E0000000000000000000000000000000061
S1131D7E0000000000000000000000000000000051
S1131D8E0000000000000000000000000000000041
S1131D9E00000000000000000000000000008A07A0
S1131DAEFA07000100000000B707E10748656C6CF4
S1131DBE6F21000602AC01A2013C013D013E013E31
S1131DCE013E013E0106023E019B013E013E013EE3
S1111DDE013E013E016D01256400252B6400C9
S9030000FC
