:100000000C94B5010C94D2010C94D2010C94D20141
:100010000C94D2010C94D2010C94D2010C94D20114
:100020000C94D2010C94D2010C94D2010C94D20104
:100030000C94D2010C94D2010C94D2010C94D201F4
:100040000C94D2010C94D3050C94D2010C94650B42
:100050000C94FA0A0C94D2010C94D2010C949F0BCC
:100060000C94340B0C94D2010C94D2010C94D20158
:1000700000C0C101C30302C2C60607C705C5C40448
:10008000CC0C0DCD0FCFCE0E0ACACB0BC90908C8B8
:10009000D81819D91BDBDA1A1EDEDF1FDD1D1CDCA8
:1000A00014D4D515D71716D6D21213D311D1D01018
:1000B000F03031F133F3F23236F6F737F53534F408
:1000C0003CFCFD3DFF3F3EFEFA3A3BFB39F9F83878
:1000D00028E8E929EB2B2AEAEE2E2FEF2DEDEC2C68
:1000E000E42425E527E7E62622E2E323E12120E0D8
:1000F000A06061A163A3A26266A6A767A56564A4C8
:100100006CACAD6DAF6F6EAEAA6A6BAB69A9A86837
:1001100078B8B979BB7B7ABABE7E7FBF7DBDBC7C27
:10012000B47475B577B7B67672B2B373B17170B097
:100130005090915193535292965657975595945487
:100140009C5C5D9D5F9F9E5E5A9A9B5B99595898F7
:10015000884849894B8B8A4A4E8E8F4F8D4D4C8CE7
:100160004484854587474686824243834181804057
:1001700000C1814001C0804101C0804100C1814077
:1001800001C0804100C1814000C1814001C0804167
:1001900001C0804100C1814000C1814001C0804157
:1001A00000C1814001C0804101C0804100C1814047
:1001B00001C0804100C1814000C1814001C0804137
:1001C00000C1814001C0804101C0804100C1814027
:1001D00000C1814001C0804101C0804100C1814017
:1001E00001C0804100C1814000C1814001C0804107
:1001F00001C0804100C1814000C1814001C08041F7
:1002000000C1814001C0804101C0804100C18140E6
:1002100000C1814001C0804101C0804100C18140D6
:1002200001C0804100C1814000C1814001C08041C6
:1002300000C1814001C0804101C0804100C18140B6
:1002400001C0804100C1814000C1814001C08041A6
:1002500001C0804100C1814000C1814001C0804196
:1002600000C1814001C0804101C0804100C1814086
:100270006E31382E76616C3D006E31392E76616CB0
:100280003D0070392E7069633D006E31362E766107
:100290006C3D006E31372E76616C3D0070382E70EB
:1002A00069633D006E31342E76616C3D006E3135F0
:1002B0002E76616C3D0070372E7069633D006E31A3
:1002C000322E76616C3D006E31332E76616C3D00CE
:1002D00070362E7069633D006E31302E76616C3D54
:1002E000006E31312E76616C3D0070352E70696381
:1002F0003D006E382E76616C3D006E392E76616C55
:100300003D0070342E7069633D006E362E76616C50
:100310003D006E372E76616C3D0070332E70696340
:100320003D006E342E76616C3D006E352E76616C2C
:100330003D0070322E7069633D006E322E76616C26
:100340003D006E332E76616C3D0070312E70696316
:100350003D006E302E76616C3D006E312E76616C04
:100360003D0070302E7069633D0011241FBECFEF39
:10037000D4E0DEBFCDBF12E0A0E0B1E0E0E8F1E202
:1003800002C005900D92A035B107D9F723E0A0E592
:10039000B2E001C01D92AD3AB207E1F70E94120827
:1003A0000C94BE100C94000081111BC06623C1F098
:1003B00091E095BB2FEF39E648E1215030404040B5
:1003C000E1F700C0000015BA2FEF39E648E12150EF
:1003D00030404040E1F700C000008F5F6813E9CF74
:1003E000FFCF089561157105B9F0DC01680F791F21
:1003F0004FEF9FEF8D918927282F30E0F901E059C9
:10040000FE4F8491982F9427F901E059FF4F4491B2
:10041000A617B70779F702C04FEF9FEF892F90E03B
:10042000942B08958627FC01E059FE4F2491FC018E
:10043000E059FF4F849190E0982F88274227842B22
:10044000089580E190E090935102809350020895C6
:10045000CF93C82FE0E5F2E06081718184819581BE
:10046000860F971F01970E94670DAC0181E02281E2
:1004700033814217530709F480E061E00E94D40100
:10048000E0E5F2E082819381DC01A05BBD4F16962E
:10049000CC930196608171810E94670D9383828362
:1004A000CF910895E0E5F2E0848195812281338146
:1004B0002817390769F0DC01A05BBD4F16962C9117
:1004C0000196608171810E94670D9583848301C0CC
:1004D00020E0822F0895089508950895CF93DF9323
:1004E000FC012585263029F5EB01808591859295C3
:1004F00082958F7089279F708927898360856F70A7
:1005000070E080E090E00E946C0C20E030E040E879
:100510005DE30E94FA0C20E030E048EC52E40E94D7
:10052000FA0C0E943D0C6D8381E08987CE010E9408
:10053000F508DF91CF910895CF92DF92EF92FF926D
:100540000F931F93CF93DF93C4EED2E00CE612E03B
:100550000F2EF0E7EF2EF3E0FF2EF02D8D85863085
:1005600051F4CE010E949C07813029F4B8018C2FF0
:100570009D2F0E946E022E96045F1F4FCE15DF0541
:1005800069F7DF91CF911F910F91FF90EF90DF906E
:10059000CF900895809173030E949B05109275037C
:1005A000089564EF71E0809173030E948A0581E0F1
:1005B0008093750308952091670230E0220F331F66
:1005C000C901880F991F880F991F880F991F821BD7
:1005D000930B8C519D4F0E9402078130A1F5209111
:1005E000670230E0220F331FC901880F991F880F5F
:1005F000991F880F991F821B930B8C519D4F26E0EA
:10060000FC0125870E949C07813071F5809167026B
:1006100090E09C01220F331FB901680F791F660F0C
:10062000771F660F771F64597D4FC901880F991F87
:10063000880F991F880F991F821B930B8C519D4F18
:100640000E946E0208958091670290E0880F991FC2
:10065000FC01EE0FFF1FEE0FFF1FEE0FFF1FE81B49
:10066000F90BEC51FD4F1586089580916A02909127
:100670006B020E94E40A029770F042E050E066E6E6
:1006800072E080916A0290916B020E94EF0A809161
:1006900066020E942802089590937103809370036C
:1006A000FC01418152816381748181E00E941F0AB3
:1006B00090936B0280936A02E0917003F091710352
:1006C000458156816781708580E00E941F0A909362
:1006D0006902809368028AE692E00E943C0880E109
:1006E00090E00E94210222E633E04AE553E062E511
:1006F00073E08CE692E00E9446082AE433E042E48C
:1007000053E06AE373E088E792E00E94460822E340
:1007100033E04AE253E062E273E084E892E00E9450
:1007200046082AE133E042E153E06AE073E080E901
:1007300092E00E94460822E033E04AEF52E062EF86
:1007400072E08CE992E00E9446082AEE32E041EE27
:1007500052E068ED72E088EA92E00E94460820EDDF
:1007600032E047EC52E06EEB72E084EB92E00E94E4
:10077000460826EB32E04DEA52E064EA72E080EC93
:1007800092E00E9446082CE932E043E952E06AE830
:1007900072E08CEC92E00E94460822E832E049E7E1
:1007A00052E060E772E088ED92E00E9446080E9405
:1007B00031050E945F05809373030E945F0580935B
:1007C00072038FE084BB0895809173030E949B05A0
:1007D00068EE73E0809172030E948A050E945202C3
:1007E00080937403E091750397E0E99FF001112471
:1007F000E80FF11DEE0FFF1FE45DFD4F0190F0814A
:10080000E02D0995809173030E94AC05882349F07F
:1008100086E00E94280264EF71E0809173030E94D9
:100820008A0580916802909169020E94E40A089703
:10083000A8F248E050E066E773E08091680290918A
:1008400069020E94EF0A85E00E942802C7CFFC01DE
:100850002081318132272327322731832083089555
:100860008F929F92AF92BF92DF92EF92FF920F937F
:100870001F93CF93DF93CDB7DEB729970FB6F894C8
:10088000DEBF0FBECDBFE0917003F0917103908188
:10089000809176039813D3C068E070E086E793E018
:1008A0000E94F2018C01892B09F0C9C019861886B3
:1008B0008AE793E00E94270488E793E00E942704D8
:1008C0001D821E821F82E0917003F091710380816E
:1008D0008D8393E09E830F2EF6E7EF2EF3E0FF2E3D
:1008E000F02DF7019481990F9F834FEF6FEF90E008
:1008F0000E941202682F888799878E81492F90E085
:100900000E941202682F888799878F81492F90E073
:100910000E9412029987888743E050E0BE016B5F16
:100920007F4F80916802909169020E94BF0AF7018F
:100930008481958196958795892B09F475C0D12C72
:10094000F70182819381800F911F880F991FFC010D
:10095000EE0FFF1FEE0FFF1FEE0FFF1FE81BF90B3F
:10096000EC51FD4F00851185B8016F70772780E04D
:1009700090E00E946C0C20E030E040E85DE30E94D3
:10098000FA0C4B015C01B801729562956F70672794
:100990007F70672780E090E00E946C0C9B01AC01A7
:1009A000C501B4010E94D10B262F462F572F682F67
:1009B000792F49835A836B837C8368854985822F8D
:1009C00090E00E941202682F888799878A81492FB8
:1009D00090E00E941202682F888799878B81492FA7
:1009E00090E00E941202682F888799878C81492F96
:1009F00090E00E9412029987888744E050E0BE018F
:100A00006F5F7F4F80916802909169020E94BF0AD8
:100A1000D3940D2D10E0F7018481958196958795EB
:100A20000817190708F48CCF42E050E0BE01685F58
:100A30007F4F80916802909169020E94BF0A2996B7
:100A40000FB6F894DEBF0FBECDBFDF91CF911F91DF
:100A50000F91FF90EF90DF90BF90AF909F908F909D
:100A60000895CF93DF93DFB7F89480918A03C1E0B4
:100A700061E08C270E94D40110928C0310928B03AA
:100A8000EEE7F3E08FEF9FEFDC0180839183A28399
:100A9000B38384839583A683B78380879187A28756
:100AA000B387C0938A0386E082BF83B7836083BF26
:100AB00089B7826089BFDFBFDF91CF910895CF935F
:100AC000CFB7F89481E020918B0330918C032330D1
:100AD00031050CF080E062E00E94D40180918B032C
:100AE00090918C03FC01EE0FFF1FEE0FFF1FE258E9
:100AF000FC4F4FEF5FEFBA014083518362837383F2
:100B00009C012F5F3F4F30938C0320938B03CFBF0B
:100B1000CF9108959FB7F894AB0160E070E024E0B6
:100B20008202F0011124E258FC4F4083518362831A
:100B300073839FBF08959FB7F89424E08202F00169
:100B40001124E258FC4F4FEF5FEFBA01408351830D
:100B5000628373839FBF08952FB7F894E82F880F9F
:100B6000FF0BDF01AA0FBB1FAA0FBB1FA258BC4F70
:100B70008D919D910D90BC91A02D892B8A2B8B2B53
:100B800079F4EE0FFF1FEE0FFF1FE258FC4F8FEFBF
:100B90009FEFDC0180839183A283B38381E001C056
:100BA00080E02FBF08951F920F920FB60F9211246D
:100BB0002F933F934F935F936F937F938F939F9365
:100BC000EF93FF9386E082BF20918B0330918C03DB
:100BD0002115310549F180E090E0FC01EE0FFF1F87
:100BE000EE0FFF1FE258FC4F4081518162817381FB
:100BF00014161506160617069CF4FC01EE0FFF1FCF
:100C0000EE0FFF1FE258FC4F4081518162817381DA
:100C10004150510961097109408351836283738393
:100C2000019682179307C9F6FF91EF919F918F91DB
:100C30007F916F915F914F913F912F910F900FBED8
:100C40000F901F901895CF93C82F81E0C43008F003
:100C500080E061E00E94D40126E4C29FC00111241B
:100C600080509F4FCF9108951F93CF93DF93EC0156
:100C7000162F6C817D818A819B81860F971F01973A
:100C80000E94670DAC0181E028813981421753072A
:100C900009F480E062E00E94D40188819981FE011C
:100CA000E80FF91F168301968F739927998388831C
:100CB000DF91CF911F910895FC0180819181428144
:100CC00053818417950718F0841B950B0895248190
:100CD0003581820F931F841B950B0895EF92FF922D
:100CE0000F931F93CF93DF937C01EB018A010E9446
:100CF0005C06F70124813581281B390B81E002173E
:100D0000130708F080E063E00E94D401011511058B
:100D100049F00C0F1D1F6991C7010E9434060C1782
:100D20001D07C9F7DF91CF911F910F91FF90EF90B1
:100D30000895CF93DF93EC010E945C0621E0892B9C
:100D400009F420E064E0822F0E94D4012A813B81D3
:100D5000FE01E20FF31F86812F5F3F4F2F73332772
:100D60003B832A83DF91CF910895EF92FF920F93F7
:100D70001F93CF93DF937C01EB01142F0E945C063D
:100D8000082F81E0011708F480E065E00E94D4019B
:100D9000101708F4012F10E00115110549F00C0F90
:100DA0001D1FC7010E94990689930C171D07C9F7DB
:100DB000DF91CF911F910F91FF90EF900895FC016B
:100DC00013821282118210820895FC0181E0408119
:100DD0005181228133814217530709F080E0089541
:100DE000FC0140E080E05CE8219198E0322F382758
:100DF0008695269530FD85279150C1F74F5F4617A0
:100E000098F30895FF920F931F93CF93DF93EC0114
:100E1000188219821A821B821C821D821E821F82E6
:100E20000E940509F82E81E0F81221C083E30E9498
:100E30006F0917E00E9442092881282B39814A81D5
:100E40005B816C817D818E819F8108E00E949D0D78
:100E5000288339834A835B836C837D838E839F835E
:100E6000115041F70E9442099881892B88838F2D68
:100E7000DF91CF911F910F91FF900895CF93DF9352
:100E80008EEB0E946F090E944209C8E9D3E0888373
:100E90000E94420989830E9442098A830E94420972
:100EA0008B830E9442098C830E9442098D830E9499
:100EB00042098E830E9442098F830E9442098887DB
:100EC000DF91CF9108959F92AF92BF92CF92DF9220
:100ED000EF92FF920F931F93CF93DF93922EA32E47
:100EE000B42EC52ED62EE72EF82E192F85E50E949A
:100EF0006F09C0E0D0E0292D3A2D4B2D5C2D6D2DD2
:100F00007E2D8F2D912F0C2F0E949D0D08E30E94A6
:100F1000B80D822F0E946F092896C034D10559F769
:100F2000DF91CF911F910F91FF90EF90DF90CF90C5
:100F3000BF90AF909F9008950F931F93CF938C0114
:100F40000E940509C82F813009F061C0D8012C9199
:100F500011963C91119712964C91129713965C91B1
:100F6000139714966C91149715967C911597169675
:100F70008C91169717969C910E94630784E40E94B7
:100F80006F09E7EBFBE03197F1F700C000000E942A
:100F90000509C82F8130D9F5D8012C9111963C91C3
:100FA000119712964C91129713965C911397149681
:100FB0006C91149715967C91159716968C911697AF
:100FC00017969C910E9463070E943E0769E088E99A
:100FD00093E00E94F006811119C0E8E9F3E08181F5
:100FE00090E0982F88272081822BD80119969C9316
:100FF0008E93189782811A968C931A9783811B96E9
:101000008C931B9784811C968C9301C0C3E08C2F1A
:10101000CF911F910F910895A89581B5886181BDE9
:1010200011BC0895F894EDE8F3E080E09BE4A0E0C3
:10103000B0E081839283A383B48381E0808380E8DE
:1010400095E2A0E0B0E085839683A783B0870E94F5
:101050000C082FEF83ED90E3215080409040E1F7A2
:1010600000C000008DE893E00E944C0378940E9439
:10107000E40380E090E00895FC01808191819093E9
:101080009703809396030E94AC0A0895FC01738332
:10109000628357834683338722870895CF93DF93F4
:1010A00000D000D0CDB7DEB78FEF9FEFAFEFB0E04D
:1010B00089839A83AB83BC8343E050E0BE016F5FBA
:1010C0007F4F80919603909197030E94BF0A0F90E3
:1010D0000F900F900F90DF91CF910895EF92FF92B4
:1010E0001F93CF93DF9300D000D0CDB7DEB7FC01C4
:1010F0009181492F092E000C550B8081BA01681B84
:10110000710987FD73959B01772324F422273327E8
:10111000261B370B223031050CF45DC07F01908314
:1011200099239CF05F939F9388E492E09F938F9321
:10113000CE0101969F938F930E94D40D0F900F9034
:101140000F900F900F900F9012C05F939F938BE4BE
:1011500092E09F938F93CE0101969F938F930E946D
:10116000D40D0F900F900F900F900F900F90D7010C
:101170001296ED91FC911397E491EC83EE23C1F06C
:1011800010E041E050E0BE016C5F7F4F809196031C
:10119000909197030E94BF0A1F5FD7011296ED91AD
:1011A000FC911397E10FF11DE491EC83E111E9CF7C
:1011B000BE016F5F7F4FFB0101900020E9F731977F
:1011C000AF01461B570B80919603909197030E94A5
:1011D000BF0A0E944E080F900F900F900F90DF9162
:1011E000CF911F91FF90EF900895CF93DF93EC0183
:1011F0000E946E08CE0104960E946E08CE010896E9
:101200000E946E08DF91CF9108959FB7F894D09A0D
:10121000D898EFEEFAE03197F1F700C00000D89AC5
:10122000EBE2F1E03197F1F700C00000D098C899E7
:101230000CC0EFEEFAE03197F1F700C0000089B37F
:10124000882329F09FBF81E0089580E001C082E0FB
:101250009FBF0895D09AD89880E18A95F1F7D89ADF
:10126000D098E0E4EA95F1F7C89B02C080E801C09D
:1012700080E0D09AD89AEBE2F1E03197F1F700C024
:10128000000008951F93CF93DF931FB7F894D09A6F
:10129000D8E080E0C82FC6950E942A098C2BD15037
:1012A000C9F71FBFDF91CF911F910895D09AD898A9
:1012B00080E58A95F1F780EF8A95F1F7D89A8AE070
:1012C0008A95F1F700C00895D09AD89880E58A955C
:1012D000F1F7D89A8AEF8A95F1F700C00895DF9266
:1012E000EF92FF920F931F93CF93DF93DFB6F894A3
:1012F00008E010E0C1E0D0E0E82EF12CC7018C231B
:101300009D23892B19F00E94640902C00E9456098E
:10131000CC0FDD1F0150110989F7DFBEDF91CF919E
:101320001F910F91FF90EF90DF900895DC01CB01AA
:10133000880F991FAA1FBB1F880F991FAA1FBB1FC9
:101340009C01AD01220F331F441F551F220F331F75
:10135000441F551F60E074E284EF90E00E947B0D13
:10136000DA01C9010197A109B10989B9892F9A2F19
:10137000AB2FBB27A7FDBA9580BD1BB888ED8AB9F6
:1013800086E880BD0895DC01CB01880F991FAA1F54
:10139000BB1F880F991FAA1FBB1F9C01AD01220F05
:1013A000331F441F551F60E074E284EF90E00E94F9
:1013B0007B0DDA01C9010197A109B10980B9892F13
:1013C0009A2FAB2FBB27A7FDBA958CBF82E082B9BD
:1013D00088ED81B986E88CBF0895CF93CFB7F89494
:1013E00080912602909127020E94E50681110BC090
:1013F000159B07C080912602909127020E949906B2
:1014000083B9CFBF01C0CFBFCF910895CF93CFB7DE
:10141000F89480911C0290911D020E94E5068111B2
:101420000BC05D9B07C080911C0290911D020E9421
:1014300099068CB9CFBF01C0CFBFCF9108959F92BD
:10144000AF92BF92CF92DF92EF92FF920F931F93D2
:10145000CF93DF93982E6A017B0181E0891508F410
:1014600080E061E00E94D401C92DD0E08E01000F20
:10147000111FCE01880F991F880F991F880F991F80
:10148000080F191F085E1D4FF801908162E081E08E
:1014900089270E94D401992021F0F1E09F16F1F0F4
:1014A00039C080E00E9423069E01220F331F220FC5
:1014B000331F220F331F5E01AA0CBB1C2A0D3B1DDC
:1014C000A901485E5D4F5A01FA019383828381E04E
:1014D0000E942306F501958384831CC082E00E944C
:1014E00023069E01220F331F220F331F220F331FAB
:1014F0005E01AA0CBB1C2A0D3B1DA901485E5D4F75
:101500005A01FA019383828383E00E942306F50146
:1015100095838483CE01880F991FCC0FDD1FCC0FDC
:10152000DD1FCC0FDD1FC80FD91FC85EDD4F9982AC
:10153000EE81FF81C701B601099581E08883C8016A
:10154000DF91CF911F910F91FF90EF90DF90CF909F
:10155000BF90AF909F9008951F93CF93DF93EC01BE
:101560001FB7F8948C819D810E94DF068A819B8140
:101570000E94DF061FBFDF91CF911F910895CF9288
:10158000DF92EF92FF921F93CF93DF93EC016B01F9
:101590007A0181E0452B09F480E063E00E94D401E8
:1015A0001FB7F894A701B6018C819D810E946E0639
:1015B0001FBFE885F9850995DF91CF911F91FF90B5
:1015C000EF90DF90CF900895CF93CFB7F894FC01C0
:1015D000828193810E945C06CFBFCF910895CF9303
:1015E000CFB7F894FC01828193810E94B506CFBFEA
:1015F000CF9108951F920F920FB60F9211242F933F
:101600003F934F935F936F937F938F939F93AF938A
:10161000BF93EF93FF9382B122B192B1382F307113
:10162000822F8870832B9470892B31F0179B0BC00D
:1016300083B11799FDCF07C063B1809124029091C7
:1016400025020E943406FF91EF91BF91AF919F91C7
:101650008F917F916F915F914F913F912F910F905B
:101660000FBE0F901F9018951F920F920FB60F92FA
:1016700011242F933F934F935F936F937F938F9397
:101680009F93AF93BF93EF93FF9380912602909126
:1016900027020E94E506811107C0809126029091E1
:1016A00027020E94990683B9FF91EF91BF91AF91F4
:1016B0009F918F917F916F915F914F913F912F916A
:1016C0000F900FBE0F901F9018951F920F920FB69C
:1016D0000F9211242F933F934F935F936F937F93B8
:1016E0008F939F93AF93BF93EF93FF938BB12BB1E6
:1016F0009BB1382F3071822F8870832B9470892B87
:1017000031F05F9B0BC08CB15F99FDCF07C06CB10E
:1017100080911A0290911B020E943406FF91EF9172
:10172000BF91AF919F918F917F916F915F914F91F9
:101730003F912F910F900FBE0F901F9018951F9201
:101740000F920FB60F9211242F933F934F935F93F5
:101750006F937F938F939F93AF93BF93EF93FF9379
:1017600080911C0290911D020E94E506811107C024
:1017700080911C0290911D020E9499068CB9FF91E4
:10178000EF91BF91AF919F918F917F916F915F91F9
:101790004F913F912F910F900FBE0F901F90189572
:1017A0005058BB27AA270E94E80B0C94C00C0E943B
:1017B000B20C38F00E94B90C20F039F49F3F19F4B4
:1017C00026F40C94AF0C0EF4E095E7FB0C94A90CF6
:1017D000E92F0E94D10C58F3BA17620773078407E8
:1017E000950720F079F4A6F50C94F30C0EF4E0952F
:1017F0000B2EBA2FA02D0B01B90190010C01CA01CB
:10180000A0011124FF27591B99F0593F50F4503E75
:1018100068F11A16F040A22F232F342F4427585F67
:10182000F3CF469537952795A795F0405395C9F77F
:101830007EF41F16BA0B620B730B840BBAF0915037
:10184000A1F0FF0FBB1F661F771F881FC2F70EC0D6
:10185000BA0F621F731F841F48F4879577956795A9
:10186000B795F7959E3F08F0B0CF9395880F08F095
:101870009927EE0F9795879508950E94D90C88F0C7
:101880009F5798F0B92F9927B751B0F0E1F0660F44
:10189000771F881F991F1AF0BA95C9F714C0B13085
:1018A00091F00E94F30CB1E008950C94F30C672FB3
:1018B000782F8827B85F39F0B93FCCF386957795B4
:1018C0006795B395D9F73EF490958095709561959D
:1018D0007F4F8F4F9F4F0895E89409C097FB3EF4C8
:1018E00090958095709561957F4F8F4F9F4F99236D
:1018F000A9F0F92F96E9BB279395F69587957795EB
:101900006795B795F111F8CFFAF4BB0F11F460FFAA
:101910001BC06F5F7F4F8F4F9F4F16C0882311F002
:1019200096E911C0772321F09EE8872F762F05C016
:10193000662371F096E8862F70E060E02AF09A95B1
:10194000660F771F881FDAF7880F9695879597F9A6
:10195000089597F99F6780E870E060E008959FEF31
:1019600080EC089500240A94161617061806090636
:10197000089500240A941216130614060506089505
:10198000092E0394000C11F4882352F0BB0F40F48D
:10199000BF2B11F460FF04C06F5F7F4F8F4F9F4FCD
:1019A000089557FD9058440F551F59F05F3F71F04F
:1019B0004795880F97FB991F61F09F3F79F08795B6
:1019C0000895121613061406551FF2CF4695F1DF3F
:1019D00008C0161617061806991FF1CF86957105CF
:1019E000610508940895E894BB2766277727CB0103
:1019F00097F908950E940D0D0C94C00C0E94B20C32
:101A000038F00E94B90C20F0952311F00C94A90C29
:101A10000C94AF0C11240C94F40C0E94D10C70F3B4
:101A2000959FC1F3950F50E0551F629FF001729F83
:101A3000BB27F00DB11D639FAA27F00DB11DAA1F92
:101A4000649F6627B00DA11D661F829F2227B00DDF
:101A5000A11D621F739FB00DA11D621F839FA00D6A
:101A6000611D221F749F3327A00D611D231F849FBA
:101A7000600D211D822F762F6A2F11249F57504011
:101A80009AF0F1F088234AF0EE0FFF1FBB1F661F8C
:101A9000771F881F91505040A9F79E3F510580F055
:101AA0000C94A90C0C94F40C5F3FE4F3983ED4F32F
:101AB000869577956795B795F795E7959F5FC1F7F9
:101AC000FE2B880F911D9695879597F90895AA1B6F
:101AD000BB1B51E107C0AA1FBB1FA617B70710F019
:101AE000A61BB70B881F991F5A95A9F7809590954B
:101AF000BC01CD010895A1E21A2EAA1BBB1BFD015A
:101B00000DC0AA1FBB1FEE1FFF1FA217B307E407DC
:101B1000F50720F0A21BB30BE40BF50B661F771F34
:101B2000881F991F1A9469F7609570958095909514
:101B30009B01AC01BD01CF0108950F93083090F0D7
:101B4000982F872F762F652F542F432F322F222740
:101B50000850F4CF220F331F441F551F661F771FF5
:101B6000881F991F0A95B2F70F91089597FB10F8F7
:101B7000169400080F93083098F00850232F342F44
:101B8000452F562F672F782F892F902DF4CF05944E
:101B900097958795779567955795479537952795A5
:101BA0000A95AAF70F910895AEE0B0E0EAEDFDE0E6
:101BB0000C9495100D891E8986E08C831A83098305
:101BC0008FEF9FE79E838D83AE01475E5F4F6F89E6
:101BD000788DCE0101960E94F60DEF81F885E00F19
:101BE000F11F10822E96E4E00C94B110ABE0B0E04F
:101BF000ECEFFDE00C9487106C017B018A01FC0185
:101C000017821682838181FFCCC1CE0101963C01EF
:101C1000F6019381F70193FD859193FF81917F01F7
:101C2000882309F4BAC1853239F493FD859193FF75
:101C300081917F01853229F4B60190E00E94ED0F79
:101C4000E7CF912C212C312CFFE1F315D8F08B320A
:101C500079F038F4803279F08332A1F4232D2061B9
:101C60001DC08D3261F0803369F4232D216016C0D0
:101C7000832D8260382EE32DE4603E2E2AC0F32DA2
:101C8000F8601DC037FC2DC020ED280F2A3040F031
:101C90008E32B9F436FC81C1232D2064322E19C056
:101CA00036FE06C08AE0989E200D1124922E11C0A7
:101CB000EAE02E9E200D1124222EF32DF0623F2EFD
:101CC00008C08C3621F4832D8068382E02C08836F7
:101CD00041F4F70193FD859193FF81917F0181117B
:101CE000B3CF982F9F7D9554933028F40C5F1F4FEE
:101CF0009FE399830DC0833631F0833771F08335CC
:101D000009F059C021C0F801808189830E5F1F4FFF
:101D100088248394912C530113C02801F2E04F0EC4
:101D2000511CF801A080B18036FE03C0692D70E01F
:101D300002C06FEF7FEFC5010E94E20F4C018201EC
:101D4000F32DFF773F2E16C0280122E0420E511CD2
:101D5000F801A080B18036FE03C0692D70E002C09A
:101D60006FEF7FEFC5010E94D70F4C01F32DF06894
:101D70003F2E820133FC1BC0822D90E0881699060D
:101D8000B0F4B60180E290E00E94ED0F2A94F4CF07
:101D9000F50137FC859137FE81915F01B60190E036
:101DA0000E94ED0F21102A9421E0821A91088114DB
:101DB000910471F7E8C0843611F0893641F5F801D5
:101DC00037FE07C060817181828193810C5F1F4F54
:101DD00008C060817181072E000C880B990B0E5F83
:101DE0001F4FF32DFF763F2E97FF09C090958095EA
:101DF000709561957F4F8F4F9F4FF0683F2E2AE07F
:101E000030E0A3010E942910882E861845C085372E
:101E100031F4232D2F7EB22E2AE030E025C0932D01
:101E2000997FB92E8F36C1F018F4883579F0B5C096
:101E3000803719F0883721F0B0C0E92FE061BE2E5D
:101E4000B4FE0DC0FB2DF460BF2E09C034FE0AC0E5
:101E5000292F2660B22E06C028E030E005C020E120
:101E600030E002C020E132E0F801B7FE07C0608137
:101E70007181828193810C5F1F4F06C060817181E7
:101E800080E090E00E5F1F4FA3010E942910882E72
:101E90008618FB2DFF773F2E36FE0DC0232D2E7F9B
:101EA000A22E891458F434FE0BC032FC09C0832DD5
:101EB0008E7EA82E05C0B82CA32C03C0B82C01C060
:101EC000B92CA4FE0FC0FE01E80DF11D8081803306
:101ED00021F49A2D997EA92E09C0A2FE06C0B394C2
:101EE000B39404C08A2D867809F0B394A3FC11C082
:101EF000A0FE06C0B21488F4280C922C9B180EC0C9
:101F0000B21460F4B60180E290E00E94ED0FB39449
:101F1000F7CFB21418F42B1802C0982C212CA4FE71
:101F200010C0B60180E390E00E94ED0FA2FE17C042
:101F3000A1FC03C088E790E002C088E590E0B6010C
:101F40000CC08A2D867859F0A1FE02C08BE201C038
:101F500080E2A7FC8DE2B60190E00E94ED0F8914AB
:101F600038F4B60180E390E00E94ED0F9A94F7CF29
:101F70008A94F301E80DF11D8081B60190E00E9482
:101F8000ED0F8110F5CF222009F442CEB60180E298
:101F900090E00E94ED0F2A94F6CFF601868197819A
:101FA00002C08FEF9FEF2B96E2E10C94A310FC018F
:101FB0000590615070400110D8F7809590958E0F74
:101FC0009F1F0895FC016150704001900110D8F7E7
:101FD000809590958E0F9F1F08950F931F93CF9319
:101FE000DF93FB01238121FD03C08FEF9FEF2CC006
:101FF00022FF16C04681578124813581421753073D
:1020000044F4A081B1819D012F5F3F4F3183208334
:102010008C93268137812F5F3F4F3783268314C0EF
:102020008B01EC01FB010084F185E02D0995892BE2
:10203000E1F6D80116968D919C9117970196179607
:102040009C938E931697CE01DF91CF911F910F91A4
:102050000895FA01AA27283051F1203181F1E8943E
:102060006F936E7F6E5F7F4F8F4F9F4FAF4FB1E08B
:102070003ED0B4E03CD0670F781F891F9A1FA11D86
:10208000680F791F8A1F911DA11D6A0F711D811D87
:10209000911DA11D20D009F468943F912AE0269F4C
:1020A00011243019305D3193DEF6CF010895462FAB
:1020B0004770405D4193B3E00FD0C9F7F6CF462F8C
:1020C0004F70405D4A3318F0495D31FD40524193F5
:1020D00002D0A9F7EACFB4E0A695979587957795B2
:1020E0006795BA95C9F700976105710508959B0139
:1020F000AC010A2E06945795479537952795BA95C2
:10210000C9F7620F731F841F951FA01D08952F929A
:102110003F924F925F926F927F928F929F92AF9277
:10212000BF92CF92DF92EF92FF920F931F93CF93C4
:10213000DF93CDB7DEB7CA1BDB0B0FB6F894DEBF5B
:102140000FBECDBF09942A88398848885F846E8481
:102150007D848C849B84AA84B984C884DF80EE80CB
:10216000FD800C811B81AA81B981CE0FD11D0FB6D4
:10217000F894DEBF0FBECDBFED010895F894FFCFF8
:10218000000000004000000000000000000000000F
:10219000000000000000000000000000000000003F
:1021A000000000000000000000000000000000002F
:1021B000000000000000000000000000000000001F
:1021C00000000000000000000000400000000000CF
:1021D00000000000000000000000000000000000FF
:1021E00000000000000000000000000000000000EF
:1021F00000000000000000000000000000000000DF
:1022000000000000000000000000000000000000CE
:10221000400000000000000000000000000000007E
:1022200000000000000000000000000000000000AE
:10223000000000000000000000000000000000009E
:10224000000000000000000000000000000000008E
:10225000000000000000400000000000000000003E
:10226000000000000000000000000000000000006E
:10227000000000000000000000000000000000005E
:10228000000000000000000000000000000000004E
:10229000000000000000000000000000000096099F
:1022A000060A000100000000C309ED093503DB0246
:1022B000D1026B026C026D026D0235036D02CA021F
:1022C0006D026D0230049C02256400252B64000021
:00000001FF
