:100000000C9438000C9455000C9455000C94550039
:100010000C9455000C9455000C9455000C9455000C
:100020000C9455000C9455000C9455000C945500FC
:100030000C9455000C9455000C9455000C945500EC
:100040000C9455000C9455000C9455000C9424020B
:100050000C94CA010C9455000C9455000C944D025C
:100060000C94F3010C9455000C9455000C9455001D
:1000700011241FBECFEFD4E0DEBFCDBF11E0A0E062
:10008000B1E0ECE3F8E002C005900D92AE31B107AB
:10009000D9F721E0AEE1B1E001C01D92A632B2076E
:1000A000E1F70E94BC000C941C040C9400000F9318
:1000B0001F93CF93DF938C0168E070E081E090E0C4
:1000C0000E94D302EC01B80181E090E00E94D302CB
:1000D0009F838E831D830C83CE01DF91CF911F916F
:1000E0000F910895FC01A681B78180819181A80FAD
:1000F000B91F6C93808191810196648175810E9402
:100100007E02918380830895EF92FF920F931F9355
:10011000CF93DF937C01EB014115510551F08B0129
:10012000040F151F6991C7010E9472000C171D076B
:10013000C9F7DF91CF911F910F91FF90EF90089534
:10014000FC0182819381A681B781A80FB91F2C91F0
:100150000196648175810E947E0293838283822F3F
:100160000895FC0181E04081518122813381421751
:10017000530709F080E008958FEF81BB40E850E01D
:1001800060E875E281E00E945F0190931F01809317
:100190001E0140E850E060E875E280E00E945F01E7
:1001A0009093210180932001789443E050E066E031
:1001B00071E080911E0190911F010E94B3012FEF09
:1001C00087EA91E6215080409040E1F700C00000AE
:1001D000ECCF82959295907F9827807F98279C01FD
:1001E00040E050E060E074E284EF90E00E94920210
:1001F000DA01C9010197A109B10989B9892F9A2F9B
:10020000AB2FBB27A7FDBA9580BD1BB888ED8AB977
:1002100086E080BD089582959295907F9827807F93
:1002200098279C0140E050E060E074E284EF90E0A9
:100230000E949202DA01C9010197A109B10980B9AE
:10024000892F9A2FAB2FBB27A7FDBA958CBF12B869
:1002500088ED81B986E08CBF0895CF93CFB7F8942D
:1002600080911701909118010E94B10081110BC07B
:10027000159B07C080911701909118010E94A00062
:1002800083B9CFBF01C0CFBFCF910895CF93CFB770
:10029000F89480910D0190910E010E94B10081119E
:1002A0000BC05D9B07C080910D0190910E010E94D3
:1002B000A0008CB9CFBF01C0CFBFCF9108959F924E
:1002C000AF92BF92CF92DF92EF92FF920F931F9364
:1002D000CF93DF93982E6B017A0121E0281710F459
:1002E0000E941004082F10E05801AA0CBB1CC80182
:1002F000880F991F880F991F880F991F8A0D9B1DC2
:10030000FC01E75FFE4F5F01808181110E941004B4
:10031000CA010E945700E801CC0FDD1F000F111F1A
:10032000000F111F000F111FC00FD11FC75FDE4F3D
:100330009B838A83C7010E9457009D838C83998287
:10034000EE81FF81C601099581E08883C501DF91B7
:10035000CF911F910F91FF90EF90DF90CF90BF90C2
:10036000AF909F9008951F93CF93DF93EC014115B9
:10037000510511F40E9410041FB7F8948C819D81DF
:100380000E9484001FBFE885F9850995DF91CF9110
:100390001F9108951F920F920FB60F9211242F9361
:1003A0003F934F935F936F937F938F939F93AF93FD
:1003B000BF93EF93FF9363B1809115019091160164
:1003C0000E947200FF91EF91BF91AF919F918F9129
:1003D0007F916F915F914F913F912F910F900FBE41
:1003E0000F901F9018951F920F920FB60F92112425
:1003F0002F933F934F935F936F937F938F939F932D
:10040000AF93BF93EF93FF938091170190911801E1
:100410000E94B100811107C08091170190911801CD
:100420000E94A00083B9FF91EF91BF91AF919F917E
:100430008F917F916F915F914F913F912F910F908D
:100440000FBE0F901F9018951F920F920FB60F922C
:1004500011242F933F934F935F936F937F938F93C9
:100460009F93AF93BF93EF93FF936CB180910B0178
:1004700090910C010E947200FF91EF91BF91AF919A
:100480009F918F917F916F915F914F913F912F91AC
:100490000F900FBE0F901F9018951F920F920FB6DE
:1004A0000F9211242F933F934F935F936F937F93FA
:1004B0008F939F93AF93BF93EF93FF9380910D0121
:1004C00090910E010E94B100811107C080910D0131
:1004D00090910E010E94A0008CB9FF91EF91BF9105
:1004E000AF919F918F917F916F915F914F913F91CC
:1004F0002F910F900FBE0F901F901895AA1BBB1B3A
:1005000051E107C0AA1FBB1FA617B70710F0A61B13
:10051000B70B881F991F5A95A9F780959095BC0134
:10052000CD010895052E97FB1EF400940E94A902A8
:1005300057FD07D00E94B10207FC03D04EF40C9483
:10054000A90250954095309521953F4F4F4F5F4FF1
:10055000089590958095709561957F4F8F4F9F4F2F
:100560000895A1E21A2EAA1BBB1BFD010DC0AA1FF4
:10057000BB1FEE1FFF1FA217B307E407F50720F00C
:10058000A21BB30BE40BF50B661F771F881F991F87
:100590001A9469F760957095809590959B01AC01D0
:1005A000BD01CF0108950F931F93CF93DF93869FD3
:1005B0008001879F100D969F100D1124C8010E9485
:1005C000EF02EC01009729F0A80160E070E00E94C2
:1005D0001504CE01DF91CF911F910F9108950F93D4
:1005E0001F93CF93DF938230910510F482E090E067
:1005F000E0912401F091250120E030E0A0E0B0E09E
:10060000309719F1408151810281138148175907B0
:10061000C8F08417950769F4109731F012960C937F
:10062000129713961C9327C0009324011093250161
:1006300022C02115310519F04217530718F49A0109
:10064000BD01EF01DF01F801DBCF21153105F9F024
:10065000281B390B2430310580F48A819B81611578
:10066000710521F0FB019383828304C090932501DF
:1006700080932401FE01329644C0FE01E20FF31F75
:100680008193919322503109398328833AC0209174
:10069000220130912301232B41F42091020130915A
:1006A0000301309323012093220120910001309116
:1006B00001012115310541F42DB73EB740910401E8
:1006C00050910501241B350BE0912201F09123018B
:1006D000E217F307A0F42E1B3F0B2817390778F019
:1006E000AC014E5F5F4F2417350748F04E0F5F1F78
:1006F00050932301409322018193919302C0E0E043
:10070000F0E0CF01DF91CF911F910F910895CF932A
:10071000DF93009709F481C0FC01329713821282A3
:10072000A0912401B0912501109781F4208131819D
:10073000820F931F2091220130912301281739073E
:1007400051F5F0932301E093220167C0ED0120E011
:1007500030E0CE17DF0740F44A815B819E014115EE
:100760005105F1F0EA01F5CFD383C2834081518175
:10077000840F951FC817D90759F488819981840F70
:10078000951F0296918380838A819B8193838283C4
:100790002115310529F4F0932501E09324013DC092
:1007A000E901FB83EA8349915991C40FD51FEC17E6
:1007B000FD0761F480819181840F951F0296E90104
:1007C00099838883828193819B838A83E0E0F0E030
:1007D00012968D919C911397009719F0FD01DC0101
:1007E000F7CF8D919C9111979D012E5F3F4F820F06
:1007F000931F20912201309123012817390769F4B2
:10080000309729F4109225011092240102C013821E
:100810001282B0932301A0932201DF91CF9108951A
:1008200081E090E0F8940C941C04DC0101C06D930D
:0C08300041505040E0F70895F894FFCFCD
:10083C00000026012000FFAAEA000000000000E9E9
:0E084C000046010001000000000B012D01001C
:00000001FF
