:100000000C94B5000C94D2000C94D2000C94D20045
:100010000C94D2000C94D2000C94D2000C94D20018
:100020000C94D2000C94D2000C94D2000C94D20008
:100030000C94D2000C94D2000C94D2000C94D200F8
:100040000C94D2000C947D030C94D2000C940F09F4
:100050000C94A4080C94D2000C94D2000C9449097E
:100060000C94DE080C94D2000C94D2000C94D200B4
:100070006E31382E76616C3D006E31392E76616CB2
:100080003D0070392E7069633D006E31362E766109
:100090006C3D006E31372E76616C3D0070382E70ED
:1000A00069633D006E31342E76616C3D006E3135F2
:1000B0002E76616C3D0070372E7069633D006E31A5
:1000C000322E76616C3D006E31332E76616C3D00D0
:1000D00070362E7069633D006E31302E76616C3D56
:1000E000006E31312E76616C3D0070352E70696383
:1000F0003D006E382E76616C3D006E392E76616C57
:100100003D0070342E7069633D006E362E76616C52
:100110003D006E372E76616C3D0070332E70696342
:100120003D006E342E76616C3D006E352E76616C2E
:100130003D0070322E7069633D006E322E76616C28
:100140003D006E332E76616C3D0070312E70696318
:100150003D006E302E76616C3D006E312E76616C06
:100160003D0070302E7069633D0011241FBECFEF3B
:10017000D4E0DEBFCDBF12E0A0E0B1E0EAEFFBE1EA
:1001800002C005900D92A835B107D9F723E0A8E584
:10019000B2E001C01D92AA3AB207E1F70E94BC0585
:1001A0000C94FB0D0C94000081111BC06623C1F060
:1001B00091E095BB2FEF39E648E1215030404040B7
:1001C000E1F700C0000015BA2FEF39E648E12150F1
:1001D00030404040E1F700C000008F5F6813E9CF76
:1001E000FFCF089580E190E09093590280935802E8
:1001F0000895CF93C82FE8E5F2E060817181848192
:100200009581860F971F01970E94A40AAC0181E097
:10021000228133814217530709F480E061E00E9494
:10022000D400E8E5F2E082819381DC01A85ABD4F59
:100230001696CC930196608171810E94A40A9383E3
:100240008283CF910895E8E5F2E08481958122814F
:1002500033812817390769F0DC01A85ABD4F16967B
:100260002C910196608171810E94A40A95838483F8
:1002700001C020E0822F0895089508950895CF9336
:10028000DF93FC012585263029F5EB0180859185DA
:10029000929582958F7089279F70892789836085C1
:1002A0006F7070E080E090E00E94A90920E030E0EB
:1002B00040E85DE30E940F0A20E030E048EC52E4A1
:1002C0000E940F0A0E947A096D8381E08987CE011E
:1002D0000E949F06DF91CF910895CF92DF92EF9217
:1002E000FF920F931F93CF93DF93CAEED2E002E702
:1002F00012E00F2EF6E7EF2EF3E0FF2EF02D8D85A6
:10030000863051F4CE010E944605813029F4B801AF
:100310008C2F9D2F0E943F012E96045F1F4FCE15FC
:10032000DF0569F7DF91CF911F910F91FF90EF905B
:10033000DF90CF900895809178030E94450310923A
:100340007A03089564EF71E0809178030E9434038A
:1003500081E080937A03089520916F0230E0220FAC
:10036000331FC901880F991F880F991F880F991F84
:10037000821B930B86519D4F0E94AC048130A1F5E6
:1003800020916F0230E0220F331FC901880F991F9F
:10039000880F991F880F991F821B930B86519D4FC1
:1003A00026E0FC0125870E944605813071F5809189
:1003B0006F0290E09C01220F331FB901680F791F73
:1003C000660F771F660F771F6E587D4FC901880F24
:1003D000991F880F991F880F991F821B930B8651B5
:1003E0009D4F0E943F01089580916F0290E0880F19
:1003F000991FFC01EE0FFF1FEE0FFF1FEE0FFF1FF7
:10040000E81BF90BE651FD4F1586089580917002A7
:10041000909171020E948E08029770F042E050E0C5
:100420006EE672E080917002909171020E949908CC
:1004300080916E020E94F900089590937703809353
:100440007603FC01418152816381748181E00E94C5
:10045000C9079093710280937002E0917603F09146
:100460007703458156816781708580E00E94C907C6
:1004700080E792E00E94E60580E190E00E94F200B1
:1004800022E631E04AE551E062E571E082E792E080
:100490000E94F0052AE431E042E451E06AE371E0B1
:1004A0008EE792E00E94F00522E331E04AE251E05B
:1004B00062E271E08AE892E00E94F0052AE131E010
:1004C00042E151E06AE071E086E992E00E94F005C5
:1004D00022E031E04AEF50E062EF70E082EA92E021
:1004E0000E94F0052AEE30E041EE50E068ED70E049
:1004F0008EEA92E00E94F00520ED30E047EC50E0FB
:100500006EEB70E08AEB92E00E94F00526EB30E0A3
:100510004DEA50E064EA70E086EC92E00E94F0055B
:100520002CE930E043E950E06AE870E082ED92E0C7
:100530000E94F00522E830E049E750E060E770E013
:100540008EED92E00E94F0050E94DB020E940903FA
:10055000809378038FE084BB0895809178030E9494
:1005600045030E9423018093790320917A0330E0B0
:10057000F901EE0FFF1FEE0FFF1FEE0FFF1FE20F3F
:10058000F31FE80FF11DEE0FFF1FE45DFD4F01901B
:10059000F081E02D0995809178030E94560388230D
:1005A00001F388E00E94F90064EF71E08091780324
:1005B0000E943403D6CFCF93DF93DFB7F8948091B6
:1005C0008703C1E061E08C270E94D4001092890368
:1005D00010928803EBE7F3E08FEF9FEFDC0180835D
:1005E0009183A283B38384839583A683B783808713
:1005F0009187A287B387C093870386E082BF83B7C2
:10060000836083BF89B7826089BFDFBFDF91CF91ED
:100610000895CF93CFB7F89481E02091880330916B
:100620008903233031050CF080E062E00E94D400A1
:100630008091880390918903FC01EE0FFF1FEE0F5C
:10064000FF1FE558FC4F4FEF5FEFBA014083518326
:10065000628373839C012F5F3F4F30938903209304
:100660008803CFBFCF9108959FB7F894AB0160E0A6
:1006700070E024E08202F0011124E558FC4F408331
:100680005183628373839FBF08959FB7F89424E0DA
:100690008202F0011124E558FC4F4FEF5FEFBA01E1
:1006A00040835183628373839FBF08952FB7F8946B
:1006B000E82F880FFF0BDF01AA0FBB1FAA0FBB1F7C
:1006C000A558BC4F8D919D910D90BC91A02D892B6B
:1006D0008A2B8B2B79F4EE0FFF1FEE0FFF1FE558CF
:1006E000FC4F8FEF9FEFDC0180839183A283B38364
:1006F00081E001C080E02FBF08951F920F920FB6D6
:100700000F9211242F933F934F935F936F937F9397
:100710008F939F93EF93FF9386E082BF209188038E
:10072000309189032115310549F180E090E0FC0109
:10073000EE0FFF1FEE0FFF1FE558FC4F4081518168
:100740006281738114161506160617069CF4FC01C7
:10075000EE0FFF1FEE0FFF1FE558FC4F4081518148
:10076000628173814150510961097109408351834C
:1007700062837383019682179307C9F6FF91EF9105
:100780009F918F917F916F915F914F913F912F91A9
:100790000F900FBE0F901F901895CF93C82F81E038
:1007A000C43008F080E061E00E94D40026E4C29FDB
:1007B000C001112480509F4FCF9108951F93CF9374
:1007C000DF93EC01162F6C817D818A819B81860FDE
:1007D000971F01970E94A40AAC0181E0288139810A
:1007E0004217530709F480E062E00E94D400888138
:1007F0009981FE01E80FF91F168301968F739927DF
:1008000099838883DF91CF911F910895FC018081A6
:100810009181428153818417950718F0841B950BB1
:10082000089524813581820F931F841B950B0895B1
:10083000EF92FF920F931F93CF93DF937C01EB0115
:100840008A010E940604F70124813581281B390B97
:1008500081E00217130708F080E063E00E94D400F3
:100860000115110549F00C0F1D1F6991C7010E9468
:10087000DE030C171D07C9F7DF91CF911F910F9170
:10088000FF90EF900895CF93DF93EC010E94060450
:1008900021E0892B09F420E064E0822F0E94D4003B
:1008A0002A813B81FE01E20FF31F86812F5F3F4FBC
:1008B0002F7333273B832A83DF91CF910895EF92E3
:1008C000FF920F931F93CF93DF937C01EB01142FC3
:1008D0000E940604082F81E0011708F480E065E01B
:1008E0000E94D400101708F4012F10E00115110523
:1008F00049F00C0F1D1FC7010E94430489930C1778
:100900001D07C9F7DF91CF911F910F91FF90EF90D5
:100910000895FC0113821282118210820895FC0155
:1009200081E040815181228133814217530709F0D0
:1009300080E00895FC0140E080E05CE8219198E0CF
:10094000322F38278695269530FD85279150C1F79F
:100950004F5F461798F30895FF920F931F93CF931D
:10096000DF93EC01188219821A821B821C821D827D
:100970001E821F820E94AF06F82E81E0F81221C06D
:1009800083E30E94190717E00E94EC062881282BB8
:1009900039814A815B816C817D818E819F8108E0F4
:1009A0000E94DA0A288339834A835B836C837D83C0
:1009B0008E839F83115041F70E94EC069881892B0A
:1009C00088838F2DDF91CF911F910F91FF90089514
:1009D000CF93DF938EEB0E9419070E94EC06C5E9C6
:1009E000D3E088830E94EC0689830E94EC068A8308
:1009F0000E94EC068B830E94EC068C830E94EC061E
:100A00008D830E94EC068E830E94EC068F830E94E9
:100A1000EC068887DF91CF9108959F92AF92BF92A5
:100A2000CF92DF92EF92FF920F931F93CF93DF93BA
:100A3000922EA32EB42EC52ED62EE72EF82E192FC9
:100A400085E50E941907C0E0D0E0292D3A2D4B2DF5
:100A50005C2D6D2D7E2D8F2D912F0C2F0E94DA0A8B
:100A600008E30E94F50A822F0E9419072896C034D5
:100A7000D10559F7DF91CF911F910F91FF90EF9022
:100A8000DF90CF90BF90AF909F9008950F931F93EA
:100A9000CF938C010E94AF06C82F813009F061C04E
:100AA000D8012C9111963C91119712964C91129766
:100AB00013965C91139714966C91149715967C91EC
:100AC000159716968C91169717969C910E940D0576
:100AD00084E40E941907E7EBFBE03197F1F700C0CF
:100AE00000000E94AF06C82F8130D9F5D8012C91A3
:100AF00011963C91119712964C91129713965C9116
:100B0000139714966C91149715967C9115971696D9
:100B10008C91169717969C910E940D050E94E804EF
:100B200069E085E993E00E949A04811119C0E5E922
:100B3000F3E0818190E0982F88272081822BD801D3
:100B400019969C938E93189782811A968C931A9774
:100B500083811B968C931B9784811C968C9301C078
:100B6000C3E08C2FCF911F910F910895A89581B567
:100B7000886181BD11BC0895F894EAE8F3E080E053
:100B80009BE4A0E0B0E081839283A383B48381E0FF
:100B9000808380E895E2A0E0B0E085839683A78318
:100BA000B0870E94B6052FEF83ED90E3215080407F
:100BB0009040E1F700C000008AE893E00E941D0227
:100BC00078940E94AD0280E090E00895FC0180815D
:100BD000918190939403809393030E945608089503
:100BE000FC0173836283578346833387228708958A
:100BF000CF93DF9300D000D0CDB7DEB78FEF9FEF5C
:100C0000AFEFB0E089839A83AB83BC8343E050E0CD
:100C1000BE016F5F7F4F80919303909194030E9478
:100C200069080F900F900F900F90DF91CF9108956A
:100C3000EF92FF921F93CF93DF9300D000D0CDB7F8
:100C4000DEB7FC019181492F092E000C550B8081E4
:100C5000BA01681B710987FD73959B01772324F402
:100C600022273327261B370B223031050CF45DC0B9
:100C70007F01908399239CF05F939F9380E592E09E
:100C80009F938F93CE0101969F938F930E94110B98
:100C90000F900F900F900F900F900F9012C05F93D6
:100CA0009F9383E592E09F938F93CE0101969F934C
:100CB0008F930E94110B0F900F900F900F900F9039
:100CC0000F90D7011296ED91FC911397E491EC836C
:100CD000EE23C1F010E041E050E0BE016C5F7F4FB9
:100CE00080919303909194030E9469081F5FD7013C
:100CF0001296ED91FC911397E10FF11DE491EC83B5
:100D0000E111E9CFBE016F5F7F4FFB010190002031
:100D1000E9F73197AF01461B570B809193039091F0
:100D200094030E9469080E94F8050F900F900F909D
:100D30000F90DF91CF911F91FF90EF900895CF9387
:100D4000DF93EC010E941806CE0104960E9418065B
:100D5000CE0108960E941806DF91CF9108959FB7A3
:100D6000F894D09AD898EFEEFAE03197F1F700C0F6
:100D70000000D89AEBE2F1E03197F1F700C00000F3
:100D8000D098C8990CC0EFEEFAE03197F1F700C0A7
:100D9000000089B3882329F09FBF81E0089580E097
:100DA00001C082E09FBF0895D09AD89880E18A95CB
:100DB000F1F7D89AD098E0E4EA95F1F7C89B02C021
:100DC00080E801C080E0D09AD89AEBE2F1E0319758
:100DD000F1F700C0000008951F93CF93DF931FB772
:100DE000F894D09AD8E080E0C82FC6950E94D40627
:100DF0008C2BD150C9F71FBFDF91CF911F91089560
:100E0000D09AD89880E58A95F1F780EF8A95F1F726
:100E1000D89A8AE08A95F1F700C00895D09AD898B8
:100E200080E58A95F1F7D89A8AEF8A95F1F700C0A4
:100E30000895DF92EF92FF920F931F93CF93DF936A
:100E4000DFB6F89408E010E0C1E0D0E0E82EF12C25
:100E5000C7018C239D23892B19F00E940E0702C025
:100E60000E940007CC0FDD1F0150110989F7DFBE7A
:100E7000DF91CF911F910F91FF90EF90DF90089538
:100E8000DC01CB01880F991FAA1FBB1F880F991F78
:100E9000AA1FBB1F9C01AD01220F331F441F551F0A
:100EA000220F331F441F551F60E074E284EF90E06F
:100EB0000E94B80ADA01C9010197A109B10989B9EB
:100EC000892F9A2FAB2FBB27A7FDBA9580BD1BB8E2
:100ED00088ED8AB986E080BD0895DC01CB01880FDA
:100EE000991FAA1FBB1F880F991FAA1FBB1F9C0118
:100EF000AD01220F331F441F551F60E074E284EFE1
:100F000090E00E94B80ADA01C9010197A109B1096C
:100F100080B9892F9A2FAB2FBB27A7FDBA958CBF1D
:100F200082E082B988ED81B986E88CBF0895CF93BD
:100F3000CFB7F89480912602909127020E948F04E7
:100F400081110BC0159B07C080912602909127024A
:100F50000E94430483B9CFBF01C0CFBFCF91089592
:100F6000CF93CFB7F89480911C0290911D020E94FC
:100F70008F0481110BC05D9B07C080911C02909172
:100F80001D020E9443048CB9CFBF01C0CFBFCF91D7
:100F900008959F92AF92BF92CF92DF92EF92FF920D
:100FA0000F931F93CF93DF93982E6A017B0181E00B
:100FB000891508F480E061E00E94D400C92DD0E0DA
:100FC0008E01000F111FCE01880F991F880F991FE6
:100FD000880F991F080F191F085E1D4FF801908197
:100FE00062E081E089270E94D400992021F0F1E09D
:100FF0009F16F1F039C080E00E94CD039E01220FC0
:10100000331F220F331F220F331F5E01AA0CBB1C9C
:101010002A0D3B1DA901485E5D4F5A01FA019383D9
:10102000828381E00E94CD03F501958384831CC0F7
:1010300082E00E94CD039E01220F331F220F331F37
:10104000220F331F5E01AA0CBB1C2A0D3B1DA901F8
:10105000485E5D4F5A01FA019383828383E00E94C8
:10106000CD03F50195838483CE01880F991FCC0FA2
:10107000DD1FCC0FDD1FCC0FDD1FC80FD91FC85ED1
:10108000DD4F9982EE81FF81C701B601099581E0AC
:101090008883C801DF91CF911F910F91FF90EF904E
:1010A000DF90CF90BF90AF909F9008951F93CF9304
:1010B000DF93EC011FB7F8948C819D810E94890415
:1010C0008A819B810E9489041FBFDF91CF911F916C
:1010D0000895CF92DF92EF92FF921F93CF93DF9309
:1010E000EC016B017A0181E0452B09F480E063E0BB
:1010F0000E94D4001FB7F894A701B6018C819D818E
:101100000E9418041FBFE885F9850995DF91CF91EA
:101110001F91FF90EF90DF90CF900895CF93CFB7BE
:10112000F894FC01828193810E940604CFBFCF9185
:101130000895CF93CFB7F894FC01828193810E94E8
:101140005F04CFBFCF9108951F920F920FB60F92F9
:1011500011242F933F934F935F936F937F938F93BC
:101160009F93AF93BF93EF93FF9382B122B192B15C
:10117000382F3071822F8870832B9470892B31F037
:10118000179B0BC083B11799FDCF07C063B1809146
:101190002402909125020E94DE03FF91EF91BF91FE
:1011A000AF919F918F917F916F915F914F913F91FF
:1011B0002F910F900FBE0F901F9018951F920F92B6
:1011C0000FB60F9211242F933F934F935F936F931A
:1011D0007F938F939F93AF93BF93EF93FF938091F0
:1011E0002602909127020E948F04811107C08091EE
:1011F0002602909127020E94430483B9FF91EF9148
:10120000BF91AF919F918F917F916F915F914F911E
:101210003F912F910F900FBE0F901F9018951F9226
:101220000F920FB60F9211242F933F934F935F931A
:101230006F937F938F939F93AF93BF93EF93FF939E
:101240008BB12BB19BB1382F3071822F8870832BDB
:101250009470892B31F05F9B0BC08CB15F99FDCFEF
:1012600007C06CB180911A0290911B020E94DE03AC
:10127000FF91EF91BF91AF919F918F917F916F916E
:101280005F914F913F912F910F900FBE0F901F9044
:1012900018951F920F920FB60F9211242F933F9320
:1012A0004F935F936F937F938F939F93AF93BF936E
:1012B000EF93FF9380911C0290911D020E948F0476
:1012C000811107C080911C0290911D020E9443046D
:1012D0008CB9FF91EF91BF91AF919F918F917F91C9
:1012E0006F915F914F913F912F910F900FBE0F9093
:1012F0001F9018950E94EE0988F09F5798F0B92F1B
:101300009927B751B0F0E1F0660F771F881F991F3A
:101310001AF0BA95C9F714C0B13091F00E94080ACA
:10132000B1E008950C94080A672F782F8827B85FDA
:1013300039F0B93FCCF3869577956795B395D9F792
:101340003EF490958095709561957F4F8F4F9F4F9C
:101350000895E89409C097FB3EF4909580957095A8
:1013600061957F4F8F4F9F4F9923A9F0F92F96E9F1
:10137000BB279395F695879577956795B795F11166
:10138000F8CFFAF4BB0F11F460FF1BC06F5F7F4F03
:101390008F4F9F4F16C0882311F096E911C0772315
:1013A00021F09EE8872F762F05C0662371F096E81E
:1013B000862F70E060E02AF09A95660F771F881FED
:1013C000DAF7880F9695879597F9089557FD905805
:1013D000440F551F59F05F3F71F04795880F97FBF9
:1013E000991F61F09F3F79F08795089512161306B3
:1013F0001406551FF2CF4695F1DF08C016161706E2
:101400001806991FF1CF8695710561050894089516
:10141000E894BB2766277727CB0197F908950E94A8
:10142000220A0C94930A0E94850A38F00E948C0AC2
:1014300020F0952311F00C947C0A0C94820A11245C
:101440000C94090A0E94E60970F3959FC1F3950F69
:1014500050E0551F629FF001729FBB27F00DB11D38
:10146000639FAA27F00DB11DAA1F649F6627B00DC8
:10147000A11D661F829F2227B00DA11D621F739FB1
:10148000B00DA11D621F839FA00D611D221F749FBF
:101490003327A00D611D231F849F600D211D822F06
:1014A000762F6A2F11249F5750409AF0F1F088232D
:1014B0004AF0EE0FFF1FBB1F661F771F881F91505A
:1014C0005040A9F79E3F510580F00C947C0A0C9483
:1014D000090A5F3FE4F3983ED4F3869577956795C4
:1014E000B795F795E7959F5FC1F7FE2B880F911D84
:1014F0009695879597F9089597F99F6780E870E02A
:1015000060E008959FEF80EC089500240A94161679
:10151000170618060906089500240A9412161306E1
:10152000140605060895092E0394000C11F488236F
:1015300052F0BB0F40F4BF2B11F460FF04C06F5F8B
:101540007F4F8F4F9F4F0895AA1BBB1B51E107C0D0
:10155000AA1FBB1FA617B70710F0A61BB70B881F43
:10156000991F5A95A9F780959095BC01CD010895D2
:10157000A1E21A2EAA1BBB1BFD010DC0AA1FBB1F97
:10158000EE1FFF1FA217B307E407F50720F0A21B09
:10159000B30BE40BF50B661F771F881F991F1A9476
:1015A00069F760957095809590959B01AC01BD01A0
:1015B000CF0108950F93083090F0982F872F762F42
:1015C000652F542F432F322F22270850F4CF220F9C
:1015D000331F441F551F661F771F881F991F0A95C9
:1015E000B2F70F91089597FB10F8169400080F9327
:1015F000083098F00850232F342F452F562F672F8F
:10160000782F892F902DF4CF05949795879577950E
:10161000679557954795379527950A95AAF70F919E
:101620000895AEE0B0E0E7E1FBE00C94D20D0D8947
:101630001E8986E08C831A8309838FEF9FE79E8340
:101640008D83AE01475E5F4F6F89788DCE01019625
:101650000E94330BEF81F885E00FF11F10822E9668
:10166000E4E00C94EE0DABE0B0E0E9E3FBE00C94B9
:10167000C40D6C017B018A01FC01178216828381F3
:1016800081FFCCC1CE0101963C01F6019381F701A7
:1016900093FD859193FF81917F01882309F4BAC15D
:1016A000853239F493FD859193FF81917F018532D5
:1016B00029F4B60190E00E942A0DE7CF912C212C4D
:1016C000312CFFE1F315D8F08B3279F038F4803209
:1016D00079F08332A1F4232D20611DC08D3261F099
:1016E000803369F4232D216016C0832D8260382E4B
:1016F000E32DE4603E2E2AC0F32DF8601DC037FCB8
:101700002DC020ED280F2A3040F08E32B9F436FC7F
:1017100081C1232D2064322E19C036FE06C08AE016
:10172000989E200D1124922E11C0EAE02E9E200DCD
:101730001124222EF32DF0623F2E08C08C3621F4A6
:10174000832D8068382E02C0883641F4F70193FD5E
:10175000859193FF81917F018111B3CF982F9F7D58
:101760009554933028F40C5F1F4F9FE399830DC06D
:10177000833631F0833771F0833509F059C021C0C9
:10178000F801808189830E5F1F4F88248394912CF8
:10179000530113C02801F2E04F0E511CF801A08044
:1017A000B18036FE03C0692D70E002C06FEF7FEF9D
:1017B000C5010E941F0D4C018201F32DFF773F2EC2
:1017C00016C0280122E0420E511CF801A080B18011
:1017D00036FE03C0692D70E002C06FEF7FEFC501D8
:1017E0000E94140D4C01F32DF0683F2E820133FC52
:1017F0001BC0822D90E088169906B0F4B60180E2F5
:1018000090E00E942A0D2A94F4CFF50137FC8591CF
:1018100037FE81915F01B60190E00E942A0D2110F0
:101820002A9421E0821A91088114910471F7E8C08A
:10183000843611F0893641F5F80137FE07C0608122
:101840007181828193810C5F1F4F08C0608171811B
:10185000072E000C880B990B0E5F1F4FF32DFF76A0
:101860003F2E97FF09C090958095709561957F4FA9
:101870008F4F9F4FF0683F2E2AE030E0A3010E9477
:10188000660D882E861845C0853731F4232D2F7EAE
:10189000B22E2AE030E025C0932D997FB92E8F36E5
:1018A000C1F018F4883579F0B5C0803719F0883761
:1018B00021F0B0C0E92FE061BE2EB4FE0DC0FB2DBB
:1018C000F460BF2E09C034FE0AC0292F2660B22E54
:1018D00006C028E030E005C020E130E002C020E191
:1018E00032E0F801B7FE07C0608171818281938187
:1018F0000C5F1F4F06C06081718180E090E00E5F39
:101900001F4FA3010E94660D882E8618FB2DFF77BE
:101910003F2E36FE0DC0232D2E7FA22E891458F4A3
:1019200034FE0BC032FC09C0832D8E7EA82E05C06C
:10193000B82CA32C03C0B82C01C0B92CA4FE0FC036
:10194000FE01E80DF11D8081803321F49A2D997EEE
:10195000A92E09C0A2FE06C0B394B39404C08A2D78
:10196000867809F0B394A3FC11C0A0FE06C0B2149F
:1019700088F4280C922C9B180EC0B21460F4B601A7
:1019800080E290E00E942A0DB394F7CFB21418F4CD
:101990002B1802C0982C212CA4FE10C0B60180E3A5
:1019A00090E00E942A0DA2FE17C0A1FC03C088E7A8
:1019B00090E002C088E590E0B6010CC08A2D8678E0
:1019C00059F0A1FE02C08BE201C080E2A7FC8DE2CB
:1019D000B60190E00E942A0D891438F4B60180E324
:1019E00090E00E942A0D9A94F7CF8A94F301E80DB3
:1019F000F11D8081B60190E00E942A0D8110F5CF83
:101A0000222009F442CEB60180E290E00E942A0D25
:101A10002A94F6CFF6018681978102C08FEF9FEF5F
:101A20002B96E2E10C94E00DFC01059061507040B2
:101A30000110D8F7809590958E0F9F1F0895FC0197
:101A40006150704001900110D8F7809590958E0FED
:101A50009F1F08950F931F93CF93DF93FB01238163
:101A600021FD03C08FEF9FEF2CC022FF16C04681DF
:101A70005781248135814217530744F4A081B181F5
:101A80009D012F5F3F4F318320838C9326813781C7
:101A90002F5F3F4F3783268314C08B01EC01FB017E
:101AA0000084F185E02D0995892BE1F6D801169681
:101AB0008D919C911797019617969C938E931697EC
:101AC000CE01DF91CF911F910F910895FA01AA27BE
:101AD000283051F1203181F1E8946F936E7F6E5F71
:101AE0007F4F8F4F9F4FAF4FB1E03ED0B4E03CD01F
:101AF000670F781F891F9A1FA11D680F791F8A1F02
:101B0000911DA11D6A0F711D811D911DA11D20D068
:101B100009F468943F912AE0269F11243019305D22
:101B20003193DEF6CF010895462F4770405D419313
:101B3000B3E00FD0C9F7F6CF462F4F70405D4A3360
:101B400018F0495D31FD4052419302D0A9F7EACF28
:101B5000B4E0A6959795879577956795BA95C9F757
:101B600000976105710508959B01AC010A2E06944A
:101B70005795479537952795BA95C9F7620F731F03
:101B8000841F951FA01D08952F923F924F925F9240
:101B90006F927F928F929F92AF92BF92CF92DF927D
:101BA000EF92FF920F931F93CF93DF93CDB7DEB7E2
:101BB000CA1BDB0B0FB6F894DEBF0FBECDBF099476
:101BC0002A88398848885F846E847D848C849B84CD
:101BD000AA84B984C884DF80EE80FD800C811B81DB
:101BE000AA81B981CE0FD11D0FB6F894DEBF0FBE0A
:0A1BF000CDBFED010895F894FFCF7A
:101BFA00000000004000000000000000000000009B
:101C0A0000000000000000000000000000000000CA
:101C1A0000000000000000000000000000000000BA
:101C2A0000000000000000000000000000000000AA
:101C3A00000000000000000000004000000000005A
:101C4A00000000000000000000000000000000008A
:101C5A00000000000000000000000000000000007A
:101C6A00000000000000000000000000000000006A
:101C7A00000000000000000000000000000000005A
:101C8A00400000000000000000000000000000000A
:101C9A00000000000000000000000000000000003A
:101CAA00000000000000000000000000000000002A
:101CBA00000000000000000000000000000000001A
:101CCA0000000000000040000000000000000000CA
:101CDA0000000000000000000000000000000000FA
:101CEA0000000000000000000000000000000000EA
:101CFA0000000000000000000000000000000000DA
:101D0A000000000000000000000000000000400782
:101D1A00B0070001000000006D0797070602AC013A
:101D2A00A2013C013D013E013E013E013E01060287
:101D3A003E019B013E013E013E013E013E016D0115
:081D4A00256400252B64000054
:00000001FF
