:100000000C9438000C9455000C9455000C94550039
:100010000C9455000C9455000C9455000C9455000C
:100020000C9455000C9455000C9455000C945500FC
:100030000C9455000C9455000C9455000C945500EC
:100040000C9455000C9455000C9455000C94C40667
:100050000C9466060C9455000C9455000C94ED0617
:100060000C948F060C9455000C9455000C9455007C
:1000700011241FBECFEFD4E0DEBFCDBF11E0A0E062
:10008000B1E0ECEDF9E102C005900D92AC36B1079C
:10009000D9F721E0ACE6B1E001C01D92AA3EB2075B
:1000A000E1F70E947F020C94EC0C0C9400000F937B
:1000B0001F93CF93DF938C0168E070E081E090E0C4
:1000C0000E94B908EC01B80181E090E00E94B908F3
:1000D0009F838E831D830C83CE01DF91CF911F916F
:1000E0000F910895FC01A681B78180819181A80FAD
:1000F000B91F6C93808191810196648175810E9402
:100100004C08918380830895EF92FF920F931F9381
:10011000CF93DF937C01EB014115510551F08B0129
:10012000040F151F6991C7010E9472000C171D076B
:10013000C9F7DF91CF911F910F91FF90EF90089534
:10014000FC0182819381A681B781A80FB91F2C91F0
:100150000196648175810E944C0893838283822F6B
:100160000895FC0180819181428153818417950714
:1001700018F0841B950B089524813581820F931FFD
:10018000841B950B0895EF92FF920F931F93CF93CB
:10019000DF937C01EB018A010E94B1000817190767
:1001A00008F4C801009751F08E01080F191FC7010C
:1001B0000E94A00089930C171D07C9F7DF91CF910A
:1001C0001F910F91FF90EF900895FC0181E0408115
:1001D0005181228133814217530709F080E008954D
:1001E000FC0140E080E05CE8219198E0322F382764
:1001F0008695269530FD85279150C1F74F5F4617AC
:1002000098F30895FF920F931F93CF93DF93EC0120
:100210000E94E604F82E81E0F81221C083E30E94D8
:10022000500517E00E9423052881282B39814A8137
:100230005B816C817D818E819F8108E00E948208B4
:10024000288339834A835B836C837D838E839F837A
:10025000115041F70E9423059881892B88838F2DA7
:10026000DF91CF911F910F91FF900895EF92FF9230
:100270000F931F93CF93DF93EC010E94E604182F96
:10028000813009F08DC085E50E945005E12CF12CEC
:10029000288139814A815B816C817D818E819F813A
:1002A0000E2D0E94820808E30E949D08822F0E9462
:1002B000500588E0E80EF11C90E4E916F10441F7DE
:1002C00084E40E945005E7EBFBE03197F1F700C0B2
:1002D00000000E94E604182F813009F061C085E516
:1002E0000E945005E12CF12C288139814A815B81E3
:1002F0006C817D818E819F810E2D0E94820808E392
:100300000E949D08822F0E945005F8E0EF0EF11C1C
:1003100080E4E816F10441F78EEB0E9450050E943C
:1003200023050F2EFCECEF2EF1E0FF2EF02DF70150
:1003300080830E942305F70181830E942305F70132
:1003400082830E942305F70183830E942305F7011E
:1003500084830E942305F70185830E942305F7010A
:1003600086830E942305F70187830E942305F701F6
:10037000808769E0C7010E94F000811110C0F70179
:10038000818190E0982F88272081822B9987888708
:1003900082818A8783818B8784818C8701C013E067
:1003A000812FDF91CF911F910F91FF90EF900895D2
:1003B00080916C0190E09C01220F331FF901EE0F38
:1003C000FF1FEE0FFF1FEE0FFF1FE21BF30BE359A2
:1003D000FE4F25852630B9F0CF010E940201813001
:1003E00091F480916C0190E0880F991FFC01EE0F51
:1003F000FF1FEE0FFF1FEE0FFF1FE81BF90BE35966
:10040000FE4F86E0858780916C01833020F48F5FFA
:1004100080936C01089510926C010895FC01608135
:100420006F7070E080E090E00E94510720E030E0C3
:1004300040E85DE30E94B70720E030E048EC52E47A
:100440000E94B7070E942207862F0895CF93DF935B
:10045000EC016130F1F018F06230A9F14DC08885EF
:100460009985929582958F7089279F7089278093AF
:10047000AF01CE0108960E940E028093AC018D85DB
:10048000863021F481E08093A90136C01092A90141
:1004900033C088859985929582958F7089279F7042
:1004A00089278093A601CE0108960E940E028093B0
:1004B000A3018D85863021F481E08093A0011CC0CA
:1004C0001092A00119C088859985929582958F70A8
:1004D00089279F70892780939D01CE0108960E94ED
:1004E0000E0280939A018D85863021F481E08093FD
:1004F000970102C010929701DF91CF910895CF9399
:10050000DF9300D0CDB7DEB78FEF84BB40E850E07B
:1005100060E875E281E00E94FA059093E301809320
:10052000E20140E850E060E875E280E00E94FA05F0
:100530009093E5018093E40182EE91E00E94DF0355
:1005400061E085EC91E00E94750369E082EB91E047
:100550000E9484036CE171E08FEA91E00E94A503A0
:1005600064E271E08CEA91E00E94A5036CE271E024
:1005700089EA91E00E94A50364E371E086EA91E0D4
:100580000E94A5036CE371E083EA91E00E94A50359
:1005900064E471E080EA91E00E94A5036CE471E0FC
:1005A0008DE991E00E94A50364E571E08AE991E09C
:1005B0000E94A5036CE571E087E991E00E94A50324
:1005C0006FEA71E082EB91E00E94CA036CEA71E08D
:1005D00082EB91E00E94CA0369EA71E082EB91E04C
:1005E0000E94CA0366EA71E082EB91E00E94CA03AE
:1005F00063EA71E082EB91E00E94CA0360EA71E075
:1006000082EB91E00E94CA036DE971E082EB91E018
:100610000E94CA036AE971E082EB91E00E94CA037A
:1006200067E971E082EB91E00E94CA038DB79EB743
:1006300043970FB6F8949EBF0FBE8DBFADB7BEB740
:10064000119683E1E2EBF1E001900D928A95E1F7DA
:1006500085EC91E00E94A90378940FB6F894DEBF70
:100660000FBECDBF41E050E0BE016F5F7F4F809174
:10067000E2019091E3010E9458068981813019F4CA
:100680000E94D80119820DE611E0F12CF801858550
:100690008630B9F4C8010E9436018A83813031F472
:1006A0006F2D802F912F0E9426020BC041E050E059
:1006B000BE016E5F7F4F8091E4019091E5010E9441
:1006C0004006F394025F1F4FF3E0FF12DFCF85EC8B
:1006D00091E00E940F042FEF83ED90E321508040C2
:1006E0009040E1F700C00000BDCFCF93DF93EC0155
:1006F000862F688363E170E090E00E94B9089A83D6
:100700008983DF91CF9108950F931F93CF93DF9348
:10071000FC0160836623A1F0EC0121966150062F55
:1007200010E0000F111F0D5F1F4F080F191F82E00F
:1007300090E00E94D50889939993C017D107B9F723
:10074000DF91CF911F910F910895FC017283618316
:100750000895CF93DF93CDB7DEB7FC019091C90127
:100760008081981798F4A181B28183E1989FA00DB0
:10077000B11D112483E1FE01359601900D928A95F9
:10078000E1F79F5F9093C90181E001C080E0DF91B4
:10079000CF910895DC019091C8018C91981768F46D
:1007A000E92FF0E0EE0FFF1FEA0FFB1F728361835A
:1007B0009F5F9093C80181E0089580E00895FC0157
:1007C000808191819093CB018093CA010895CF934A
:1007D000DF9300D000D0CDB7DEB78FEF9FEFAFEF44
:1007E000B0E089839A83AB83BC8343E050E0BE01D1
:1007F0006F5F7F4F8091CA019091CB010E944006AC
:100800008091CA019091CB010E9463068823C1F3B5
:100810000F900F900F900F90DF91CF9108953F921E
:100820004F925F926F927F928F929F92AF92BF9200
:10083000CF92DF92EF92FF920F931F93CF93DF93AC
:10084000FC012081211191C0AFC0512C61E070E00A
:1008500083E090E00E94B908682E792EC52DD0E083
:10086000CE01880F991FF401E80FF91F0180F28172
:10087000E02D808188239CF0282F082E000C330B5C
:100880003F938F93DF92CF927F926F920E94020AE2
:100890000F900F900F900F900F900F9012C0282F75
:1008A000082E000C330B3F938F93BF92AF927F9231
:1008B0006F920E94020A0F900F900F900F900F906E
:1008C0000F90F801818192818E0D9F1DCC0FDD1F4D
:1008D000C80FD91FE981FA8161817281FB01019002
:1008E0000020E9F73197AF01461B570B8091CA01F1
:1008F0009091CB010E9440068091CA019091CB015A
:100900000E9463068823C1F3A62DB72DFD01019037
:100910000020E9F73197AF014A1B5B0B662D772D5D
:100920008091CA019091CB010E9440068091CA013A
:100930009091CB010E9463068823C1F30E94E703D4
:10094000862D972D0E946D095394F8018180928025
:100950008E0C9F1CF4018081581608F477CF4394C5
:10096000F8018081481698F01FC08C01412C0F2E91
:10097000F3E13F2EF02D0F2EF7E6AF2EF1E0BF2E64
:10098000F02D0F2EF4E6CF2EF1E0DF2EF02D349C6B
:1009900070011124F801818092808E0C9F1CF4015B
:1009A0008081811152CFDBCFDF91CF911F910F91C9
:1009B000FF90EF90DF90CF90BF90AF909F908F907F
:1009C0007F906F905F904F903F9008959FB7F894FD
:1009D000D09AD898EFEEFAE03197F1F700C0000016
:1009E000D89AEBE2F1E03197F1F700C00000D0981F
:1009F000C8990CC0EFEEFAE03197F1F700C00000A3
:100A000089B3882329F09FBF81E0089580E001C069
:100A100082E09FBF0895D09AD89880E18A95F1F737
:100A2000D89AD098E0E4EA95F1F7C89B02C080E834
:100A300001C080E0D09AD89AEBE2F1E03197F1F76B
:100A400000C0000008951F93CF93DF931FB7F89461
:100A5000D09AD8E080E0C82FC6950E940B058C2B59
:100A6000D150C9F71FBFDF91CF911F910895D09A40
:100A7000D89880E58A95F1F780EF8A95F1F7D89AB2
:100A80008AE08A95F1F700C00895D09AD89880E559
:100A90008A95F1F7D89A8AEF8A95F1F700C0089500
:100AA000DF92EF92FF920F931F93CF93DF93DFB606
:100AB000F89408E010E0C1E0D0E0E82EF12CC70186
:100AC0008C239D23892B19F00E94450502C00E94AA
:100AD0003705CC0FDD1F0150110989F7DFBEDF910B
:100AE000CF911F910F91FF90EF90DF900895A0E0BC
:100AF000B0E0880F991FAA1FBB1F880F991FAA1F5C
:100B0000BB1F9C01AD01220F331F441F551F220F35
:100B1000331F441F551F60E074E284EF90E00E9491
:100B20006008DA01C9010197A109B10989B9892FC2
:100B30009A2FAB2FBB27A7FDBA9580BD1BB888EDB8
:100B40008AB986E080BD0895A0E0B0E0880F991FC3
:100B5000AA1FBB1F880F991FAA1FBB1F9C01AD01B5
:100B6000220F331F441F551F220F331F441F551FD1
:100B700060E074E284EF90E00E9460082150310947
:100B800020B93CBF12B888ED81B986E08CBF0895CA
:100B9000CF93CFB7F89480911601909117010E94DE
:100BA000E50081110BC0159B07C080911601909143
:100BB00017010E94A00083B9CFBF01C0CFBFCF9162
:100BC0000895CF93CFB7F89480910B0190910C01C9
:100BD0000E94E50081110BC05D9B07C080910B0155
:100BE00090910C010E94A0008CB9CFBF01C0CFBF73
:100BF000CF9108958F929F92AF92BF92CF92DF9242
:100C0000EF92FF921F93CF93DF93182F5B016A013E
:100C1000823010F00E94F609882E912C2BE0829FE2
:100C2000C0011124FC01EA5FFE4F7F018081811128
:100C30000E94F609CA010E9457002BE0289DE0019E
:100C4000299DD00D1124CA5FDE4F9C838B83C60182
:100C50000E9457009E838D831A83EF81F885C5011A
:100C6000099581E08883C701DF91CF911F91FF90A3
:100C7000EF90DF90CF90BF90AF909F908F900895AE
:100C80001F93CF93DF93EC014115510511F40E949E
:100C9000F6091FB7F8948D819E810E948400198205
:100CA0001FBFE985FA850995DF91CF911F910895BE
:100CB000CF93CFB7F894FC01838194810E94C30045
:100CC000CFBFCF910895FC01818108951F920F92AB
:100CD0000FB60F9211242F933F934F935F936F930F
:100CE0007F938F939F93AF93BF93EF93FF9363B1E2
:100CF00080911401909115010E947200FF91EF9173
:100D0000BF91AF919F918F917F916F915F914F9123
:100D10003F912F910F900FBE0F901F9018951F922B
:100D20000F920FB60F9211242F933F934F935F931F
:100D30006F937F938F939F93AF93BF93EF93FF93A3
:100D400080911601909117010E94E500811108C061
:100D500080911601909117010E94A00083B903C0F1
:100D600081E080931201FF91EF91BF91AF919F912C
:100D70008F917F916F915F914F913F912F910F9044
:100D80000FBE0F901F9018951F920F920FB60F92E3
:100D900011242F933F934F935F936F937F938F9380
:100DA0009F93AF93BF93EF93FF936CB18091090131
:100DB00090910A010E947200FF91EF91BF91AF9153
:100DC0009F918F917F916F915F914F913F912F9163
:100DD0000F900FBE0F901F9018951F920F920FB695
:100DE0000F9211242F933F934F935F936F937F93B1
:100DF0008F939F93AF93BF93EF93FF9380910B01DA
:100E000090910C010E94E500811108C080910B01B6
:100E100090910C010E94A0008CB903C081E08093E6
:100E20000701FF91EF91BF91AF919F918F917F91BA
:100E30006F915F914F913F912F910F900FBE0F9047
:100E40001F9018950E94960788F09F5798F0B92F29
:100E50009927B751B0F0E1F0660F771F881F991FEF
:100E60001AF0BA95C9F714C0B13091F00E94B007DA
:100E7000B1E008950C94B007672F782F8827B85FEA
:100E800039F0B93FCCF3869577956795B395D9F747
:100E90003EF490958095709561957F4F8F4F9F4F51
:100EA0000895E89409C097FB3EF49095809570955D
:100EB00061957F4F8F4F9F4F9923A9F0F92F96E9A6
:100EC000BB279395F695879577956795B795F1111B
:100ED000F8CFFAF4BB0F11F460FF1BC06F5F7F4FB8
:100EE0008F4F9F4F16C0882311F096E911C07723CA
:100EF00021F09EE8872F762F05C0662371F096E8D3
:100F0000862F70E060E02AF09A95660F771F881FA1
:100F1000DAF7880F9695879597F9089557FD9058B9
:100F2000440F551F59F05F3F71F04795880F97FBAD
:100F3000991F61F09F3F79F0879508951216130667
:100F40001406551FF2CF4695F1DF08C01616170696
:100F50001806991FF1CF86957105610508940895CB
:100F6000E894BB2766277727CB0197F908950E945D
:100F7000CA070C943B080E942D0838F00E943408E0
:100F800020F0952311F00C9424080C942A081124C5
:100F90000C94B1070E948E0770F3959FC1F3950FD3
:100FA00050E0551F629FF001729FBB27F00DB11DED
:100FB000639FAA27F00DB11DAA1F649F6627B00D7D
:100FC000A11D661F829F2227B00DA11D621F739F66
:100FD000B00DA11D621F839FA00D611D221F749F74
:100FE0003327A00D611D231F849F600D211D822FBB
:100FF000762F6A2F11249F5750409AF0F1F08823E2
:101000004AF0EE0FFF1FBB1F661F771F881F91500E
:101010005040A9F79E3F510580F00C9424080C9491
:10102000B1075F3FE4F3983ED4F3869577956795D3
:10103000B795F795E7959F5FC1F7FE2B880F911D38
:101040009695879597F9089597F99F6780E870E0DE
:1010500060E008959FEF80EC089500240A9416162E
:10106000170618060906089500240A941216130696
:10107000140605060895092E0394000C11F4882324
:1010800052F0BB0F40F4BF2B11F460FF04C06F5F40
:101090007F4F8F4F9F4F0895AA1BBB1B51E107C085
:1010A000AA1FBB1FA617B70710F0A61BB70B881FF8
:1010B000991F5A95A9F780959095BC01CD01089587
:1010C000A1E21A2EAA1BBB1BFD010DC0AA1FBB1F4C
:1010D000EE1FFF1FA217B307E407F50720F0A21BBE
:1010E000B30BE40BF50B661F771F881F991F1A942B
:1010F00069F760957095809590959B01AC01BD0155
:10110000CF0108950F93083090F0982F872F762FF6
:10111000652F542F432F322F22270850F4CF220F50
:10112000331F441F551F661F771F881F991F0A957D
:10113000B2F70F91089597FB10F8169400080F93DB
:10114000083098F00850232F342F452F562F672F43
:10115000782F892F902DF4CF0594979587957795C3
:10116000679557954795379527950A95AAF70F9153
:1011700008950F931F93CF93DF93869F8001879FDE
:10118000100D969F100D1124C8010E94D508EC0186
:10119000009729F0A80160E070E00E94FB09CE01F1
:1011A000DF91CF911F910F9108950F931F93CF93CC
:1011B000DF938230910510F482E090E0E091E80145
:1011C000F091E90120E030E0A0E0B0E0309719F1C3
:1011D000408151810281138148175907C8F0841753
:1011E000950769F4109731F012960C9312971396A5
:1011F0001C9327C00093E8011093E90122C0211538
:10120000310519F04217530718F49A01BD01EF0197
:10121000DF01F801DBCF21153105F9F0281B390B6F
:101220002430310580F48A819B816115710521F09C
:10123000FB019383828304C09093E9018093E801CA
:10124000FE01329644C0FE01E20FF31F8193919399
:1012500022503109398328833AC02091E601309128
:10126000E701232B41F420910201309103013093D7
:10127000E7012093E6012091000130910101211541
:10128000310541F42DB73EB740910401509105015D
:10129000241B350BE091E601F091E701E217F3071B
:1012A000A0F42E1B3F0B2817390778F0AC014E5FD6
:1012B0005F4F2417350748F04E0F5F1F5093E7012B
:1012C0004093E6018193919302C0E0E0F0E0CF010A
:1012D000DF91CF911F910F910895CF93DF930097E6
:1012E00009F481C0FC01329713821282A091E801B7
:1012F000B091E901109781F420813181820F931F11
:101300002091E6013091E7012817390751F5F09354
:10131000E701E093E60167C0ED0120E030E0CE1781
:10132000DF0740F44A815B819E0141155105F1F0D0
:10133000EA01F5CFD383C28340815181840F951F89
:10134000C817D90759F488819981840F951F02968F
:10135000918380838A819B819383828321153105C8
:1013600029F4F093E901E093E8013DC0E901FB8332
:10137000EA8349915991C40FD51FEC17FD0761F419
:1013800080819181840F951F0296E901998388835A
:10139000828193819B838A83E0E0F0E012968D91B5
:1013A0009C911397009719F0FD01DC01F7CF8D9107
:1013B0009C9111979D012E5F3F4F820F931F2091AB
:1013C000E6013091E7012817390769F4309729F4CD
:1013D0001092E9011092E80102C013821282B093C8
:1013E000E701A093E601DF91CF91089581E090E0BD
:1013F000F8940C94EC0CDC0101C06D93415050400A
:10140000E0F70895AEE0B0E0E8E0FAE00C94C30C39
:101410000D891E8986E08C831A8309838FEF9FE7ED
:101420009E838D83AE01475E5F4F6F89788DCE01BD
:1014300001960E94240AEF81F885E00FF11F1082C7
:101440002E96E4E00C94DF0CABE0B0E0EAE2FAE0C8
:101450000C94B50C6C017B018A01FC011782168289
:10146000838181FFCCC1CE0101963C01F6019381BD
:10147000F70193FD859193FF81917F01882309F402
:10148000BAC1853239F493FD859193FF81917F0133
:10149000853229F4B60190E00E941B0CE7CF912C15
:1014A000212C312CFFE1F315D8F08B3279F038F490
:1014B000803279F08332A1F4232D20611DC08D325A
:1014C00061F0803369F4232D216016C0832D826082
:1014D000382EE32DE4603E2E2AC0F32DF8601DC0A7
:1014E00037FC2DC020ED280F2A3040F08E32B9F4A1
:1014F00036FC81C1232D2064322E19C036FE06C071
:101500008AE0989E200D1124922E11C0EAE02E9EB2
:10151000200D1124222EF32DF0623F2E08C08C36B0
:1015200021F4832D8068382E02C0883641F4F701FB
:1015300093FD859193FF81917F018111B3CF982F06
:101540009F7D9554933028F40C5F1F4F9FE3998340
:101550000DC0833631F0833771F0833509F059C0FF
:1015600021C0F801808189830E5F1F4F88248394F6
:10157000912C530113C02801F2E04F0E511CF801C9
:10158000A080B18036FE03C0692D70E002C06FEF0D
:101590007FEFC5010E94100C4C018201F32DFF77F3
:1015A0003F2E16C0280122E0420E511CF801A080F7
:1015B000B18036FE03C0692D70E002C06FEF7FEF8F
:1015C000C5010E94050C4C01F32DF0683F2E8201ED
:1015D00033FC1BC0822D90E088169906B0F4B6014A
:1015E00080E290E00E941B0C2A94F4CFF50137FCB6
:1015F000859137FE81915F01B60190E00E941B0C3E
:1016000021102A9421E0821A91088114910471F723
:10161000E8C0843611F0893641F5F80137FE07C07D
:1016200060817181828193810C5F1F4F08C060814E
:101630007181072E000C880B990B0E5F1F4FF32D45
:10164000FF763F2E97FF09C0909580957095619524
:101650007F4F8F4F9F4FF0683F2E2AE030E0A3016D
:101660000E94570C882E861845C0853731F4232DEB
:101670002F7EB22E2AE030E025C0932D997FB92E1F
:101680008F36C1F018F4883579F0B5C0803719F07D
:10169000883721F0B0C0E92FE061BE2EB4FE0DC046
:1016A000FB2DF460BF2E09C034FE0AC0292F26602E
:1016B000B22E06C028E030E005C020E130E002C0D4
:1016C00020E132E0F801B7FE07C0608171818281BC
:1016D00093810C5F1F4F06C06081718180E090E0B4
:1016E0000E5F1F4FA3010E94570C882E8618FB2DFA
:1016F000FF773F2E36FE0DC0232D2E7FA22E89149C
:1017000058F434FE0BC032FC09C0832D8E7EA82E07
:1017100005C0B82CA32C03C0B82C01C0B92CA4FE62
:101720000FC0FE01E80DF11D8081803321F49A2D58
:10173000997EA92E09C0A2FE06C0B394B39404C03A
:101740008A2D867809F0B394A3FC11C0A0FE06C0D0
:10175000B21488F4280C922C9B180EC0B21460F4BA
:10176000B60180E290E00E941B0CB394F7CFB21454
:1017700018F42B1802C0982C212CA4FE10C0B6011E
:1017800080E390E00E941B0CA2FE17C0A1FC03C0E6
:1017900088E790E002C088E590E0B6010CC08A2D91
:1017A000867859F0A1FE02C08BE201C080E2A7FC5E
:1017B0008DE2B60190E00E941B0C891438F4B6014A
:1017C00080E390E00E941B0C9A94F7CF8A94F30177
:1017D000E80DF11D8081B60190E00E941B0C811084
:1017E000F5CF222009F442CEB60180E290E00E94BB
:1017F0001B0C2A94F6CFF6018681978102C08FEFE9
:101800009FEF2B96E2E10C94D10CFC010590615006
:1018100070400110D8F7809590958E0F9F1F089506
:10182000FC016150704001900110D8F780959095AF
:101830008E0F9F1F08950F931F93CF93DF93FB018C
:10184000238121FD03C08FEF9FEF2CC022FF16C024
:1018500046815781248135814217530744F4A08182
:10186000B1819D012F5F3F4F318320838C9326816F
:1018700037812F5F3F4F3783268314C08B01EC01E4
:10188000FB010084F185E02D0995892BE1F6D80153
:1018900016968D919C911797019617969C938E930F
:1018A0001697CE01DF91CF911F910F910895FA0104
:1018B000AA27283051F1203181F1E8946F936E7F8F
:1018C0006E5F7F4F8F4F9F4FAF4FB1E03ED0B4E080
:1018D0003CD0670F781F891F9A1FA11D680F791FC1
:1018E0008A1F911DA11D6A0F711D811D911DA11DD2
:1018F00020D009F468943F912AE0269F11243019E2
:10190000305D3193DEF6CF010895462F4770405D7C
:101910004193B3E00FD0C9F7F6CF462F4F70405D2B
:101920004A3318F0495D31FD4052419302D0A9F786
:10193000EACFB4E0A6959795879577956795BA9580
:10194000C9F700976105710508959B01AC010A2E46
:1019500006945795479537952795BA95C9F7620F1D
:10196000731F841F951FA01D08952F923F924F92C1
:101970005F926F927F928F929F92AF92BF92CF921F
:10198000DF92EF92FF920F931F93CF93DF93CDB728
:10199000DEB7CA1BDB0B0FB6F894DEBF0FBECDBFA0
:1019A00009942A88398848885F846E847D848C8471
:1019B0009B84AA84B984C884DF80EE80FD800C817A
:1019C0001B81AA81B981CE0FD11D0FB6F894DEBF5D
:0C19D0000FBECDBFED010895F894FFCFCD
:1019DC000000EA012000000000000000007705E193
:1019EC000500000100000000A405C8056E302E762D
:1019FC00616C3D006E312E76616C3D0070302E7046
:101A0C0069633D006E322E76616C3D006E332E762E
:101A1C00616C3D0070312E7069633D006E342E7622
:101A2C00616C3D006E352E76616C3D0070322E700F
:0C1A3C0069633D00256400252B64000058
:00000001FF
