S013000054656D70436F6E74726F6C2E737265639A
S11300000C9442000C945F000C945F000C945F000D
S11300100C945F000C945F000C945F000C945F00E0
S11300200C945F000C945F000C945F000C945F00D0
S11300300C945F000C945F000C945F000C945F00C0
S11300400C945F000C945F000C945F000C941409F2
S11300500C94BA080C945F000C945F000C943D0956
S11300600C94E3080C945F000C945F000C945F0004
S1130070BC02D602F0020A0324033E0358037203AF
S11300808C03A60311241FBECFEFD4E0DEBFCDBF87
S113009013E0A0E0B1E0E0E8FEE102C005900D92BB
S11300A0A433B107D9F724E0A4E3B3E001C01D925F
S11300B0AD37B207E1F70E94C8030C943E0F0C94CD
S11300C0000081111BC06623C1F091E095BB2FEFA6
S11300D039E648E1215030404040E1F700C00000DB
S11300E015BA2FEF39E648E1215030404040E1F79E
S11300F000C000008F5F6813E9CFFFCF0895CF934E
S1130100C82F81E0C43008F080E061E00E94610003
S113011026E4C29FC00111248A5F9E4FCF910895A7
S11301201F93CF93DF93EC01162F6C817D818A811D
S11301309B81860F971F01970E94980AAC0181E06A
S1130140288139814217530709F480E062E00E9454
S1130150610088819981FE01E80FF91F16830196D9
S11301608F73992799838883DF91CF911F91089585
S1130170FC0180819181428153818417950718F095
S1130180841B950B089524813581820F931F841B52
S1130190950B0895EF92FF920F931F93CF93DF93E4
S11301A07C01EB018A010E94B800F70124813581AA
S11301B0281B390B81E00217130708F080E063E085
S11301C00E9461000115110549F00C0F1D1F699172
S11301D0C7010E9490000C171D07C9F7DF91CF914A
S11301E01F910F91FF90EF900895CF93DF93EC014F
S11301F00E94B80021E0892B09F420E064E0822FFA
S11302000E9461002A813B81FE01E20FF31F868177
S11302102F5F3F4F2F7333273B832A83DF91CF9187
S11302200895EF92FF920F931F93CF93DF937C0176
S1130230EB01142F0E94B800082F81E0011708F485
S113024080E065E00E946100101708F4012F10E0BF
S11302500115110549F00C0F1D1FC7010E94F5007F
S113026089930C171D07C9F7DF91CF911F910F9147
S1130270FF90EF900895FC01138212821182108284
S11302800895FC0181E0408151812281338142172C
S1130290530709F080E00895FC0140E080E05CE849
S11302A0219198E0322F38278695269530FD8527B1
S11302B09150C1F74F5F461798F30895FF920F933B
S11302C01F93CF93DF93EC010E94DB06F82E81E0AD
S11302D0F81221C083E30E94450717E00E94180723
S11302E02881282B39814A815B816C817D818E81B3
S11302F09F8108E00E94D40A288339834A835B8360
S11303006C837D838E839F83115041F70E9418076D
S11303109881892B88838F2DDF91CF911F910F9125
S1130320FF900895CF93DF938EEB0E9445070E94C0
S11303301807CFE5D4E088830E94180789830E94B8
S113034018078A830E9418078B830E9418078C83DE
S11303500E9418078D830E9418078E830E94180735
S11303608F830E9418078887DF91CF9108959F9209
S1130370AF92BF92CF92DF92EF92FF920F931F93AF
S1130380CF93DF93922EA32EB42EC52ED62EE72E16
S1130390F82E192F85E50E944507C0E0D0E0292DED
S11303A03A2D4B2D5C2D6D2D7E2D8F2D912F0C2FE5
S11303B00E94D40A08E30E94EF0A822F0E94450794
S11303C02896C034D10559F7DF91CF911F910F9131
S11303D0FF90EF90DF90CF90BF90AF909F900895E3
S11303E00F931F93CF938C010E94DB06C82F81309B
S11303F009F061C0D8012C9111963C911197129685
S11304004C91129713965C91139714966C911497D0
S113041015967C91159716968C91169717969C9124
S11304200E94B70184E40E944507E7EBFBE03197A3
S1130430F1F700C000000E94DB06C82F8130D9F517
S1130440D8012C9111963C91119712964C911297C8
S113045013965C91139714966C91149715967C914E
S1130460159716968C91169717969C910E94B70132
S11304700E94920169E08FE594E00E944C01811191
S113048019C0EFE5F4E0818190E0982F882720815E
S1130490822BD80119969C938E93189782811A9671
S11304A08C931A9783811B968C931B9784811C963B
S11304B08C9301C0C3E08C2FCF911F910F910895AD
S11304C08091340390E09C01220F331FF901EE0F59
S11304D0FF1FEE0FFF1FEE0FFF1FE21BF30BEB5C82
S11304E0FC4F25852630B9F0CF010E945E01813092
S11304F091F48091340390E0880F991FFC01EE0F72
S1130500FF1FEE0FFF1FEE0FFF1FE81BF90BEB5C45
S1130510FC4F86E08587809134038A3020F48F5F16
S1130520809334030895109234030895FC0160818C
S11305306F7070E080E090E00E949D0920E030E060
S113054040E85DE30E94030A20E030E048EC52E416
S11305500E94030A0E946E09862F0895CF93DF93A9
S1130560462F50E04A30510508F009C1EC01FA0168
S1130570E85CFF4F0C94CE0A888599859295829504
S11305808F7089279F70892780931804CE0108965D
S11305900E949602809315048D85863021F481E0B3
S11305A080931204ECC010921204E9C088859985E6
S11305B0929582958F7089279F70892780930F0465
S11305C0CE0108960E94960280930C048D85863095
S11305D021F481E080930904D2C010920904CFC0B1
S11305E088859985929582958F7089279F70892730
S11305F080930604CE0108960E9496028093030419
S11306008D85863021F481E080930004B8C0109277
S11306100004B5C088859985929582958F70892745
S11306209F7089278093FD03CE0108960E9496024D
S11306308093FA038D85863021F481E08093F7035B
S11306409EC01092F7039BC08885998592958295E8
S11306508F7089279F7089278093F403CE010896B1
S11306600E9496028093F1038D85863021F481E007
S11306708093EE0384C01092EE0381C0888599852F
S1130680929582958F7089279F7089278093EB03B9
S1130690CE0108960E9496028093E8038D858630E9
S11306A021F481E08093E5036AC01092E50367C0FA
S11306B088859985929582958F7089279F7089275F
S11306C08093E203CE0108960E9496028093DF0392
S11306D08D85863021F481E08093DC0350C0109234
S11306E0DC034DC088859985929582958F70892702
S11306F09F7089278093D903CE0108960E949602A1
S11307008093D6038D85863021F481E08093D303D2
S113071036C01092D30333C088859985929582950B
S11307208F7089279F7089278093D003CE01089604
S11307300E9496028093CD038D85863021F481E05A
S11307408093CA031CC01092CA0319C08885998576
S1130750929582958F7089279F7089278093C7030C
S1130760CE0108960E9496028093C4038D8586303C
S113077021F481E08093C10302C01092C103DF9190
S1130780CF910895A89581B5886181BD11BC089564
S1130790CF93DF931F92CDB7DEB7F89460E875E28C
S11307A081E00E94F707909376048093750460E8D3
S11307B075E280E00E94F7079093780480937704B1
S11307C085E794E00E94E60588E594E00E94B00580
S11307D08BE194E00E94B40562E372E088E194E066
S11307E00E94B8056AE372E085E194E00E94B805CE
S11307F062E472E082E194E00E94B8056AE472E087
S11308008FE094E00E94B80562E572E08CE094E029
S11308100E94B8056AE572E089E094E00E94B80598
S113082062E672E086E094E00E94B8056AE672E04F
S113083083E094E00E94B80562E772E080E094E00F
S11308400E94B8056AE772E08DEF93E00E94B80554
S113085062E872E08AEF93E00E94B8056AE872E009
S113086087EF93E00E94B80562E972E084EF93E0B9
S11308700E94B8056AE972E081EF93E00E94B8052E
S113088062EA72E08EEE93E00E94B8056AEA72E0D2
S11308908BEE93E00E94B80563EB72E088EE93E080
S11308A00E94B8056CEB72E085EE93E00E94B805F7
S11308B064EC72E082EE93E00E94B8056DEC72E0A5
S11308C08FED93E00E94B80566ED72E08CED93E045
S11308D00E94B8056EED72E089ED93E00E94B805C0
S11308E067EE72E086ED93E00E94B80560EF72E077
S11308F083ED93E00E94B80568EF72E080ED93E029
S11309000E94B80561E073E08DEC93E00E94B805A5
S11309106AE073E08AEC93E00E94B80562E173E058
S113092087EC93E00E94B8056BE173E084EC93E0FC
S11309300E94B80564E273E081EC93E00E94B8057C
S113094068E174E08BE194E00E94D10565E174E014
S11309508BE194E00E94D10562E174E08BE194E0C4
S11309600E94D1056FE074E08BE194E00E94D10510
S11309706CE074E08BE194E00E94D10569E074E0DE
S11309808BE194E00E94D10566E074E08BE194E091
S11309900E94D10563E074E08BE194E00E94D105EC
S11309A060E074E08BE194E00E94D1056DEF73E0A8
S11309B08BE194E00E94D1056AEF73E08BE194E04F
S11309C00E94D10567EF73E08BE194E00E94D105AA
S11309D064EF73E08BE194E00E94D10561EF73E072
S11309E08BE194E00E94D1056EEE73E08BE194E01C
S11309F00E94D1056BEE73E08BE194E00E94D10577
S1130A0068EE73E08BE194E00E94D10565EE73E03B
S1130A108BE194E00E94D10562EE73E08BE194E0F7
S1130A200E94D1056FED73E08BE194E00E94D10543
S1130A306CED73E08BE194E00E94D10569ED73E005
S1130A408BE194E00E94D10566ED73E08BE194E0C4
S1130A500E94D10563ED73E08BE194E00E94D1051F
S1130A6060ED73E08BE194E00E94D1056DEC73E0DE
S1130A708BE194E00E94D1056AEC73E08BE194E091
S1130A800E94D10567EC73E08BE194E00E94D105EC
S1130A9064EC73E08BE194E00E94D10561EC73E0B7
S1130AA08BE194E00E94D1056BE174E088E594E069
S1130AB00E94BC0580917504909176040E947A0886
S1130AC080917704909178040E947A080E94C2036E
S1130AD0789481E084BB1982CC24C39480917504FA
S1130AE0909176040E94A408892BB1F141E050E072
S1130AF0BE016F5F7F4F80917504909176040E94D0
S1130B00AF082AC00E946002198205E313E0F12CA9
S1130B10F8018585863059F4C5BAC8010E94F001F0
S1130B20813029F46F2D802F912F0E94AE02F3940F
S1130B30025F1F4FFAE0FF12EBCF88E594E00E94BA
S1130B400E062FEF83ED90E3215080409040E1F7B3
S1130B5000C0000015BAC2CF89818130B1F6D2CF6E
S1130B6021E0FC01208308952EE1FC0120830895F7
S1130B70FC01728361830895DC0190915C048C9183
S1130B80981768F4E92FF0E0EE0FFF1FEA0FFB1F40
S1130B90728361839F5F90935C0481E0089580E099
S1130BA00895DC0190915B048C91981768F4E92F07
S1130BB0F0E0EE0FFF1FEA0FFB1F728361839F5F5C
S1130BC090935B0481E0089580E00895FC018081A6
S1130BD0918190935E0480935D040895CF93DF9395
S1130BE000D000D0CDB7DEB78FEF9FEFAFEFB0E00E
S1130BF089839A83AB83BC8343E050E0BE016F5F7B
S1130C007F4F80915D0490915E040E948D080F9047
S1130C100F900F900F90DF91CF9108954F925F92B4
S1130C206F927F928F929F92AF92BF92CF92DF92F8
S1130C30EF92FF920F931F93CF93DF93FC012081D8
S1130C4021118CC0A7C0512C000F111F0A0D1B1DB0
S1130C500F5F1F4F61E070E083E090E00E940B0B98
S1130C60682E792EC52DD0E0CE01880F991FF4018E
S1130C70E80FF91F0180F281E02D808188239CF028
S1130C80282F082E000C330B3F938F93FF92EF9283
S1130C907F926F920E94540C0F900F900F900F90C0
S1130CA00F900F9012C0282F082E000C330B3F9387
S1130CB08F93DF92CF927F926F920E94540C0F9089
S1130CC00F900F900F900F900F90F80180819181F9
S1130CD0CC0FDD1FC80FD91FE981FA8161817281B0
S1130CE0FB0101900020E9F73197AF01461B570B38
S1130CF080915D0490915E040E948D08A62DB72D0D
S1130D00FD0101900020E9F73197AF014A1B5B0B0D
S1130D10662D772D80915D0490915E040E948D086C
S1130D200E94EE05FFEF21EE84E0F1502040804068
S1130D30E1F700C00000862D972D0E94BF0B53944D
S1130D40F80180809180F4018081581608F482CFE4
S1130D504394F5018081481678F01CC05C01412C55
S1130D600F2EFFE2CF2EF3E0DF2EF02D0F2EFCE24C
S1130D70EF2EF3E0FF2EF02D042D10E0F801EE0F1E
S1130D80FF1FEA0DFB1D81809280F4018081811197
S1130D905ACFDECFDF91CF911F910F91FF90EF904B
S1130DA0DF90CF90BF90AF909F908F907F906F9087
S1130DB05F904F9008959FB7F894D09AD898EFEE2B
S1130DC0FAE03197F1F700C00000D89AEBE2F1E0C5
S1130DD03197F1F700C00000D098C8990CC0EFEE2D
S1130DE0FAE03197F1F700C0000089B3882329F0B5
S1130DF09FBF81E0089580E001C082E09FBF089515
S1130E00D09AD89880E18A95F1F7D89AD098E0E4FE
S1130E10EA95F1F7C89B02C080E801C080E0D09A4F
S1130E20D89AEBE2F1E03197F1F700C000000895A1
S1130E301F93CF93DF931FB7F894D09AD8E080E044
S1130E40C82FC6950E9400078C2BD150C9F71FBF2D
S1130E50DF91CF911F910895D09AD89880E58A9513
S1130E60F1F780EF8A95F1F7D89A8AE08A95F1F73D
S1130E7000C00895D09AD89880E58A95F1F7D89A59
S1130E808AEF8A95F1F700C00895DF92EF92FF92FE
S1130E900F931F93CF93DF93DFB6F89408E010E02D
S1130EA0C1E0D0E0E82EF12CC7018C239D23892BCF
S1130EB019F00E943A0702C00E942C07CC0FDD1FD4
S1130EC00150110989F7DFBEDF91CF911F910F9176
S1130ED0FF90EF90DF900895A0E0B0E0880F991F95
S1130EE0AA1FBB1F880F991FAA1FBB1F9C01AD011E
S1130EF0220F331F441F551F220F331F441F551F3A
S1130F0060E074E284EF90E00E94AC0ADA01C90167
S1130F100197A109B10989B9892F9A2FAB2FBB2752
S1130F20A7FDBA9580BD1BB888ED8AB986E080BD5F
S1130F300895A0E0B0E0880F991FAA1FBB1F880F77
S1130F40991FAA1FBB1F9C01AD01220F331F441F11
S1130F50551F220F331F441F551F60E074E284EFB6
S1130F6090E00E94AC0ADA01C9010197A109B10914
S1130F7080B9892F9A2FAB2FBB27A7FDBA958CBFB9
S1130F8088ED81B986E88CBF0895CF93CFB7F894E4
S1130F9080912C0290912D020E94410181110BC07D
S1130FA0159B07C080912C0290912D020E94F500A0
S1130FB083B9CFBF01C0CFBFCF910895CF93CFB72F
S1130FC0F89480912202909123020E9441018111A0
S1130FD00BC05D9B07C080912202909123020E9466
S1130FE0F5008CB9CFBF01C0CFBFCF910895AF92A8
S1130FF0BF92CF92DF92EF92FF921F93CF93DF9332
S1131000182F6B01823010F00E94480CC82FD0E0DA
S11310107E01EE0CFF1CCE01880F991F880F991FCB
S1131020880F991F8E0D9F1D9C01225E3D4F7901F3
S1131030F901808181110E94480C112319F01130AB
S1131040F1F039C080E00E947F009E01220F331F1F
S1131050220F331F220F331F5E01AA0CBB1C2A0D63
S11310603B1DA901425E5D4F5A01FA0193838283BD
S113107081E00E947F00F501958384831CC082E097
S11310800E947F009E01220F331F220F331F220F65
S1131090331F5E01AA0CBB1C2A0D3B1DA901425E35
S11310A05D4F5A01FA019383828383E00E947F009B
S11310B0F50195838483CE01880F991FCC0FDD1F22
S11310C0CC0FDD1FCC0FDD1FC80FD91FC25EDD4F53
S11310D01983EE81FF81C601099581E08883C701E8
S11310E0DF91CF911F91FF90EF90DF90CF90BF9051
S11310F0AF9008951F93CF93DF93EC011FB7F8943B
S11311008C819D810E943B018A819B810E943B01CD
S11311101FBFDF91CF911F9108951F93CF93DF934A
S1131120EC014115510511F40E94480C1FB7F894C5
S11311308C819D810E94CA001FBFE885F9850995AD
S1131140DF91CF911F910895CF93CFB7F894FC010D
S1131150828193810E94B800CFBFCF910895CF932D
S1131160CFB7F894FC01828193810E941101CFBF13
S1131170CF9108951F920F920FB60F9211242F93BF
S11311803F934F935F936F937F938F939F93AF930B
S1131190BF93EF93FF9363B180912A0290912B0246
S11311A00E949000FF91EF91BF91AF919F918F9119
S11311B07F916F915F914F913F912F910F900FBE4F
S11311C00F901F9018951F920F920FB60F92112433
S11311D02F933F934F935F936F937F938F939F933B
S11311E0AF93BF93EF93FF9380912C0290912D02C4
S11311F00E944101811107C080912C0290912D021F
S11312000E94F50083B9FF91EF91BF91AF919F9137
S11312108F917F916F915F914F913F912F910F909B
S11312200FBE0F901F9018951F920F920FB60F923A
S113123011242F933F934F935F936F937F938F93D7
S11312409F93AF93BF93EF93FF936CB18091200270
S1131250909121020E949000FF91EF91BF91AF9174
S11312609F918F917F916F915F914F913F912F91BA
S11312700F900FBE0F901F9018951F920F920FB6EC
S11312800F9211242F933F934F935F936F937F9308
S11312908F939F93AF93BF93EF93FF938091220219
S11312A0909123020E944101811107C08091220282
S11312B0909123020E94F5008CB9FF91EF91BF91A8
S11312C0AF919F918F917F916F915F914F913F91DA
S11312D02F910F900FBE0F901F9018950E94E20956
S11312E088F09F5798F0B92F9927B751B0F0E1F0E3
S11312F0660F771F881F991F1AF0BA95C9F714C093
S1131300B13091F00E94FC09B1E008950C94FC09FD
S1131310672F782F8827B85F39F0B93FCCF38695CB
S113132077956795B395D9F73EF490958095709528
S113133061957F4F8F4F9F4F0895E89409C097FBA5
S11313403EF490958095709561957F4F8F4F9F4F98
S11313509923A9F0F92F96E9BB279395F6958795DC
S113136077956795B795F111F8CFFAF4BB0F11F49F
S113137060FF1BC06F5F7F4F8F4F9F4F16C0882346
S113138011F096E911C0772321F09EE8872F762F7C
S113139005C0662371F096E8862F70E060E02AF0BD
S11313A09A95660F771F881FDAF7880F96958795A9
S11313B097F9089557FD9058440F551F59F05F3F12
S11313C071F04795880F97FB991F61F09F3F79F063
S11313D087950895121613061406551FF2CF4695E5
S11313E0F1DF08C0161617061806991FF1CF869567
S11313F07105610508940895E894BB27662777274B
S1131400CB0197F908950E94160A0C94870A0E944A
S1131410790A38F00E94800A20F0952311F00C9488
S1131420700A0C94760A11240C94FD090E94DA09BE
S113143070F3959FC1F3950F50E0551F629FF00123
S1131440729FBB27F00DB11D639FAA27F00DB11D3C
S1131450AA1F649F6627B00DA11D661F829F2227C5
S1131460B00DA11D621F739FB00DA11D621F839F4C
S1131470A00D611D221F749F3327A00D611D231F22
S1131480849F600D211D822F762F6A2F11249F5770
S113149050409AF0F1F088234AF0EE0FFF1FBB1F73
S11314A0661F771F881F91505040A9F79E3F510532
S11314B080F00C94700A0C94FD095F3FE4F3983EAD
S11314C0D4F3869577956795B795F795E7959F5FDC
S11314D0C1F7FE2B880F911D9695879597F908956E
S11314E097F99F6780E870E060E008959FEF80ECD3
S11314F0089500240A941616170618060906089576
S113150000240A9412161306140605060895092EDB
S11315100394000C11F4882352F0BB0F40F4BF2B4A
S113152011F460FF04C06F5F7F4F8F4F9F4F08958A
S1131530AA1BBB1B51E107C0AA1FBB1FA617B707F5
S113154010F0A61BB70B881F991F5A95A9F7809511
S11315509095BC01CD010895A1E21A2EAA1BBB1BD4
S1131560FD010DC0AA1FBB1FEE1FFF1FA217B3076B
S1131570E407F50720F0A21BB30BE40BF50B661F81
S1131580771F881F991F1A9469F760957095809545
S113159090959B01AC01BD01CF010895EE0FFF1F93
S11315A00590F491E02D09940F93083090F0982F52
S11315B0872F762F652F542F432F322F2227085041
S11315C0F4CF220F331F441F551F661F771F881F38
S11315D0991F0A95B2F70F91089597FB10F8169486
S11315E000080F93083098F00850232F342F452F0C
S11315F0562F672F782F892F902DF4CF0594979528
S113160087957795679557954795379527950A95C3
S1131610AAF70F9108950F931F93CF93DF93869F9B
S11316208001879F100D969F100D1124C8010E9400
S1131630270BEC01009729F0A80160E070E00E94FC
S11316404D0CCE01DF91CF911F910F9108950F930F
S11316501F93CF93DF938230910510F482E090E0E2
S1131660E0917B04F0917C0420E030E0A0E0B0E065
S1131670309719F14081518102811381481759072C
S1131680C8F08417950769F4109731F012960C93FB
S1131690129713961C9327C000937B0410937C0429
S11316A022C02115310519F04217530718F49A0185
S11316B0BD01EF01DF01F801DBCF21153105F9F0A0
S11316C0281B390B2430310580F48A819B816115F4
S11316D0710521F0FB019383828304C090937C0401
S11316E080937B04FE01329644C0FE01E20FF31F97
S11316F08193919322503109398328833AC02091F0
S1131700790430917A04232B41F420910201309121
S1131710030130937A0420937904209100013091DD
S113172001012115310541F42DB73EB74091040163
S113173050910501241B350BE0917904F0917A0452
S1131740E217F307A0F42E1B3F0B2817390778F094
S1131750AC014E5F5F4F2417350748F04E0F5F1FF3
S113176050937A04409379048193919302C0E0E00A
S1131770F0E0CF01DF91CF911F910F910895CF93A6
S1131780DF93009709F481C0FC013297138212821F
S1131790A0917B04B0917C04109781F42081318165
S11317A0820F931F2091790430917A042817390706
S11317B051F5F0937A04E093790467C0ED0120E0D9
S11317C030E0CE17DF0740F44A815B819E0141156A
S11317D05105F1F0EA01F5CFD383C28340815181F1
S11317E0840F951FC817D90759F488819981840FEC
S11317F0951F0296918380838A819B819383828340
S11318002115310529F4F0937C04E0937B043DC059
S1131810E901FB83EA8349915991C40FD51FEC1761
S1131820FD0761F480819181840F951F0296E9017F
S113183099838883828193819B838A83E0E0F0E0AB
S113184012968D919C911397009719F0FD01DC017C
S1131850F7CF8D919C9111979D012E5F3F4F820F81
S1131860931F2091790430917A042817390769F479
S1131870309729F410927C0410927B0402C01382E6
S11318801282B0937A04A0937904DF91CF910895E2
S113189081E090E0F8940C943E0FDC0101C06D935C
S11318A041505040E0F70895AEE0B0E0EAE5FCE0D6
S11318B00C94150F0D891E8986E08C831A83098385
S11318C08FEF9FE79E838D83AE01475E5F4F6F89E5
S11318D0788DCE0101960E94760CEF81F885E00F99
S11318E0F11F10822E96E4E00C94310FABE0B0E0CF
S11318F0ECE7FCE00C94070F6C017B018A01FC010E
S113190017821682838181FFCCC1CE0101963C01EE
S1131910F6019381F70193FD859193FF81917F01F6
S1131920882309F4BAC1853239F493FD859193FF74
S113193081917F01853229F4B60190E00E946D0EF9
S1131940E7CF912C212C312CFFE1F315D8F08B3209
S113195079F038F4803279F08332A1F4232D2061B8
S11319601DC08D3261F0803369F4232D216016C0CF
S1131970832D8260382EE32DE4603E2E2AC0F32DA1
S1131980F8601DC037FC2DC020ED280F2A3040F030
S11319908E32B9F436FC81C1232D2064322E19C055
S11319A036FE06C08AE0989E200D1124922E11C0A6
S11319B0EAE02E9E200D1124222EF32DF0623F2EFC
S11319C008C08C3621F4832D8068382E02C08836F6
S11319D041F4F70193FD859193FF81917F0181117A
S11319E0B3CF982F9F7D9554933028F40C5F1F4FED
S11319F09FE399830DC0833631F0833771F08335CB
S1131A0009F059C021C0F801808189830E5F1F4FFE
S1131A1088248394912C530113C02801F2E04F0EC3
S1131A20511CF801A080B18036FE03C0692D70E01E
S1131A3002C06FEF7FEFC5010E94620E4C0182016C
S1131A40F32DFF773F2E16C0280122E0420E511CD1
S1131A50F801A080B18036FE03C0692D70E002C099
S1131A606FEF7FEFC5010E94570E4C01F32DF06814
S1131A703F2E820133FC1BC0822D90E0881699060C
S1131A80B0F4B60180E290E00E946D0E2A94F4CF87
S1131A90F50137FC859137FE81915F01B60190E035
S1131AA00E946D0E21102A9421E0821A910881145B
S1131AB0910471F7E8C0843611F0893641F5F801D4
S1131AC037FE07C060817181828193810C5F1F4F53
S1131AD008C060817181072E000C880B990B0E5F82
S1131AE01F4FF32DFF763F2E97FF09C090958095E9
S1131AF0709561957F4F8F4F9F4FF0683F2E2AE07E
S1131B0030E0A3010E94A90E882E861845C08537AF
S1131B1031F4232D2F7EB22E2AE030E025C0932D00
S1131B20997FB92E8F36C1F018F4883579F0B5C095
S1131B30803719F0883721F0B0C0E92FE061BE2E5C
S1131B40B4FE0DC0FB2DF460BF2E09C034FE0AC0E4
S1131B50292F2660B22E06C028E030E005C020E11F
S1131B6030E002C020E132E0F801B7FE07C0608136
S1131B707181828193810C5F1F4F06C060817181E6
S1131B8080E090E00E5F1F4FA3010E94A90E882EF3
S1131B908618FB2DFF773F2E36FE0DC0232D2E7F9A
S1131BA0A22E891458F434FE0BC032FC09C0832DD4
S1131BB08E7EA82E05C0B82CA32C03C0B82C01C05F
S1131BC0B92CA4FE0FC0FE01E80DF11D8081803305
S1131BD021F49A2D997EA92E09C0A2FE06C0B394C1
S1131BE0B39404C08A2D867809F0B394A3FC11C081
S1131BF0A0FE06C0B21488F4280C922C9B180EC0C8
S1131C00B21460F4B60180E290E00E946D0EB394C9
S1131C10F7CFB21418F42B1802C0982C212CA4FE70
S1131C2010C0B60180E390E00E946D0EA2FE17C0C2
S1131C30A1FC03C088E790E002C088E590E0B6010B
S1131C400CC08A2D867859F0A1FE02C08BE201C037
S1131C5080E2A7FC8DE2B60190E00E946D0E89142B
S1131C6038F4B60180E390E00E946D0E9A94F7CFA9
S1131C708A94F301E80DF11D8081B60190E00E9481
S1131C806D0E8110F5CF222009F442CEB60180E218
S1131C9090E00E946D0E2A94F6CFF601868197811A
S1131CA002C08FEF9FEF2B96E2E10C94230FFC010F
S1131CB00590615070400110D8F7809590958E0F73
S1131CC09F1F0895FC016150704001900110D8F7E6
S1131CD0809590958E0F9F1F08950F931F93CF9318
S1131CE0DF93FB01238121FD03C08FEF9FEF2CC005
S1131CF022FF16C04681578124813581421753073C
S1131D0044F4A081B1819D012F5F3F4F3183208333
S1131D108C93268137812F5F3F4F3783268314C0EE
S1131D208B01EC01FB010084F185E02D0995892BE1
S1131D30E1F6D80116968D919C9117970196179606
S1131D409C938E931697CE01DF91CF911F910F91A3
S1131D500895FA01AA27283051F1203181F1E8943D
S1131D606F936E7F6E5F7F4F8F4F9F4FAF4FB1E08A
S1131D703ED0B4E03CD0670F781F891F9A1FA11D85
S1131D80680F791F8A1F911DA11D6A0F711D811D86
S1131D90911DA11D20D009F468943F912AE0269F4B
S1131DA011243019305D3193DEF6CF010895462FAA
S1131DB04770405D4193B3E00FD0C9F7F6CF462F8B
S1131DC04F70405D4A3318F0495D31FD40524193F4
S1131DD002D0A9F7EACFB4E0A695979587957795B1
S1131DE06795BA95C9F700976105710508959B0138
S1131DF0AC010A2E06945795479537952795BA95C1
S1131E00C9F7620F731F841F951FA01D08952F9299
S1131E103F924F925F926F927F928F929F92AF9276
S1131E20BF92CF92DF92EF92FF920F931F93CF93C3
S1131E30DF93CDB7DEB7CA1BDB0B0FB6F894DEBF5A
S1131E400FBECDBF09942A88398848885F846E8480
S1131E507D848C849B84AA84B984C884DF80EE80CA
S1131E60FD800C811B81AA81B981CE0FD11D0FB6D3
S1131E70F894DEBF0FBECDBFED010895F894FFCFF7
S1131E8000007D042000000000004000000000006D
S1131E90000000000000000000000000000000003E
S1131EA0000000000000000000000000000000002E
S1131EB0000000000000000000000000000000001E
S1131EC0000000000000000000000000000000000E
S1131ED040000000000000000000000000000000BE
S1131EE000000000000000000000000000000000EE
S1131EF000000000000000000000000000000000DE
S1131F0000000000000000000000000000000000CD
S1131F10000000000000400000000000000000007D
S1131F2000000000000000000000000000000000AD
S1131F30000000000000000000000000000000009D
S1131F40000000000000000000000000000000008D
S1131F50000000000000000000000000400000003D
S1131F60000000000000000000000000000000006D
S1131F70000000000000000000000000000000005D
S1131F80000000000000000000000000000000004D
S1131F90000000000000000000000000000000003D
S1131FA0000000006C07DE07000100000000990734
S1131FB0C5076E302E76616C3D006E312E76616CF5
S1131FC03D0070302E7069633D006E322E76616C78
S1131FD03D006E332E76616C3D0070312E70696366
S1131FE03D006E342E76616C3D006E352E76616C4C
S1131FF03D0070322E7069633D006E362E76616C42
S11320003D006E372E76616C3D0070332E7069632F
S11320103D006E382E76616C3D006E392E76616C13
S11320203D0070342E7069633D006E31302E766150
S11320306C3D006E31312E76616C3D0070352E7032
S113204069633D006E31322E76616C3D006E313332
S11320502E76616C3D0070362E7069633D006E31E2
S1132060342E76616C3D006E31352E76616C3D0008
S113207070372E7069633D006E31362E76616C3D8B
S1132080006E31372E76616C3D0070382E706963B6
S11320903D006E31382E76616C3D006E31392E76FE
S11320A0616C3D0070392E7069633D002564002524
S10720B02B64000099
S9030000FC
