:100000000C9442000C945F000C945F000C945F0011
:100010000C945F000C945F000C945F000C945F00E4
:100020000C945F000C945F000C945F000C945F00D4
:100030000C945F000C945F000C945F000C945F00C4
:100040000C945F000C945F000C945F000C945308B8
:100050000C94F9070C945F000C945F000C947C08DE
:100060000C9422080C945F000C945F000C945F00C9
:10007000280242025C0276029002AA02C402DE0258
:10008000F802120311241FBECFEFD4E0DEBFCDBFB4
:1000900013E0A0E0B1E0EEEFFCE102C005900D92AC
:1000A000A433B107D9F724E0A4E3B3E001C01D9263
:1000B000AB37B207E1F70E94D7040C947D0E0C9485
:1000C000000081111BC06623C1F091E095BB2FEFAA
:1000D00039E648E1215030404040E1F700C00000DF
:1000E00015BA2FEF39E648E1215030404040E1F7A2
:1000F00000C000008F5F6813E9CFFFCF0895CF9352
:10010000C82F81E0C43008F080E061E00E94610007
:1001100026E4C29FC00111248A5F9E4FCF910895AB
:100120001F93CF93DF93EC01162F6C817D818A8121
:100130009B81860F971F01970E94D709AC0181E030
:10014000288139814217530709F480E062E00E9458
:10015000610088819981FE01E80FF91F16830196DD
:100160008F73992799838883DF91CF911F91089589
:10017000FC0180819181428153818417950718F099
:10018000841B950B089524813581820F931F841B56
:10019000950B0895EF92FF920F931F93CF93DF93E8
:1001A0007C01EB018A010E94B800F70124813581AE
:1001B000281B390B81E00217130708F080E063E089
:1001C0000E9461000115110549F00C0F1D1F699176
:1001D000C7010E9490000C171D07C9F7DF91CF914E
:1001E0001F910F91FF90EF900895CF93DF93EC0153
:1001F0000E94B80021E0892B09F420E064E0822FFE
:100200000E9461002A813B81FE01E20FF31F86817B
:100210002F5F3F4F2F7333273B832A83DF91CF918B
:100220000895FC0113821282118210820895FC014C
:1002300081E040815181228133814217530709F0C7
:1002400080E00895FC0140E080E05CE8219198E0C6
:10025000322F38278695269530FD85279150C1F796
:100260004F5F461798F30895CF93DF938EEB0E946C
:1002700094060E946706C2E6D4E088830E9467065F
:1002800089830E9467068A830E9467068B830E9487
:1002900067068C830E9467068D830E9467068E83A3
:1002A0000E9467068F830E9467068887DF91CF913F
:1002B00008959F92AF92BF92CF92DF92EF92FF92FA
:1002C0000F931F93CF93DF93922EA32EB42EC52EA0
:1002D000D62EE72EF82E192F85E50E949406C0E051
:1002E000D0E0292D3A2D4B2D5C2D6D2D7E2D8F2D9F
:1002F000912F0C2F0E94130A08E30E942E0A822FCE
:100300000E9494062896C034D10559F7DF91CF9109
:100310001F910F91FF90EF90DF90CF90BF90AF9023
:100320009F9008950F931F93CF938C010E942A06EC
:10033000C82F813009F061C0D8012C9111963C91F1
:10034000119712964C91129713965C9113971496ED
:100350006C91149715967C91159716968C9116971B
:1003600017969C910E94590184E40E949406E7EB41
:10037000FBE03197F1F700C000000E942A06C82F69
:100380008130D9F5D8012C9111963C911197129694
:100390004C91129713965C91139714966C91149745
:1003A00015967C91159716968C91169717969C9199
:1003B0000E9459010E94340169E082E694E00E94A3
:1003C0002201811119C0E2E6F4E0818190E0982FCA
:1003D00088272081822BD80119969C938E93189799
:1003E00082811A968C931A9783811B968C931B9704
:1003F00084811C968C9301C0C3E08C2FCF911F91F8
:100400000F910895FC0160816F7070E080E090E0D2
:100410000E94DC0820E030E040E85DE30E944209F1
:1004200020E030E048EC52E40E9442090E94AD080E
:10043000862F0895CF93DF93462F50E04A30510521
:1004400008F009C1EC01FA01E85CFF4F0C940D0AB9
:1004500088859985929582958F7089279F708927C5
:1004600080931704CE0108960E9402028093140420
:100470008D85863021F481E080931104ECC01092C8
:100480001104E9C088859985929582958F70892796
:100490009F70892780930E04CE0108960E94020265
:1004A00080930B048D85863021F481E080930804CD
:1004B000D2C010920804CFC0888599859295829504
:1004C0008F7089279F70892780930504CE01089635
:1004D0000E940202809302048D85863021F481E01F
:1004E0008093FF03B8C01092FF03B5C0888599853B
:1004F000929582958F7089279F7089278093FC033E
:10050000CE0108960E9402028093F9038D85863001
:1005100021F481E08093F6039EC01092F6039BC005
:1005200088859985929582958F7089279F708927F4
:100530008093F303CE0108960E9402028093F00399
:100540008D85863021F481E08093ED0384C0109284
:10055000ED0381C088859985929582958F70892752
:100560009F7089278093EA03CE0108960E940202B9
:100570008093E7038D85863021F481E08093E40346
:100580006AC01092E40367C0888599859295829528
:100590008F7089279F7089278093E103CE01089689
:1005A0000E9402028093DE038D85863021F481E073
:1005B0008093DB0350C01092DB034DC08885998582
:1005C000929582958F7089279F7089278093D80391
:1005D000CE0108960E9402028093D5038D85863055
:1005E00021F481E08093D20336C01092D20333C04D
:1005F00088859985929582958F7089279F70892724
:100600008093CF03CE0108960E9402028093CC0310
:100610008D85863021F481E08093C9031CC010923F
:10062000C90319C088859985929582958F7089270D
:100630009F7089278093C603CE0108960E9402020C
:100640008093C3038D85863021F481E08093C003BD
:1006500002C01092C003DF91CF910895A89581B593
:10066000886181BD11BC0895F89440E855E260E0CE
:1006700070E081E00E94460790935D0480935C04E3
:1006800040E855E260E070E080E00E944607909309
:100690005B0480935A048CE594E00E94350587E55D
:1006A00094E00E94FF048AE194E00E94030562E363
:1006B00072E087E194E00E9407056AE372E084E15A
:1006C00094E00E94070562E472E081E194E00E94F8
:1006D00007056AE472E08EE094E00E94070562E597
:1006E00072E08BE094E00E9407056AE572E088E022
:1006F00094E00E94070562E672E085E094E00E94C3
:1007000007056AE672E082E094E00E94070562E76E
:1007100072E08FEF93E00E9407056AE772E08CEFCA
:1007200093E00E94070562E872E089EF93E00E947F
:1007300007056AE872E086EF93E00E94070562E928
:1007400072E083EF93E00E9407056AE972E080EFB0
:1007500093E00E94070562EA72E08DEE93E00E944A
:1007600007056AEA72E08AEE93E00E94070563EBF0
:1007700072E087EE93E00E9407056CEB72E084EE76
:1007800093E00E94070564EC72E081EE93E00E9422
:1007900007056DEC72E08EED93E00E94070566EDB3
:1007A00072E08BED93E00E9407056EED72E088ED3C
:1007B00093E00E94070567EE72E085ED93E00E94EA
:1007C000070560EF72E082ED93E00E94070568EF95
:1007D00072E08FEC93E00E94070561E073E08CEC1F
:1007E00093E00E9407056AE073E089EC93E00E94C1
:1007F000070562E173E086EC93E00E9407056BE178
:1008000073E083EC93E00E94070564E273E080EC00
:1008100093E00E94070567E174E08AE194E00E949A
:10082000200564E174E08AE194E00E94200561E122
:1008300074E08AE194E00E9420056EE074E08AE1B1
:1008400094E00E9420056BE074E08AE194E00E944D
:10085000200568E074E08AE194E00E94200565E0EC
:1008600074E08AE194E00E94200562E074E08AE18D
:1008700094E00E9420056FEF73E08AE194E00E940B
:1008800020056CEF73E08AE194E00E94200569EF97
:1008900073E08AE194E00E94200566EF73E08AE14C
:1008A00094E00E94200563EF73E08AE194E00E94E7
:1008B000200560EF73E08AE194E00E9420056DEE70
:1008C00073E08AE194E00E9420056AEE73E08AE119
:1008D00094E00E94200567EE73E08AE194E00E94B4
:1008E000200564EE73E08AE194E00E94200561EE49
:1008F00073E08AE194E00E9420056EED73E08AE1E6
:1009000094E00E9420056BED73E08AE194E00E9480
:10091000200568ED73E08AE194E00E94200565ED12
:1009200073E08AE194E00E94200562ED73E08AE1C1
:1009300094E00E9420056FEC73E08AE194E00E944D
:1009400020056CEC73E08AE194E00E94200569ECDC
:1009500073E08AE194E00E94200566EC73E08AE18E
:1009600094E00E94200563EC73E08AE194E00E9429
:10097000200560EC73E08AE194E00E9420056AE1C2
:1009800074E087E594E00E940B0580915C049091EF
:100990005D040E94CF0780915A0490915B040E94ED
:1009A000CF070E942E03789481E084BB08950E94B3
:1009B0003403EE24E394C4E3D3E010E08D85863065
:1009C00059F4E5BACE010E949201813029F4612FD9
:1009D0008C2F9D2F0E941A021F5F2E961A3071F7DE
:1009E00087E594E00E945D052FEF83ED90E32150B1
:1009F00080409040E1F700C0000015BADCCF21E054
:100A0000FC01208308952EE1FC0120830895FC0160
:100A1000728361830895DC0190915F048C91981733
:100A200068F4E92FF0E0EE0FFF1FEA0FFB1F72835F
:100A300061839F5F90935F0481E0089580E0089553
:100A4000DC0190915E048C91981768F4E92FF0E036
:100A5000EE0FFF1FEA0FFB1F728361839F5F90936E
:100A60005E0481E0089580E00895FC018081918119
:100A700090936104809360040895CF93DF9300D036
:100A800000D0CDB7DEB78FEF9FEFAFEFB0E0898337
:100A90009A83AB83BC8343E050E0BE016F5F7F4F1E
:100AA00080916004909161040E94E2070F900F9082
:100AB0000F900F90DF91CF9108954F925F926F92B8
:100AC0007F928F929F92AF92BF92CF92DF92EF92DE
:100AD000FF920F931F93CF93DF93FC01208121118D
:100AE0008CC0A7C0512C000F111F0A0D1B1D0F5FDA
:100AF0001F4F61E070E083E090E00E944A0A682E98
:100B0000792EC52DD0E0CE01880F991FF401E80F92
:100B1000F91F0180F281E02D808188239CF0282F2D
:100B2000082E000C330B3F938F93FF92EF927F922E
:100B30006F920E94930B0F900F900F900F900F9059
:100B40000F9012C0282F082E000C330B3F938F9369
:100B5000DF92CF927F926F920E94930B0F900F9033
:100B60000F900F900F900F90F80180819181CC0F22
:100B7000DD1FC80FD91FE981FA8161817281FB01F4
:100B800001900020E9F73197AF01461B570B809188
:100B90006004909161040E94E207A62DB72DFD012B
:100BA00001900020E9F73197AF014A1B5B0B662DDE
:100BB000772D80916004909161040E94E2070E9469
:100BC0003D05FFEF21EE84E0F15020408040E1F749
:100BD00000C00000862D972D0E94FE0A5394F80154
:100BE00080809180F4018081581608F482CF43946C
:100BF000F5018081481678F01CC05C01412C0F2E55
:100C0000FFE2CF2EF3E0DF2EF02D0F2EFCE2EF2ED1
:100C1000F3E0FF2EF02D042D10E0F801EE0FFF1F82
:100C2000EA0DFB1D81809280F401808181115ACFF1
:100C3000DECFDF91CF911F910F91FF90EF90DF906A
:100C4000CF90BF90AF909F908F907F906F905F906C
:100C50004F9008959FB7F894D09AD898EFEEFAE0A5
:100C60003197F1F700C00000D89AEBE2F1E031973C
:100C7000F1F700C00000D098C8990CC0EFEEFAE080
:100C80003197F1F700C0000089B3882329F09FBF96
:100C900081E0089580E001C082E09FBF0895D09A6E
:100CA000D89880E18A95F1F7D89AD098E0E4EA954F
:100CB000F1F7C89B02C080E801C080E0D09AD89AC2
:100CC000EBE2F1E03197F1F700C0000008951F93C7
:100CD000CF93DF931FB7F894D09AD8E080E0C82F65
:100CE000C6950E944F068C2BD150C9F71FBFDF91CC
:100CF000CF911F910895D09AD89880E58A95F1F701
:100D000080EF8A95F1F7D89A8AE08A95F1F700C0CA
:100D10000895D09AD89880E58A95F1F7D89A8AEF05
:100D20008A95F1F700C00895DF92EF92FF920F933A
:100D30001F93CF93DF93DFB6F89408E010E0C1E093
:100D4000D0E0E82EF12CC7018C239D23892B19F0CC
:100D50000E94890602C00E947B06CC0FDD1F015055
:100D6000110989F7DFBEDF91CF911F910F91FF909D
:100D7000EF90DF900895DC01CB01880F991FAA1F27
:100D8000BB1F880F991FAA1FBB1F9C01AD01220F1B
:100D9000331F441F551F220F331F441F551F60E090
:100DA00074E284EF90E00E94EB09DA01C901019737
:100DB000A109B10989B9892F9A2FAB2FBB27A7FDAC
:100DC000BA9580BD1BB888ED8AB986E080BD0895CC
:100DD000DC01CB01880F991FAA1FBB1F880F991F29
:100DE000AA1FBB1F9C01AD01220F331F441F551FBB
:100DF000220F331F441F551F60E074E284EF90E020
:100E00000E94EB09DA01C9010197A109B10980B972
:100E1000892F9A2FAB2FBB27A7FDBA958CBF88EDE2
:100E200081B986E88CBF0895CF93CFB7F8948091AD
:100E30002C0290912D020E94170181110BC0159B6D
:100E400007C080912C0290912D020E94F50083B979
:100E5000CFBF01C0CFBFCF910895CF93CFB7F89444
:100E600080912202909123020E94170181110BC0F0
:100E70005D9B07C080912202909123020E94F500A1
:100E80008CB9CFBF01C0CFBFCF9108959F92AF92D1
:100E9000BF92CF92DF92EF92FF920F931F93CF9367
:100EA000DF93982E6A017B0141E0481710F40E94FD
:100EB000870BC82FD0E08E01000F111FCE01880FC5
:100EC000991F880F991F880F991F080F191F025E1D
:100ED0001D4FF801808181110E94870B992021F01C
:100EE000F1E09F16F1F039C080E00E947F009E0182
:100EF000220F331F220F331F220F331F5E01AA0C54
:100F0000BB1C2A0D3B1DA901425E5D4F5A01FA012F
:100F10009383828381E00E947F00F501958384831F
:100F20001CC082E00E947F009E01220F331F220F0F
:100F3000331F220F331F5E01AA0CBB1C2A0D3B1D61
:100F4000A901425E5D4F5A01FA019383828383E0D7
:100F50000E947F00F50195838483CE01880F991F3D
:100F6000CC0FDD1FCC0FDD1FCC0FDD1FC80FD91F2D
:100F7000C25EDD4F9982EE81FF81C701B6010995FE
:100F800081E08883C801DF91CF911F910F91FF907D
:100F9000EF90DF90CF90BF90AF909F9008951F93F8
:100FA000CF93DF93EC011FB7F8948C819D810E9451
:100FB00011018A819B810E9411011FBFDF91CF9196
:100FC0001F9108951F93CF93DF93EC0141155105B5
:100FD00011F40E94870B1FB7F8948C819D810E94A9
:100FE000CA001FBFE885F9850995DF91CF911F9150
:100FF00008951F920F920FB60F9211242F933F93D3
:101000004F935F936F937F938F939F93AF93BF9310
:10101000EF93FF9363B180912A0290912B020E947B
:101020009000FF91EF91BF91AF919F918F917F9130
:101030006F915F914F913F912F910F900FBE0F9045
:101040001F9018951F920F920FB60F9211242F9395
:101050003F934F935F936F937F938F939F93AF9340
:10106000BF93EF93FF9380912C0290912D020E94E9
:101070001701811107C080912C0290912D020E94CE
:10108000F50083B9FF91EF91BF91AF919F918F913F
:101090007F916F915F914F913F912F910F900FBE74
:1010A0000F901F9018951F920F920FB60F92112458
:1010B0002F933F934F935F936F937F938F939F9360
:1010C000AF93BF93EF93FF936CB180912002909107
:1010D00021020E949000FF91EF91BF91AF919F91EB
:1010E0008F917F916F915F914F913F912F910F90D1
:1010F0000FBE0F901F9018951F920F920FB60F9270
:1011000011242F933F934F935F936F937F938F930C
:101110009F93AF93BF93EF93FF938091220290919F
:1011200023020E941701811107C080912202909131
:1011300023020E94F5008CB9FF91EF91BF91AF910E
:101140009F918F917F916F915F914F913F912F91DF
:101150000F900FBE0F901F9018950E94210988F0E4
:101160009F5798F0B92F9927B751B0F0E1F0660F6B
:10117000771F881F991F1AF0BA95C9F714C0B130AC
:1011800091F00E943B09B1E008950C943B09672F50
:10119000782F8827B85F39F0B93FCCF386957795DB
:1011A0006795B395D9F73EF49095809570956195C4
:1011B0007F4F8F4F9F4F0895E89409C097FB3EF4EF
:1011C00090958095709561957F4F8F4F9F4F992394
:1011D000A9F0F92F96E9BB279395F6958795779512
:1011E0006795B795F111F8CFFAF4BB0F11F460FFD2
:1011F0001BC06F5F7F4F8F4F9F4F16C0882311F02A
:1012000096E911C0772321F09EE8872F762F05C03D
:10121000662371F096E8862F70E060E02AF09A95D8
:10122000660F771F881FDAF7880F9695879597F9CD
:10123000089557FD9058440F551F59F05F3F71F0C6
:101240004795880F97FB991F61F09F3F79F087952D
:101250000895121613061406551FF2CF4695F1DFB6
:1012600008C0161617061806991FF1CF8695710546
:10127000610508940895E894BB2766277727CB017A
:1012800097F908950E9455090C94C6090E94B8095F
:1012900038F00E94BF0920F0952311F00C94AF099B
:1012A0000C94B50911240C943C090E94190970F39F
:1012B000959FC1F3950F50E0551F629FF001729FFB
:1012C000BB27F00DB11D639FAA27F00DB11DAA1F0A
:1012D000649F6627B00DA11D661F829F2227B00D57
:1012E000A11D621F739FB00DA11D621F839FA00DE2
:1012F000611D221F749F3327A00D611D231F849F32
:10130000600D211D822F762F6A2F11249F57504088
:101310009AF0F1F088234AF0EE0FFF1FBB1F661F03
:10132000771F881F91505040A9F79E3F510580F0CC
:101330000C94AF090C943C095F3FE4F3983ED4F35E
:10134000869577956795B795F795E7959F5FC1F770
:10135000FE2B880F911D9695879597F9089597F91B
:101360009F6780E870E060E008959FEF80EC08954B
:1013700000240A9416161706180609060895002474
:101380000A9412161306140605060895092E0394EE
:10139000000C11F4882352F0BB0F40F4BF2B11F462
:1013A00060FF04C06F5F7F4F8F4F9F4F0895AA1B50
:1013B000BB1B51E107C0AA1FBB1FA617B70710F040
:1013C000A61BB70B881F991F5A95A9F78095909572
:1013D000BC01CD010895A1E21A2EAA1BBB1BFD0181
:1013E0000DC0AA1FBB1FEE1FFF1FA217B307E40704
:1013F000F50720F0A21BB30BE40BF50B661F771F5C
:10140000881F991F1A9469F760957095809590953B
:101410009B01AC01BD01CF010895EE0FFF1F0590A8
:10142000F491E02D09940F93083090F0982F872FB6
:10143000762F652F542F432F322F22270850F4CFB9
:10144000220F331F441F551F661F771F881F991FC8
:101450000A95B2F70F91089597FB10F816940008BB
:101460000F93083098F00850232F342F452F562F14
:10147000672F782F892F902DF4CF05949795879516
:101480007795679557954795379527950A95AAF7C4
:101490000F9108950F931F93CF93DF93869F800141
:1014A000879F100D969F100D1124C8010E94660A97
:1014B000EC01009729F0A80160E070E00E948C0B1D
:1014C000CE01DF91CF911F910F9108950F931F933C
:1014D000CF93DF938230910510F482E090E0E091A9
:1014E0007904F0917A0420E030E0A0E0B0E0309799
:1014F00019F1408151810281138148175907C8F0C1
:101500008417950769F4109731F012960C9312978F
:1015100013961C9327C00093790410937A0422C079
:101520002115310519F04217530718F49A01BD012E
:10153000EF01DF01F801DBCF21153105F9F0281BA0
:10154000390B2430310580F48A819B816115710546
:1015500021F0FB019383828304C090937A048093EB
:101560007904FE01329644C0FE01E20FF31F81931D
:10157000919322503109398328833AC0209177040E
:1015800030917804232B41F4209102013091030122
:101590003093780420937704209100013091010169
:1015A0002115310541F42DB73EB74091040150910A
:1015B0000501241B350BE0917704F0917804E217C4
:1015C000F307A0F42E1B3F0B2817390778F0AC0166
:1015D0004E5F5F4F2417350748F04E0F5F1F509343
:1015E0007804409377048193919302C0E0E0F0E0A7
:1015F000CF01DF91CF911F910F910895CF93DF938A
:10160000009709F481C0FC01329713821282A091E5
:101610007904B0917A04109781F420813181820F8E
:10162000931F20917704309178042817390751F5DA
:10163000F0937804E093770467C0ED0120E030E098
:10164000CE17DF0740F44A815B819E0141155105A9
:10165000F1F0EA01F5CFD383C28340815181840F39
:10166000951FC817D90759F488819981840F951F50
:101670000296918380838A819B8193838283211543
:10168000310529F4F0937A04E09379043DC0E9012F
:10169000FB83EA8349915991C40FD51FEC17FD07CD
:1016A00061F480819181840F951F0296E9019983ED
:1016B0008883828193819B838A83E0E0F0E01296A5
:1016C0008D919C911397009719F0FD01DC01F7CFE4
:1016D0008D919C9111979D012E5F3F4F820F931F1B
:1016E00020917704309178042817390769F43097EE
:1016F00029F410927A041092790402C013821282A3
:10170000B0937804A0937704DF91CF91089581E09E
:1017100090E0F8940C947D0EDC0101C06D93415073
:101720005040E0F70895AEE0B0E0E9E9FBE00C944A
:10173000540E0D891E8986E08C831A8309838FEFEE
:101740009FE79E838D83AE01475E5F4F6F89788DE3
:10175000CE0101960E94B50BEF81F885E00FF11FD5
:1017600010822E96E4E00C94700EABE0B0E0EBEB50
:10177000FBE00C94460E6C017B018A01FC01178290
:101780001682838181FFCCC1CE0101963C01F60116
:101790009381F70193FD859193FF81917F018823C8
:1017A00009F4BAC1853239F493FD859193FF819193
:1017B0007F01853229F4B60190E00E94AC0DE7CF9D
:1017C000912C212C312CFFE1F315D8F08B3279F0DC
:1017D00038F4803279F08332A1F4232D20611DC0CA
:1017E0008D3261F0803369F4232D216016C0832D82
:1017F0008260382EE32DE4603E2E2AC0F32DF8607F
:101800001DC037FC2DC020ED280F2A3040F08E324D
:10181000B9F436FC81C1232D2064322E19C036FE66
:1018200006C08AE0989E200D1124922E11C0EAE095
:101830002E9E200D1124222EF32DF0623F2E08C083
:101840008C3621F4832D8068382E02C0883641F40E
:10185000F70193FD859193FF81917F018111B3CFB2
:10186000982F9F7D9554933028F40C5F1F4F9FE372
:1018700099830DC0833631F0833771F0833509F0D9
:1018800059C021C0F801808189830E5F1F4F8824D1
:101890008394912C530113C02801F2E04F0E511C88
:1018A000F801A080B18036FE03C0692D70E002C04F
:1018B0006FEF7FEFC5010E94A10D4C018201F32D56
:1018C000FF773F2E16C0280122E0420E511CF8017E
:1018D000A080B18036FE03C0692D70E002C06FEFBA
:1018E0007FEFC5010E94960D4C01F32DF0683F2E4D
:1018F000820133FC1BC0822D90E088169906B0F45B
:10190000B60180E290E00E94AC0D2A94F4CFF5017C
:1019100037FC859137FE81915F01B60190E00E940E
:10192000AC0D21102A9421E0821A910881149104AF
:1019300071F7E8C0843611F0893641F5F80137FEB9
:1019400007C060817181828193810C5F1F4F08C045
:1019500060817181072E000C880B990B0E5F1F4F61
:10196000F32DFF763F2E97FF09C0909580957095D7
:1019700061957F4F8F4F9F4FF0683F2E2AE030E0F8
:10198000A3010E94E80D882E861845C0853731F4E2
:10199000232D2F7EB22E2AE030E025C0932D997F93
:1019A000B92E8F36C1F018F4883579F0B5C080377C
:1019B00019F0883721F0B0C0E92FE061BE2EB4FEE7
:1019C0000DC0FB2DF460BF2E09C034FE0AC0292FC4
:1019D0002660B22E06C028E030E005C020E130E0ED
:1019E00002C020E132E0F801B7FE07C060817181DA
:1019F000828193810C5F1F4F06C06081718180E0FE
:101A000090E00E5F1F4FA3010E94E80D882E8618FC
:101A1000FB2DFF773F2E36FE0DC0232D2E7FA22EED
:101A2000891458F434FE0BC032FC09C0832D8E7E1D
:101A3000A82E05C0B82CA32C03C0B82C01C0B92C0B
:101A4000A4FE0FC0FE01E80DF11D8081803321F45A
:101A50009A2D997EA92E09C0A2FE06C0B394B39414
:101A600004C08A2D867809F0B394A3FC11C0A0FEAF
:101A700006C0B21488F4280C922C9B180EC0B21425
:101A800060F4B60180E290E00E94AC0DB394F7CF11
:101A9000B21418F42B1802C0982C212CA4FE10C0EC
:101AA000B60180E390E00E94AC0DA2FE17C0A1FC3D
:101AB00003C088E790E002C088E590E0B6010CC062
:101AC0008A2D867859F0A1FE02C08BE201C080E227
:101AD000A7FC8DE2B60190E00E94AC0D891438F4A9
:101AE000B60180E390E00E94AC0D9A94F7CF8A94FF
:101AF000F301E80DF11D8081B60190E00E94AC0D6C
:101B00008110F5CF222009F442CEB60180E290E0A8
:101B10000E94AC0D2A94F6CFF6018681978102C00F
:101B20008FEF9FEF2B96E2E10C94620EFC01059083
:101B3000615070400110D8F7809590958E0F9F1FCF
:101B40000895FC016150704001900110D8F7809514
:101B500090958E0F9F1F08950F931F93CF93DF9340
:101B6000FB01238121FD03C08FEF9FEF2CC022FFDB
:101B700016C046815781248135814217530744F4AA
:101B8000A081B1819D012F5F3F4F318320838C93D2
:101B9000268137812F5F3F4F3783268314C08B0107
:101BA000EC01FB010084F185E02D0995892BE1F61C
:101BB000D80116968D919C911797019617969C9334
:101BC0008E931697CE01DF91CF911F910F910895BB
:101BD000FA01AA27283051F1203181F1E8946F935E
:101BE0006E7F6E5F7F4F8F4F9F4FAF4FB1E03ED004
:101BF000B4E03CD0670F781F891F9A1FA11D680FA2
:101C0000791F8A1F911DA11D6A0F711D811D911DD4
:101C1000A11D20D009F468943F912AE0269F112449
:101C20003019305D3193DEF6CF010895462F4770AD
:101C3000405D4193B3E00FD0C9F7F6CF462F4F7008
:101C4000405D4A3318F0495D31FD4052419302D066
:101C5000A9F7EACFB4E0A69597958795779567950C
:101C6000BA95C9F700976105710508959B01AC010C
:101C70000A2E06945795479537952795BA95C9F733
:101C8000620F731F841F951FA01D08952F923F920E
:101C90004F925F926F927F928F929F92AF92BF927C
:101CA000CF92DF92EF92FF920F931F93CF93DF9328
:101CB000CDB7DEB7CA1BDB0B0FB6F894DEBF0FBE85
:101CC000CDBF09942A88398848885F846E847D84D2
:101CD0008C849B84AA84B984C884DF80EE80FD80D4
:101CE0000C811B81AA81B981CE0FD11D0FB6F8944A
:0E1CF000DEBF0FBECDBFED010895F894FFCF0B
:101CFE0000007B04200000000000400000000000F7
:101D0E0000000000000000000000000000000000C5
:101D1E0000000000000000000000000000000000B5
:101D2E0000000000000000000000000000000000A5
:101D3E000000000000000000000000000000000095
:101D4E004000000000000000000000000000000045
:101D5E000000000000000000000000000000000075
:101D6E000000000000000000000000000000000065
:101D7E000000000000000000000000000000000055
:101D8E000000000000004000000000000000000005
:101D9E000000000000000000000000000000000035
:101DAE000000000000000000000000000000000025
:101DBE000000000000000000000000000000000015
:101DCE0000000000000000000000000040000000C5
:101DDE0000000000000000000000000000000000F5
:101DEE0000000000000000000000000000000000E5
:101DFE0000000000000000000000000000000000D5
:101E0E0000000000000000000000000000000000C4
:101E1E0000000000BB062D07000100000000E806D0
:101E2E0014076E302E76616C3D006E312E76616C2D
:101E3E003D0070302E7069633D006E322E76616CFF
:101E4E003D006E332E76616C3D0070312E706963ED
:101E5E003D006E342E76616C3D006E352E76616CD3
:101E6E003D0070322E7069633D006E362E76616CC9
:101E7E003D006E372E76616C3D0070332E706963B7
:101E8E003D006E382E76616C3D006E392E76616C9B
:101E9E003D0070342E7069633D006E31302E7661D8
:101EAE006C3D006E31312E76616C3D0070352E70BA
:101EBE0069633D006E31322E76616C3D006E3133BA
:101ECE002E76616C3D0070362E7069633D006E316A
:101EDE00342E76616C3D006E31352E76616C3D0090
:101EEE0070372E7069633D006E31362E76616C3D13
:101EFE00006E31372E76616C3D0070382E7069633E
:101F0E003D006E31382E76616C3D006E31392E7685
:101F1E00616C3D0070392E7069633D0025640025AB
:041F2E002B64000020
:00000001FF
